
QuadMotorShield.elf:     file format elf32-littlearm

Sections:
Idx Name          Size      VMA       LMA       File off  Algn
  0 .isr_vector   000000c0  08000000  08000000  00010000  2**0
                  CONTENTS, ALLOC, LOAD, READONLY, DATA
  1 .text         00006edc  080000c0  080000c0  000100c0  2**2
                  CONTENTS, ALLOC, LOAD, READONLY, CODE
  2 .rodata       00000288  08006f9c  08006f9c  00016f9c  2**2
                  CONTENTS, ALLOC, LOAD, READONLY, DATA
  3 .ARM.extab    00000000  08007224  08007224  00020074  2**0
                  CONTENTS
  4 .ARM          00000008  08007224  08007224  00017224  2**2
                  CONTENTS, ALLOC, LOAD, READONLY, DATA
  5 .preinit_array 00000000  0800722c  0800722c  00020074  2**0
                  CONTENTS, ALLOC, LOAD, DATA
  6 .init_array   00000004  0800722c  0800722c  0001722c  2**2
                  CONTENTS, ALLOC, LOAD, DATA
  7 .fini_array   00000004  08007230  08007230  00017230  2**2
                  CONTENTS, ALLOC, LOAD, DATA
  8 .data         00000074  20000000  08007234  00020000  2**2
                  CONTENTS, ALLOC, LOAD, DATA
  9 .bss          00000784  20000074  080072a8  00020074  2**2
                  ALLOC
 10 ._user_heap_stack 00000600  200007f8  080072a8  000207f8  2**0
                  ALLOC
 11 .ARM.attributes 00000028  00000000  00000000  00020074  2**0
                  CONTENTS, READONLY
 12 .debug_info   000193d2  00000000  00000000  0002009c  2**0
                  CONTENTS, READONLY, DEBUGGING, OCTETS
 13 .debug_abbrev 000046fd  00000000  00000000  0003946e  2**0
                  CONTENTS, READONLY, DEBUGGING, OCTETS
 14 .debug_aranges 00001388  00000000  00000000  0003db70  2**3
                  CONTENTS, READONLY, DEBUGGING, OCTETS
 15 .debug_ranges 00001138  00000000  00000000  0003eef8  2**3
                  CONTENTS, READONLY, DEBUGGING, OCTETS
 16 .debug_macro  000193fc  00000000  00000000  00040030  2**0
                  CONTENTS, READONLY, DEBUGGING, OCTETS
 17 .debug_line   00019fd7  00000000  00000000  0005942c  2**0
                  CONTENTS, READONLY, DEBUGGING, OCTETS
 18 .debug_str    00085158  00000000  00000000  00073403  2**0
                  CONTENTS, READONLY, DEBUGGING, OCTETS
 19 .comment      00000053  00000000  00000000  000f855b  2**0
                  CONTENTS, READONLY
 20 .debug_frame  000045bc  00000000  00000000  000f85b0  2**2
                  CONTENTS, READONLY, DEBUGGING, OCTETS

Disassembly of section .text:

080000c0 <__do_global_dtors_aux>:
 80000c0:	b510      	push	{r4, lr}
 80000c2:	4c06      	ldr	r4, [pc, #24]	; (80000dc <__do_global_dtors_aux+0x1c>)
 80000c4:	7823      	ldrb	r3, [r4, #0]
 80000c6:	2b00      	cmp	r3, #0
 80000c8:	d107      	bne.n	80000da <__do_global_dtors_aux+0x1a>
 80000ca:	4b05      	ldr	r3, [pc, #20]	; (80000e0 <__do_global_dtors_aux+0x20>)
 80000cc:	2b00      	cmp	r3, #0
 80000ce:	d002      	beq.n	80000d6 <__do_global_dtors_aux+0x16>
 80000d0:	4804      	ldr	r0, [pc, #16]	; (80000e4 <__do_global_dtors_aux+0x24>)
 80000d2:	e000      	b.n	80000d6 <__do_global_dtors_aux+0x16>
 80000d4:	bf00      	nop
 80000d6:	2301      	movs	r3, #1
 80000d8:	7023      	strb	r3, [r4, #0]
 80000da:	bd10      	pop	{r4, pc}
 80000dc:	20000074 	.word	0x20000074
 80000e0:	00000000 	.word	0x00000000
 80000e4:	08006f84 	.word	0x08006f84

080000e8 <frame_dummy>:
 80000e8:	4b04      	ldr	r3, [pc, #16]	; (80000fc <frame_dummy+0x14>)
 80000ea:	b510      	push	{r4, lr}
 80000ec:	2b00      	cmp	r3, #0
 80000ee:	d003      	beq.n	80000f8 <frame_dummy+0x10>
 80000f0:	4903      	ldr	r1, [pc, #12]	; (8000100 <frame_dummy+0x18>)
 80000f2:	4804      	ldr	r0, [pc, #16]	; (8000104 <frame_dummy+0x1c>)
 80000f4:	e000      	b.n	80000f8 <frame_dummy+0x10>
 80000f6:	bf00      	nop
 80000f8:	bd10      	pop	{r4, pc}
 80000fa:	46c0      	nop			; (mov r8, r8)
 80000fc:	00000000 	.word	0x00000000
 8000100:	20000078 	.word	0x20000078
 8000104:	08006f84 	.word	0x08006f84

08000108 <strlen>:
 8000108:	2300      	movs	r3, #0
 800010a:	5cc2      	ldrb	r2, [r0, r3]
 800010c:	3301      	adds	r3, #1
 800010e:	2a00      	cmp	r2, #0
 8000110:	d1fb      	bne.n	800010a <strlen+0x2>
 8000112:	1e58      	subs	r0, r3, #1
 8000114:	4770      	bx	lr
	...

08000118 <__gnu_thumb1_case_shi>:
 8000118:	b403      	push	{r0, r1}
 800011a:	4671      	mov	r1, lr
 800011c:	0849      	lsrs	r1, r1, #1
 800011e:	0040      	lsls	r0, r0, #1
 8000120:	0049      	lsls	r1, r1, #1
 8000122:	5e09      	ldrsh	r1, [r1, r0]
 8000124:	0049      	lsls	r1, r1, #1
 8000126:	448e      	add	lr, r1
 8000128:	bc03      	pop	{r0, r1}
 800012a:	4770      	bx	lr

0800012c <__udivsi3>:
 800012c:	2200      	movs	r2, #0
 800012e:	0843      	lsrs	r3, r0, #1
 8000130:	428b      	cmp	r3, r1
 8000132:	d374      	bcc.n	800021e <__udivsi3+0xf2>
 8000134:	0903      	lsrs	r3, r0, #4
 8000136:	428b      	cmp	r3, r1
 8000138:	d35f      	bcc.n	80001fa <__udivsi3+0xce>
 800013a:	0a03      	lsrs	r3, r0, #8
 800013c:	428b      	cmp	r3, r1
 800013e:	d344      	bcc.n	80001ca <__udivsi3+0x9e>
 8000140:	0b03      	lsrs	r3, r0, #12
 8000142:	428b      	cmp	r3, r1
 8000144:	d328      	bcc.n	8000198 <__udivsi3+0x6c>
 8000146:	0c03      	lsrs	r3, r0, #16
 8000148:	428b      	cmp	r3, r1
 800014a:	d30d      	bcc.n	8000168 <__udivsi3+0x3c>
 800014c:	22ff      	movs	r2, #255	; 0xff
 800014e:	0209      	lsls	r1, r1, #8
 8000150:	ba12      	rev	r2, r2
 8000152:	0c03      	lsrs	r3, r0, #16
 8000154:	428b      	cmp	r3, r1
 8000156:	d302      	bcc.n	800015e <__udivsi3+0x32>
 8000158:	1212      	asrs	r2, r2, #8
 800015a:	0209      	lsls	r1, r1, #8
 800015c:	d065      	beq.n	800022a <__udivsi3+0xfe>
 800015e:	0b03      	lsrs	r3, r0, #12
 8000160:	428b      	cmp	r3, r1
 8000162:	d319      	bcc.n	8000198 <__udivsi3+0x6c>
 8000164:	e000      	b.n	8000168 <__udivsi3+0x3c>
 8000166:	0a09      	lsrs	r1, r1, #8
 8000168:	0bc3      	lsrs	r3, r0, #15
 800016a:	428b      	cmp	r3, r1
 800016c:	d301      	bcc.n	8000172 <__udivsi3+0x46>
 800016e:	03cb      	lsls	r3, r1, #15
 8000170:	1ac0      	subs	r0, r0, r3
 8000172:	4152      	adcs	r2, r2
 8000174:	0b83      	lsrs	r3, r0, #14
 8000176:	428b      	cmp	r3, r1
 8000178:	d301      	bcc.n	800017e <__udivsi3+0x52>
 800017a:	038b      	lsls	r3, r1, #14
 800017c:	1ac0      	subs	r0, r0, r3
 800017e:	4152      	adcs	r2, r2
 8000180:	0b43      	lsrs	r3, r0, #13
 8000182:	428b      	cmp	r3, r1
 8000184:	d301      	bcc.n	800018a <__udivsi3+0x5e>
 8000186:	034b      	lsls	r3, r1, #13
 8000188:	1ac0      	subs	r0, r0, r3
 800018a:	4152      	adcs	r2, r2
 800018c:	0b03      	lsrs	r3, r0, #12
 800018e:	428b      	cmp	r3, r1
 8000190:	d301      	bcc.n	8000196 <__udivsi3+0x6a>
 8000192:	030b      	lsls	r3, r1, #12
 8000194:	1ac0      	subs	r0, r0, r3
 8000196:	4152      	adcs	r2, r2
 8000198:	0ac3      	lsrs	r3, r0, #11
 800019a:	428b      	cmp	r3, r1
 800019c:	d301      	bcc.n	80001a2 <__udivsi3+0x76>
 800019e:	02cb      	lsls	r3, r1, #11
 80001a0:	1ac0      	subs	r0, r0, r3
 80001a2:	4152      	adcs	r2, r2
 80001a4:	0a83      	lsrs	r3, r0, #10
 80001a6:	428b      	cmp	r3, r1
 80001a8:	d301      	bcc.n	80001ae <__udivsi3+0x82>
 80001aa:	028b      	lsls	r3, r1, #10
 80001ac:	1ac0      	subs	r0, r0, r3
 80001ae:	4152      	adcs	r2, r2
 80001b0:	0a43      	lsrs	r3, r0, #9
 80001b2:	428b      	cmp	r3, r1
 80001b4:	d301      	bcc.n	80001ba <__udivsi3+0x8e>
 80001b6:	024b      	lsls	r3, r1, #9
 80001b8:	1ac0      	subs	r0, r0, r3
 80001ba:	4152      	adcs	r2, r2
 80001bc:	0a03      	lsrs	r3, r0, #8
 80001be:	428b      	cmp	r3, r1
 80001c0:	d301      	bcc.n	80001c6 <__udivsi3+0x9a>
 80001c2:	020b      	lsls	r3, r1, #8
 80001c4:	1ac0      	subs	r0, r0, r3
 80001c6:	4152      	adcs	r2, r2
 80001c8:	d2cd      	bcs.n	8000166 <__udivsi3+0x3a>
 80001ca:	09c3      	lsrs	r3, r0, #7
 80001cc:	428b      	cmp	r3, r1
 80001ce:	d301      	bcc.n	80001d4 <__udivsi3+0xa8>
 80001d0:	01cb      	lsls	r3, r1, #7
 80001d2:	1ac0      	subs	r0, r0, r3
 80001d4:	4152      	adcs	r2, r2
 80001d6:	0983      	lsrs	r3, r0, #6
 80001d8:	428b      	cmp	r3, r1
 80001da:	d301      	bcc.n	80001e0 <__udivsi3+0xb4>
 80001dc:	018b      	lsls	r3, r1, #6
 80001de:	1ac0      	subs	r0, r0, r3
 80001e0:	4152      	adcs	r2, r2
 80001e2:	0943      	lsrs	r3, r0, #5
 80001e4:	428b      	cmp	r3, r1
 80001e6:	d301      	bcc.n	80001ec <__udivsi3+0xc0>
 80001e8:	014b      	lsls	r3, r1, #5
 80001ea:	1ac0      	subs	r0, r0, r3
 80001ec:	4152      	adcs	r2, r2
 80001ee:	0903      	lsrs	r3, r0, #4
 80001f0:	428b      	cmp	r3, r1
 80001f2:	d301      	bcc.n	80001f8 <__udivsi3+0xcc>
 80001f4:	010b      	lsls	r3, r1, #4
 80001f6:	1ac0      	subs	r0, r0, r3
 80001f8:	4152      	adcs	r2, r2
 80001fa:	08c3      	lsrs	r3, r0, #3
 80001fc:	428b      	cmp	r3, r1
 80001fe:	d301      	bcc.n	8000204 <__udivsi3+0xd8>
 8000200:	00cb      	lsls	r3, r1, #3
 8000202:	1ac0      	subs	r0, r0, r3
 8000204:	4152      	adcs	r2, r2
 8000206:	0883      	lsrs	r3, r0, #2
 8000208:	428b      	cmp	r3, r1
 800020a:	d301      	bcc.n	8000210 <__udivsi3+0xe4>
 800020c:	008b      	lsls	r3, r1, #2
 800020e:	1ac0      	subs	r0, r0, r3
 8000210:	4152      	adcs	r2, r2
 8000212:	0843      	lsrs	r3, r0, #1
 8000214:	428b      	cmp	r3, r1
 8000216:	d301      	bcc.n	800021c <__udivsi3+0xf0>
 8000218:	004b      	lsls	r3, r1, #1
 800021a:	1ac0      	subs	r0, r0, r3
 800021c:	4152      	adcs	r2, r2
 800021e:	1a41      	subs	r1, r0, r1
 8000220:	d200      	bcs.n	8000224 <__udivsi3+0xf8>
 8000222:	4601      	mov	r1, r0
 8000224:	4152      	adcs	r2, r2
 8000226:	4610      	mov	r0, r2
 8000228:	4770      	bx	lr
 800022a:	e7ff      	b.n	800022c <__udivsi3+0x100>
 800022c:	b501      	push	{r0, lr}
 800022e:	2000      	movs	r0, #0
 8000230:	f000 f8f0 	bl	8000414 <__aeabi_idiv0>
 8000234:	bd02      	pop	{r1, pc}
 8000236:	46c0      	nop			; (mov r8, r8)

08000238 <__aeabi_uidivmod>:
 8000238:	2900      	cmp	r1, #0
 800023a:	d0f7      	beq.n	800022c <__udivsi3+0x100>
 800023c:	e776      	b.n	800012c <__udivsi3>
 800023e:	4770      	bx	lr

08000240 <__divsi3>:
 8000240:	4603      	mov	r3, r0
 8000242:	430b      	orrs	r3, r1
 8000244:	d47f      	bmi.n	8000346 <__divsi3+0x106>
 8000246:	2200      	movs	r2, #0
 8000248:	0843      	lsrs	r3, r0, #1
 800024a:	428b      	cmp	r3, r1
 800024c:	d374      	bcc.n	8000338 <__divsi3+0xf8>
 800024e:	0903      	lsrs	r3, r0, #4
 8000250:	428b      	cmp	r3, r1
 8000252:	d35f      	bcc.n	8000314 <__divsi3+0xd4>
 8000254:	0a03      	lsrs	r3, r0, #8
 8000256:	428b      	cmp	r3, r1
 8000258:	d344      	bcc.n	80002e4 <__divsi3+0xa4>
 800025a:	0b03      	lsrs	r3, r0, #12
 800025c:	428b      	cmp	r3, r1
 800025e:	d328      	bcc.n	80002b2 <__divsi3+0x72>
 8000260:	0c03      	lsrs	r3, r0, #16
 8000262:	428b      	cmp	r3, r1
 8000264:	d30d      	bcc.n	8000282 <__divsi3+0x42>
 8000266:	22ff      	movs	r2, #255	; 0xff
 8000268:	0209      	lsls	r1, r1, #8
 800026a:	ba12      	rev	r2, r2
 800026c:	0c03      	lsrs	r3, r0, #16
 800026e:	428b      	cmp	r3, r1
 8000270:	d302      	bcc.n	8000278 <__divsi3+0x38>
 8000272:	1212      	asrs	r2, r2, #8
 8000274:	0209      	lsls	r1, r1, #8
 8000276:	d065      	beq.n	8000344 <__divsi3+0x104>
 8000278:	0b03      	lsrs	r3, r0, #12
 800027a:	428b      	cmp	r3, r1
 800027c:	d319      	bcc.n	80002b2 <__divsi3+0x72>
 800027e:	e000      	b.n	8000282 <__divsi3+0x42>
 8000280:	0a09      	lsrs	r1, r1, #8
 8000282:	0bc3      	lsrs	r3, r0, #15
 8000284:	428b      	cmp	r3, r1
 8000286:	d301      	bcc.n	800028c <__divsi3+0x4c>
 8000288:	03cb      	lsls	r3, r1, #15
 800028a:	1ac0      	subs	r0, r0, r3
 800028c:	4152      	adcs	r2, r2
 800028e:	0b83      	lsrs	r3, r0, #14
 8000290:	428b      	cmp	r3, r1
 8000292:	d301      	bcc.n	8000298 <__divsi3+0x58>
 8000294:	038b      	lsls	r3, r1, #14
 8000296:	1ac0      	subs	r0, r0, r3
 8000298:	4152      	adcs	r2, r2
 800029a:	0b43      	lsrs	r3, r0, #13
 800029c:	428b      	cmp	r3, r1
 800029e:	d301      	bcc.n	80002a4 <__divsi3+0x64>
 80002a0:	034b      	lsls	r3, r1, #13
 80002a2:	1ac0      	subs	r0, r0, r3
 80002a4:	4152      	adcs	r2, r2
 80002a6:	0b03      	lsrs	r3, r0, #12
 80002a8:	428b      	cmp	r3, r1
 80002aa:	d301      	bcc.n	80002b0 <__divsi3+0x70>
 80002ac:	030b      	lsls	r3, r1, #12
 80002ae:	1ac0      	subs	r0, r0, r3
 80002b0:	4152      	adcs	r2, r2
 80002b2:	0ac3      	lsrs	r3, r0, #11
 80002b4:	428b      	cmp	r3, r1
 80002b6:	d301      	bcc.n	80002bc <__divsi3+0x7c>
 80002b8:	02cb      	lsls	r3, r1, #11
 80002ba:	1ac0      	subs	r0, r0, r3
 80002bc:	4152      	adcs	r2, r2
 80002be:	0a83      	lsrs	r3, r0, #10
 80002c0:	428b      	cmp	r3, r1
 80002c2:	d301      	bcc.n	80002c8 <__divsi3+0x88>
 80002c4:	028b      	lsls	r3, r1, #10
 80002c6:	1ac0      	subs	r0, r0, r3
 80002c8:	4152      	adcs	r2, r2
 80002ca:	0a43      	lsrs	r3, r0, #9
 80002cc:	428b      	cmp	r3, r1
 80002ce:	d301      	bcc.n	80002d4 <__divsi3+0x94>
 80002d0:	024b      	lsls	r3, r1, #9
 80002d2:	1ac0      	subs	r0, r0, r3
 80002d4:	4152      	adcs	r2, r2
 80002d6:	0a03      	lsrs	r3, r0, #8
 80002d8:	428b      	cmp	r3, r1
 80002da:	d301      	bcc.n	80002e0 <__divsi3+0xa0>
 80002dc:	020b      	lsls	r3, r1, #8
 80002de:	1ac0      	subs	r0, r0, r3
 80002e0:	4152      	adcs	r2, r2
 80002e2:	d2cd      	bcs.n	8000280 <__divsi3+0x40>
 80002e4:	09c3      	lsrs	r3, r0, #7
 80002e6:	428b      	cmp	r3, r1
 80002e8:	d301      	bcc.n	80002ee <__divsi3+0xae>
 80002ea:	01cb      	lsls	r3, r1, #7
 80002ec:	1ac0      	subs	r0, r0, r3
 80002ee:	4152      	adcs	r2, r2
 80002f0:	0983      	lsrs	r3, r0, #6
 80002f2:	428b      	cmp	r3, r1
 80002f4:	d301      	bcc.n	80002fa <__divsi3+0xba>
 80002f6:	018b      	lsls	r3, r1, #6
 80002f8:	1ac0      	subs	r0, r0, r3
 80002fa:	4152      	adcs	r2, r2
 80002fc:	0943      	lsrs	r3, r0, #5
 80002fe:	428b      	cmp	r3, r1
 8000300:	d301      	bcc.n	8000306 <__divsi3+0xc6>
 8000302:	014b      	lsls	r3, r1, #5
 8000304:	1ac0      	subs	r0, r0, r3
 8000306:	4152      	adcs	r2, r2
 8000308:	0903      	lsrs	r3, r0, #4
 800030a:	428b      	cmp	r3, r1
 800030c:	d301      	bcc.n	8000312 <__divsi3+0xd2>
 800030e:	010b      	lsls	r3, r1, #4
 8000310:	1ac0      	subs	r0, r0, r3
 8000312:	4152      	adcs	r2, r2
 8000314:	08c3      	lsrs	r3, r0, #3
 8000316:	428b      	cmp	r3, r1
 8000318:	d301      	bcc.n	800031e <__divsi3+0xde>
 800031a:	00cb      	lsls	r3, r1, #3
 800031c:	1ac0      	subs	r0, r0, r3
 800031e:	4152      	adcs	r2, r2
 8000320:	0883      	lsrs	r3, r0, #2
 8000322:	428b      	cmp	r3, r1
 8000324:	d301      	bcc.n	800032a <__divsi3+0xea>
 8000326:	008b      	lsls	r3, r1, #2
 8000328:	1ac0      	subs	r0, r0, r3
 800032a:	4152      	adcs	r2, r2
 800032c:	0843      	lsrs	r3, r0, #1
 800032e:	428b      	cmp	r3, r1
 8000330:	d301      	bcc.n	8000336 <__divsi3+0xf6>
 8000332:	004b      	lsls	r3, r1, #1
 8000334:	1ac0      	subs	r0, r0, r3
 8000336:	4152      	adcs	r2, r2
 8000338:	1a41      	subs	r1, r0, r1
 800033a:	d200      	bcs.n	800033e <__divsi3+0xfe>
 800033c:	4601      	mov	r1, r0
 800033e:	4152      	adcs	r2, r2
 8000340:	4610      	mov	r0, r2
 8000342:	4770      	bx	lr
 8000344:	e05d      	b.n	8000402 <__divsi3+0x1c2>
 8000346:	0fca      	lsrs	r2, r1, #31
 8000348:	d000      	beq.n	800034c <__divsi3+0x10c>
 800034a:	4249      	negs	r1, r1
 800034c:	1003      	asrs	r3, r0, #32
 800034e:	d300      	bcc.n	8000352 <__divsi3+0x112>
 8000350:	4240      	negs	r0, r0
 8000352:	4053      	eors	r3, r2
 8000354:	2200      	movs	r2, #0
 8000356:	469c      	mov	ip, r3
 8000358:	0903      	lsrs	r3, r0, #4
 800035a:	428b      	cmp	r3, r1
 800035c:	d32d      	bcc.n	80003ba <__divsi3+0x17a>
 800035e:	0a03      	lsrs	r3, r0, #8
 8000360:	428b      	cmp	r3, r1
 8000362:	d312      	bcc.n	800038a <__divsi3+0x14a>
 8000364:	22fc      	movs	r2, #252	; 0xfc
 8000366:	0189      	lsls	r1, r1, #6
 8000368:	ba12      	rev	r2, r2
 800036a:	0a03      	lsrs	r3, r0, #8
 800036c:	428b      	cmp	r3, r1
 800036e:	d30c      	bcc.n	800038a <__divsi3+0x14a>
 8000370:	0189      	lsls	r1, r1, #6
 8000372:	1192      	asrs	r2, r2, #6
 8000374:	428b      	cmp	r3, r1
 8000376:	d308      	bcc.n	800038a <__divsi3+0x14a>
 8000378:	0189      	lsls	r1, r1, #6
 800037a:	1192      	asrs	r2, r2, #6
 800037c:	428b      	cmp	r3, r1
 800037e:	d304      	bcc.n	800038a <__divsi3+0x14a>
 8000380:	0189      	lsls	r1, r1, #6
 8000382:	d03a      	beq.n	80003fa <__divsi3+0x1ba>
 8000384:	1192      	asrs	r2, r2, #6
 8000386:	e000      	b.n	800038a <__divsi3+0x14a>
 8000388:	0989      	lsrs	r1, r1, #6
 800038a:	09c3      	lsrs	r3, r0, #7
 800038c:	428b      	cmp	r3, r1
 800038e:	d301      	bcc.n	8000394 <__divsi3+0x154>
 8000390:	01cb      	lsls	r3, r1, #7
 8000392:	1ac0      	subs	r0, r0, r3
 8000394:	4152      	adcs	r2, r2
 8000396:	0983      	lsrs	r3, r0, #6
 8000398:	428b      	cmp	r3, r1
 800039a:	d301      	bcc.n	80003a0 <__divsi3+0x160>
 800039c:	018b      	lsls	r3, r1, #6
 800039e:	1ac0      	subs	r0, r0, r3
 80003a0:	4152      	adcs	r2, r2
 80003a2:	0943      	lsrs	r3, r0, #5
 80003a4:	428b      	cmp	r3, r1
 80003a6:	d301      	bcc.n	80003ac <__divsi3+0x16c>
 80003a8:	014b      	lsls	r3, r1, #5
 80003aa:	1ac0      	subs	r0, r0, r3
 80003ac:	4152      	adcs	r2, r2
 80003ae:	0903      	lsrs	r3, r0, #4
 80003b0:	428b      	cmp	r3, r1
 80003b2:	d301      	bcc.n	80003b8 <__divsi3+0x178>
 80003b4:	010b      	lsls	r3, r1, #4
 80003b6:	1ac0      	subs	r0, r0, r3
 80003b8:	4152      	adcs	r2, r2
 80003ba:	08c3      	lsrs	r3, r0, #3
 80003bc:	428b      	cmp	r3, r1
 80003be:	d301      	bcc.n	80003c4 <__divsi3+0x184>
 80003c0:	00cb      	lsls	r3, r1, #3
 80003c2:	1ac0      	subs	r0, r0, r3
 80003c4:	4152      	adcs	r2, r2
 80003c6:	0883      	lsrs	r3, r0, #2
 80003c8:	428b      	cmp	r3, r1
 80003ca:	d301      	bcc.n	80003d0 <__divsi3+0x190>
 80003cc:	008b      	lsls	r3, r1, #2
 80003ce:	1ac0      	subs	r0, r0, r3
 80003d0:	4152      	adcs	r2, r2
 80003d2:	d2d9      	bcs.n	8000388 <__divsi3+0x148>
 80003d4:	0843      	lsrs	r3, r0, #1
 80003d6:	428b      	cmp	r3, r1
 80003d8:	d301      	bcc.n	80003de <__divsi3+0x19e>
 80003da:	004b      	lsls	r3, r1, #1
 80003dc:	1ac0      	subs	r0, r0, r3
 80003de:	4152      	adcs	r2, r2
 80003e0:	1a41      	subs	r1, r0, r1
 80003e2:	d200      	bcs.n	80003e6 <__divsi3+0x1a6>
 80003e4:	4601      	mov	r1, r0
 80003e6:	4663      	mov	r3, ip
 80003e8:	4152      	adcs	r2, r2
 80003ea:	105b      	asrs	r3, r3, #1
 80003ec:	4610      	mov	r0, r2
 80003ee:	d301      	bcc.n	80003f4 <__divsi3+0x1b4>
 80003f0:	4240      	negs	r0, r0
 80003f2:	2b00      	cmp	r3, #0
 80003f4:	d500      	bpl.n	80003f8 <__divsi3+0x1b8>
 80003f6:	4249      	negs	r1, r1
 80003f8:	4770      	bx	lr
 80003fa:	4663      	mov	r3, ip
 80003fc:	105b      	asrs	r3, r3, #1
 80003fe:	d300      	bcc.n	8000402 <__divsi3+0x1c2>
 8000400:	4240      	negs	r0, r0
 8000402:	b501      	push	{r0, lr}
 8000404:	2000      	movs	r0, #0
 8000406:	f000 f805 	bl	8000414 <__aeabi_idiv0>
 800040a:	bd02      	pop	{r1, pc}

0800040c <__aeabi_idivmod>:
 800040c:	2900      	cmp	r1, #0
 800040e:	d0f8      	beq.n	8000402 <__divsi3+0x1c2>
 8000410:	e716      	b.n	8000240 <__divsi3>
 8000412:	4770      	bx	lr

08000414 <__aeabi_idiv0>:
 8000414:	4770      	bx	lr
 8000416:	46c0      	nop			; (mov r8, r8)

08000418 <__aeabi_uldivmod>:
 8000418:	2b00      	cmp	r3, #0
 800041a:	d111      	bne.n	8000440 <__aeabi_uldivmod+0x28>
 800041c:	2a00      	cmp	r2, #0
 800041e:	d10f      	bne.n	8000440 <__aeabi_uldivmod+0x28>
 8000420:	2900      	cmp	r1, #0
 8000422:	d100      	bne.n	8000426 <__aeabi_uldivmod+0xe>
 8000424:	2800      	cmp	r0, #0
 8000426:	d002      	beq.n	800042e <__aeabi_uldivmod+0x16>
 8000428:	2100      	movs	r1, #0
 800042a:	43c9      	mvns	r1, r1
 800042c:	1c08      	adds	r0, r1, #0
 800042e:	b407      	push	{r0, r1, r2}
 8000430:	4802      	ldr	r0, [pc, #8]	; (800043c <__aeabi_uldivmod+0x24>)
 8000432:	a102      	add	r1, pc, #8	; (adr r1, 800043c <__aeabi_uldivmod+0x24>)
 8000434:	1840      	adds	r0, r0, r1
 8000436:	9002      	str	r0, [sp, #8]
 8000438:	bd03      	pop	{r0, r1, pc}
 800043a:	46c0      	nop			; (mov r8, r8)
 800043c:	ffffffd9 	.word	0xffffffd9
 8000440:	b403      	push	{r0, r1}
 8000442:	4668      	mov	r0, sp
 8000444:	b501      	push	{r0, lr}
 8000446:	9802      	ldr	r0, [sp, #8]
 8000448:	f000 f82e 	bl	80004a8 <__udivmoddi4>
 800044c:	9b01      	ldr	r3, [sp, #4]
 800044e:	469e      	mov	lr, r3
 8000450:	b002      	add	sp, #8
 8000452:	bc0c      	pop	{r2, r3}
 8000454:	4770      	bx	lr
 8000456:	46c0      	nop			; (mov r8, r8)

08000458 <__aeabi_lmul>:
 8000458:	b5f0      	push	{r4, r5, r6, r7, lr}
 800045a:	0415      	lsls	r5, r2, #16
 800045c:	0c2d      	lsrs	r5, r5, #16
 800045e:	000f      	movs	r7, r1
 8000460:	0001      	movs	r1, r0
 8000462:	002e      	movs	r6, r5
 8000464:	46c6      	mov	lr, r8
 8000466:	4684      	mov	ip, r0
 8000468:	0400      	lsls	r0, r0, #16
 800046a:	0c14      	lsrs	r4, r2, #16
 800046c:	0c00      	lsrs	r0, r0, #16
 800046e:	0c09      	lsrs	r1, r1, #16
 8000470:	4346      	muls	r6, r0
 8000472:	434d      	muls	r5, r1
 8000474:	4360      	muls	r0, r4
 8000476:	4361      	muls	r1, r4
 8000478:	1940      	adds	r0, r0, r5
 800047a:	0c34      	lsrs	r4, r6, #16
 800047c:	1824      	adds	r4, r4, r0
 800047e:	b500      	push	{lr}
 8000480:	42a5      	cmp	r5, r4
 8000482:	d903      	bls.n	800048c <__aeabi_lmul+0x34>
 8000484:	2080      	movs	r0, #128	; 0x80
 8000486:	0240      	lsls	r0, r0, #9
 8000488:	4680      	mov	r8, r0
 800048a:	4441      	add	r1, r8
 800048c:	0c25      	lsrs	r5, r4, #16
 800048e:	186d      	adds	r5, r5, r1
 8000490:	4661      	mov	r1, ip
 8000492:	4359      	muls	r1, r3
 8000494:	437a      	muls	r2, r7
 8000496:	0430      	lsls	r0, r6, #16
 8000498:	1949      	adds	r1, r1, r5
 800049a:	0424      	lsls	r4, r4, #16
 800049c:	0c00      	lsrs	r0, r0, #16
 800049e:	1820      	adds	r0, r4, r0
 80004a0:	1889      	adds	r1, r1, r2
 80004a2:	bc80      	pop	{r7}
 80004a4:	46b8      	mov	r8, r7
 80004a6:	bdf0      	pop	{r4, r5, r6, r7, pc}

080004a8 <__udivmoddi4>:
 80004a8:	b5f0      	push	{r4, r5, r6, r7, lr}
 80004aa:	4657      	mov	r7, sl
 80004ac:	464e      	mov	r6, r9
 80004ae:	4645      	mov	r5, r8
 80004b0:	46de      	mov	lr, fp
 80004b2:	b5e0      	push	{r5, r6, r7, lr}
 80004b4:	0004      	movs	r4, r0
 80004b6:	000d      	movs	r5, r1
 80004b8:	4692      	mov	sl, r2
 80004ba:	4699      	mov	r9, r3
 80004bc:	b083      	sub	sp, #12
 80004be:	428b      	cmp	r3, r1
 80004c0:	d830      	bhi.n	8000524 <__udivmoddi4+0x7c>
 80004c2:	d02d      	beq.n	8000520 <__udivmoddi4+0x78>
 80004c4:	4649      	mov	r1, r9
 80004c6:	4650      	mov	r0, sl
 80004c8:	f000 f8ba 	bl	8000640 <__clzdi2>
 80004cc:	0029      	movs	r1, r5
 80004ce:	0006      	movs	r6, r0
 80004d0:	0020      	movs	r0, r4
 80004d2:	f000 f8b5 	bl	8000640 <__clzdi2>
 80004d6:	1a33      	subs	r3, r6, r0
 80004d8:	4698      	mov	r8, r3
 80004da:	3b20      	subs	r3, #32
 80004dc:	469b      	mov	fp, r3
 80004de:	d433      	bmi.n	8000548 <__udivmoddi4+0xa0>
 80004e0:	465a      	mov	r2, fp
 80004e2:	4653      	mov	r3, sl
 80004e4:	4093      	lsls	r3, r2
 80004e6:	4642      	mov	r2, r8
 80004e8:	001f      	movs	r7, r3
 80004ea:	4653      	mov	r3, sl
 80004ec:	4093      	lsls	r3, r2
 80004ee:	001e      	movs	r6, r3
 80004f0:	42af      	cmp	r7, r5
 80004f2:	d83a      	bhi.n	800056a <__udivmoddi4+0xc2>
 80004f4:	42af      	cmp	r7, r5
 80004f6:	d100      	bne.n	80004fa <__udivmoddi4+0x52>
 80004f8:	e078      	b.n	80005ec <__udivmoddi4+0x144>
 80004fa:	465b      	mov	r3, fp
 80004fc:	1ba4      	subs	r4, r4, r6
 80004fe:	41bd      	sbcs	r5, r7
 8000500:	2b00      	cmp	r3, #0
 8000502:	da00      	bge.n	8000506 <__udivmoddi4+0x5e>
 8000504:	e075      	b.n	80005f2 <__udivmoddi4+0x14a>
 8000506:	2200      	movs	r2, #0
 8000508:	2300      	movs	r3, #0
 800050a:	9200      	str	r2, [sp, #0]
 800050c:	9301      	str	r3, [sp, #4]
 800050e:	2301      	movs	r3, #1
 8000510:	465a      	mov	r2, fp
 8000512:	4093      	lsls	r3, r2
 8000514:	9301      	str	r3, [sp, #4]
 8000516:	2301      	movs	r3, #1
 8000518:	4642      	mov	r2, r8
 800051a:	4093      	lsls	r3, r2
 800051c:	9300      	str	r3, [sp, #0]
 800051e:	e028      	b.n	8000572 <__udivmoddi4+0xca>
 8000520:	4282      	cmp	r2, r0
 8000522:	d9cf      	bls.n	80004c4 <__udivmoddi4+0x1c>
 8000524:	2200      	movs	r2, #0
 8000526:	2300      	movs	r3, #0
 8000528:	9200      	str	r2, [sp, #0]
 800052a:	9301      	str	r3, [sp, #4]
 800052c:	9b0c      	ldr	r3, [sp, #48]	; 0x30
 800052e:	2b00      	cmp	r3, #0
 8000530:	d001      	beq.n	8000536 <__udivmoddi4+0x8e>
 8000532:	601c      	str	r4, [r3, #0]
 8000534:	605d      	str	r5, [r3, #4]
 8000536:	9800      	ldr	r0, [sp, #0]
 8000538:	9901      	ldr	r1, [sp, #4]
 800053a:	b003      	add	sp, #12
 800053c:	bcf0      	pop	{r4, r5, r6, r7}
 800053e:	46bb      	mov	fp, r7
 8000540:	46b2      	mov	sl, r6
 8000542:	46a9      	mov	r9, r5
 8000544:	46a0      	mov	r8, r4
 8000546:	bdf0      	pop	{r4, r5, r6, r7, pc}
 8000548:	4642      	mov	r2, r8
 800054a:	2320      	movs	r3, #32
 800054c:	1a9b      	subs	r3, r3, r2
 800054e:	4652      	mov	r2, sl
 8000550:	40da      	lsrs	r2, r3
 8000552:	4641      	mov	r1, r8
 8000554:	0013      	movs	r3, r2
 8000556:	464a      	mov	r2, r9
 8000558:	408a      	lsls	r2, r1
 800055a:	0017      	movs	r7, r2
 800055c:	4642      	mov	r2, r8
 800055e:	431f      	orrs	r7, r3
 8000560:	4653      	mov	r3, sl
 8000562:	4093      	lsls	r3, r2
 8000564:	001e      	movs	r6, r3
 8000566:	42af      	cmp	r7, r5
 8000568:	d9c4      	bls.n	80004f4 <__udivmoddi4+0x4c>
 800056a:	2200      	movs	r2, #0
 800056c:	2300      	movs	r3, #0
 800056e:	9200      	str	r2, [sp, #0]
 8000570:	9301      	str	r3, [sp, #4]
 8000572:	4643      	mov	r3, r8
 8000574:	2b00      	cmp	r3, #0
 8000576:	d0d9      	beq.n	800052c <__udivmoddi4+0x84>
 8000578:	07fb      	lsls	r3, r7, #31
 800057a:	0872      	lsrs	r2, r6, #1
 800057c:	431a      	orrs	r2, r3
 800057e:	4646      	mov	r6, r8
 8000580:	087b      	lsrs	r3, r7, #1
 8000582:	e00e      	b.n	80005a2 <__udivmoddi4+0xfa>
 8000584:	42ab      	cmp	r3, r5
 8000586:	d101      	bne.n	800058c <__udivmoddi4+0xe4>
 8000588:	42a2      	cmp	r2, r4
 800058a:	d80c      	bhi.n	80005a6 <__udivmoddi4+0xfe>
 800058c:	1aa4      	subs	r4, r4, r2
 800058e:	419d      	sbcs	r5, r3
 8000590:	2001      	movs	r0, #1
 8000592:	1924      	adds	r4, r4, r4
 8000594:	416d      	adcs	r5, r5
 8000596:	2100      	movs	r1, #0
 8000598:	3e01      	subs	r6, #1
 800059a:	1824      	adds	r4, r4, r0
 800059c:	414d      	adcs	r5, r1
 800059e:	2e00      	cmp	r6, #0
 80005a0:	d006      	beq.n	80005b0 <__udivmoddi4+0x108>
 80005a2:	42ab      	cmp	r3, r5
 80005a4:	d9ee      	bls.n	8000584 <__udivmoddi4+0xdc>
 80005a6:	3e01      	subs	r6, #1
 80005a8:	1924      	adds	r4, r4, r4
 80005aa:	416d      	adcs	r5, r5
 80005ac:	2e00      	cmp	r6, #0
 80005ae:	d1f8      	bne.n	80005a2 <__udivmoddi4+0xfa>
 80005b0:	9800      	ldr	r0, [sp, #0]
 80005b2:	9901      	ldr	r1, [sp, #4]
 80005b4:	465b      	mov	r3, fp
 80005b6:	1900      	adds	r0, r0, r4
 80005b8:	4169      	adcs	r1, r5
 80005ba:	2b00      	cmp	r3, #0
 80005bc:	db24      	blt.n	8000608 <__udivmoddi4+0x160>
 80005be:	002b      	movs	r3, r5
 80005c0:	465a      	mov	r2, fp
 80005c2:	4644      	mov	r4, r8
 80005c4:	40d3      	lsrs	r3, r2
 80005c6:	002a      	movs	r2, r5
 80005c8:	40e2      	lsrs	r2, r4
 80005ca:	001c      	movs	r4, r3
 80005cc:	465b      	mov	r3, fp
 80005ce:	0015      	movs	r5, r2
 80005d0:	2b00      	cmp	r3, #0
 80005d2:	db2a      	blt.n	800062a <__udivmoddi4+0x182>
 80005d4:	0026      	movs	r6, r4
 80005d6:	409e      	lsls	r6, r3
 80005d8:	0033      	movs	r3, r6
 80005da:	0026      	movs	r6, r4
 80005dc:	4647      	mov	r7, r8
 80005de:	40be      	lsls	r6, r7
 80005e0:	0032      	movs	r2, r6
 80005e2:	1a80      	subs	r0, r0, r2
 80005e4:	4199      	sbcs	r1, r3
 80005e6:	9000      	str	r0, [sp, #0]
 80005e8:	9101      	str	r1, [sp, #4]
 80005ea:	e79f      	b.n	800052c <__udivmoddi4+0x84>
 80005ec:	42a3      	cmp	r3, r4
 80005ee:	d8bc      	bhi.n	800056a <__udivmoddi4+0xc2>
 80005f0:	e783      	b.n	80004fa <__udivmoddi4+0x52>
 80005f2:	4642      	mov	r2, r8
 80005f4:	2320      	movs	r3, #32
 80005f6:	2100      	movs	r1, #0
 80005f8:	1a9b      	subs	r3, r3, r2
 80005fa:	2200      	movs	r2, #0
 80005fc:	9100      	str	r1, [sp, #0]
 80005fe:	9201      	str	r2, [sp, #4]
 8000600:	2201      	movs	r2, #1
 8000602:	40da      	lsrs	r2, r3
 8000604:	9201      	str	r2, [sp, #4]
 8000606:	e786      	b.n	8000516 <__udivmoddi4+0x6e>
 8000608:	4642      	mov	r2, r8
 800060a:	2320      	movs	r3, #32
 800060c:	1a9b      	subs	r3, r3, r2
 800060e:	002a      	movs	r2, r5
 8000610:	4646      	mov	r6, r8
 8000612:	409a      	lsls	r2, r3
 8000614:	0023      	movs	r3, r4
 8000616:	40f3      	lsrs	r3, r6
 8000618:	4644      	mov	r4, r8
 800061a:	4313      	orrs	r3, r2
 800061c:	002a      	movs	r2, r5
 800061e:	40e2      	lsrs	r2, r4
 8000620:	001c      	movs	r4, r3
 8000622:	465b      	mov	r3, fp
 8000624:	0015      	movs	r5, r2
 8000626:	2b00      	cmp	r3, #0
 8000628:	dad4      	bge.n	80005d4 <__udivmoddi4+0x12c>
 800062a:	4642      	mov	r2, r8
 800062c:	002f      	movs	r7, r5
 800062e:	2320      	movs	r3, #32
 8000630:	0026      	movs	r6, r4
 8000632:	4097      	lsls	r7, r2
 8000634:	1a9b      	subs	r3, r3, r2
 8000636:	40de      	lsrs	r6, r3
 8000638:	003b      	movs	r3, r7
 800063a:	4333      	orrs	r3, r6
 800063c:	e7cd      	b.n	80005da <__udivmoddi4+0x132>
 800063e:	46c0      	nop			; (mov r8, r8)

08000640 <__clzdi2>:
 8000640:	b510      	push	{r4, lr}
 8000642:	2900      	cmp	r1, #0
 8000644:	d103      	bne.n	800064e <__clzdi2+0xe>
 8000646:	f000 f807 	bl	8000658 <__clzsi2>
 800064a:	3020      	adds	r0, #32
 800064c:	e002      	b.n	8000654 <__clzdi2+0x14>
 800064e:	1c08      	adds	r0, r1, #0
 8000650:	f000 f802 	bl	8000658 <__clzsi2>
 8000654:	bd10      	pop	{r4, pc}
 8000656:	46c0      	nop			; (mov r8, r8)

08000658 <__clzsi2>:
 8000658:	211c      	movs	r1, #28
 800065a:	2301      	movs	r3, #1
 800065c:	041b      	lsls	r3, r3, #16
 800065e:	4298      	cmp	r0, r3
 8000660:	d301      	bcc.n	8000666 <__clzsi2+0xe>
 8000662:	0c00      	lsrs	r0, r0, #16
 8000664:	3910      	subs	r1, #16
 8000666:	0a1b      	lsrs	r3, r3, #8
 8000668:	4298      	cmp	r0, r3
 800066a:	d301      	bcc.n	8000670 <__clzsi2+0x18>
 800066c:	0a00      	lsrs	r0, r0, #8
 800066e:	3908      	subs	r1, #8
 8000670:	091b      	lsrs	r3, r3, #4
 8000672:	4298      	cmp	r0, r3
 8000674:	d301      	bcc.n	800067a <__clzsi2+0x22>
 8000676:	0900      	lsrs	r0, r0, #4
 8000678:	3904      	subs	r1, #4
 800067a:	a202      	add	r2, pc, #8	; (adr r2, 8000684 <__clzsi2+0x2c>)
 800067c:	5c10      	ldrb	r0, [r2, r0]
 800067e:	1840      	adds	r0, r0, r1
 8000680:	4770      	bx	lr
 8000682:	46c0      	nop			; (mov r8, r8)
 8000684:	02020304 	.word	0x02020304
 8000688:	01010101 	.word	0x01010101
	...

08000694 <LL_DMA_EnableChannel>:
  *         @arg @ref LL_DMA_CHANNEL_6
  *         @arg @ref LL_DMA_CHANNEL_7
  * @retval None
  */
__STATIC_INLINE void LL_DMA_EnableChannel(DMA_TypeDef *DMAx, uint32_t Channel)
{
 8000694:	b580      	push	{r7, lr}
 8000696:	b082      	sub	sp, #8
 8000698:	af00      	add	r7, sp, #0
 800069a:	6078      	str	r0, [r7, #4]
 800069c:	6039      	str	r1, [r7, #0]
  SET_BIT(((DMA_Channel_TypeDef *)((uint32_t)((uint32_t)DMAx + CHANNEL_OFFSET_TAB[Channel - 1U])))->CCR, DMA_CCR_EN);
 800069e:	683b      	ldr	r3, [r7, #0]
 80006a0:	3b01      	subs	r3, #1
 80006a2:	4a0a      	ldr	r2, [pc, #40]	; (80006cc <LL_DMA_EnableChannel+0x38>)
 80006a4:	5cd3      	ldrb	r3, [r2, r3]
 80006a6:	001a      	movs	r2, r3
 80006a8:	687b      	ldr	r3, [r7, #4]
 80006aa:	18d3      	adds	r3, r2, r3
 80006ac:	681a      	ldr	r2, [r3, #0]
 80006ae:	683b      	ldr	r3, [r7, #0]
 80006b0:	3b01      	subs	r3, #1
 80006b2:	4906      	ldr	r1, [pc, #24]	; (80006cc <LL_DMA_EnableChannel+0x38>)
 80006b4:	5ccb      	ldrb	r3, [r1, r3]
 80006b6:	0019      	movs	r1, r3
 80006b8:	687b      	ldr	r3, [r7, #4]
 80006ba:	18cb      	adds	r3, r1, r3
 80006bc:	2101      	movs	r1, #1
 80006be:	430a      	orrs	r2, r1
 80006c0:	601a      	str	r2, [r3, #0]
}
 80006c2:	46c0      	nop			; (mov r8, r8)
 80006c4:	46bd      	mov	sp, r7
 80006c6:	b002      	add	sp, #8
 80006c8:	bd80      	pop	{r7, pc}
 80006ca:	46c0      	nop			; (mov r8, r8)
 80006cc:	08006fa4 	.word	0x08006fa4

080006d0 <LL_DMA_DisableChannel>:
  *         @arg @ref LL_DMA_CHANNEL_6
  *         @arg @ref LL_DMA_CHANNEL_7
  * @retval None
  */
__STATIC_INLINE void LL_DMA_DisableChannel(DMA_TypeDef *DMAx, uint32_t Channel)
{
 80006d0:	b580      	push	{r7, lr}
 80006d2:	b082      	sub	sp, #8
 80006d4:	af00      	add	r7, sp, #0
 80006d6:	6078      	str	r0, [r7, #4]
 80006d8:	6039      	str	r1, [r7, #0]
  CLEAR_BIT(((DMA_Channel_TypeDef *)((uint32_t)((uint32_t)DMAx + CHANNEL_OFFSET_TAB[Channel - 1U])))->CCR, DMA_CCR_EN);
 80006da:	683b      	ldr	r3, [r7, #0]
 80006dc:	3b01      	subs	r3, #1
 80006de:	4a0a      	ldr	r2, [pc, #40]	; (8000708 <LL_DMA_DisableChannel+0x38>)
 80006e0:	5cd3      	ldrb	r3, [r2, r3]
 80006e2:	001a      	movs	r2, r3
 80006e4:	687b      	ldr	r3, [r7, #4]
 80006e6:	18d3      	adds	r3, r2, r3
 80006e8:	681a      	ldr	r2, [r3, #0]
 80006ea:	683b      	ldr	r3, [r7, #0]
 80006ec:	3b01      	subs	r3, #1
 80006ee:	4906      	ldr	r1, [pc, #24]	; (8000708 <LL_DMA_DisableChannel+0x38>)
 80006f0:	5ccb      	ldrb	r3, [r1, r3]
 80006f2:	0019      	movs	r1, r3
 80006f4:	687b      	ldr	r3, [r7, #4]
 80006f6:	18cb      	adds	r3, r1, r3
 80006f8:	2101      	movs	r1, #1
 80006fa:	438a      	bics	r2, r1
 80006fc:	601a      	str	r2, [r3, #0]
}
 80006fe:	46c0      	nop			; (mov r8, r8)
 8000700:	46bd      	mov	sp, r7
 8000702:	b002      	add	sp, #8
 8000704:	bd80      	pop	{r7, pc}
 8000706:	46c0      	nop			; (mov r8, r8)
 8000708:	08006fa4 	.word	0x08006fa4

0800070c <LL_DMA_GetDataTransferDirection>:
  *         @arg @ref LL_DMA_DIRECTION_PERIPH_TO_MEMORY
  *         @arg @ref LL_DMA_DIRECTION_MEMORY_TO_PERIPH
  *         @arg @ref LL_DMA_DIRECTION_MEMORY_TO_MEMORY
  */
__STATIC_INLINE uint32_t LL_DMA_GetDataTransferDirection(DMA_TypeDef *DMAx, uint32_t Channel)
{
 800070c:	b580      	push	{r7, lr}
 800070e:	b082      	sub	sp, #8
 8000710:	af00      	add	r7, sp, #0
 8000712:	6078      	str	r0, [r7, #4]
 8000714:	6039      	str	r1, [r7, #0]
  return (READ_BIT(((DMA_Channel_TypeDef *)((uint32_t)((uint32_t)DMAx + CHANNEL_OFFSET_TAB[Channel - 1U])))->CCR,
 8000716:	683b      	ldr	r3, [r7, #0]
 8000718:	3b01      	subs	r3, #1
 800071a:	4a06      	ldr	r2, [pc, #24]	; (8000734 <LL_DMA_GetDataTransferDirection+0x28>)
 800071c:	5cd3      	ldrb	r3, [r2, r3]
 800071e:	001a      	movs	r2, r3
 8000720:	687b      	ldr	r3, [r7, #4]
 8000722:	18d3      	adds	r3, r2, r3
 8000724:	681b      	ldr	r3, [r3, #0]
 8000726:	4a04      	ldr	r2, [pc, #16]	; (8000738 <LL_DMA_GetDataTransferDirection+0x2c>)
 8000728:	4013      	ands	r3, r2
                   DMA_CCR_DIR | DMA_CCR_MEM2MEM));
}
 800072a:	0018      	movs	r0, r3
 800072c:	46bd      	mov	sp, r7
 800072e:	b002      	add	sp, #8
 8000730:	bd80      	pop	{r7, pc}
 8000732:	46c0      	nop			; (mov r8, r8)
 8000734:	08006fa4 	.word	0x08006fa4
 8000738:	00004010 	.word	0x00004010

0800073c <LL_DMA_SetDataLength>:
  *         @arg @ref LL_DMA_CHANNEL_7
  * @param  NbData Between Min_Data = 0 and Max_Data = 0x0000FFFF
  * @retval None
  */
__STATIC_INLINE void LL_DMA_SetDataLength(DMA_TypeDef *DMAx, uint32_t Channel, uint32_t NbData)
{
 800073c:	b580      	push	{r7, lr}
 800073e:	b084      	sub	sp, #16
 8000740:	af00      	add	r7, sp, #0
 8000742:	60f8      	str	r0, [r7, #12]
 8000744:	60b9      	str	r1, [r7, #8]
 8000746:	607a      	str	r2, [r7, #4]
  MODIFY_REG(((DMA_Channel_TypeDef *)((uint32_t)((uint32_t)DMAx + CHANNEL_OFFSET_TAB[Channel - 1U])))->CNDTR,
 8000748:	68bb      	ldr	r3, [r7, #8]
 800074a:	3b01      	subs	r3, #1
 800074c:	4a0a      	ldr	r2, [pc, #40]	; (8000778 <LL_DMA_SetDataLength+0x3c>)
 800074e:	5cd3      	ldrb	r3, [r2, r3]
 8000750:	001a      	movs	r2, r3
 8000752:	68fb      	ldr	r3, [r7, #12]
 8000754:	18d3      	adds	r3, r2, r3
 8000756:	685b      	ldr	r3, [r3, #4]
 8000758:	0c1b      	lsrs	r3, r3, #16
 800075a:	0419      	lsls	r1, r3, #16
 800075c:	68bb      	ldr	r3, [r7, #8]
 800075e:	3b01      	subs	r3, #1
 8000760:	4a05      	ldr	r2, [pc, #20]	; (8000778 <LL_DMA_SetDataLength+0x3c>)
 8000762:	5cd3      	ldrb	r3, [r2, r3]
 8000764:	001a      	movs	r2, r3
 8000766:	68fb      	ldr	r3, [r7, #12]
 8000768:	18d3      	adds	r3, r2, r3
 800076a:	687a      	ldr	r2, [r7, #4]
 800076c:	430a      	orrs	r2, r1
 800076e:	605a      	str	r2, [r3, #4]
             DMA_CNDTR_NDT, NbData);
}
 8000770:	46c0      	nop			; (mov r8, r8)
 8000772:	46bd      	mov	sp, r7
 8000774:	b004      	add	sp, #16
 8000776:	bd80      	pop	{r7, pc}
 8000778:	08006fa4 	.word	0x08006fa4

0800077c <LL_DMA_ConfigAddresses>:
  *         @arg @ref LL_DMA_DIRECTION_MEMORY_TO_MEMORY
  * @retval None
  */
__STATIC_INLINE void LL_DMA_ConfigAddresses(DMA_TypeDef *DMAx, uint32_t Channel, uint32_t SrcAddress,
                                            uint32_t DstAddress, uint32_t Direction)
{
 800077c:	b580      	push	{r7, lr}
 800077e:	b084      	sub	sp, #16
 8000780:	af00      	add	r7, sp, #0
 8000782:	60f8      	str	r0, [r7, #12]
 8000784:	60b9      	str	r1, [r7, #8]
 8000786:	607a      	str	r2, [r7, #4]
 8000788:	603b      	str	r3, [r7, #0]
  /* Direction Memory to Periph */
  if (Direction == LL_DMA_DIRECTION_MEMORY_TO_PERIPH)
 800078a:	69bb      	ldr	r3, [r7, #24]
 800078c:	2b10      	cmp	r3, #16
 800078e:	d112      	bne.n	80007b6 <LL_DMA_ConfigAddresses+0x3a>
  {
    WRITE_REG(((DMA_Channel_TypeDef *)((uint32_t)((uint32_t)DMAx + CHANNEL_OFFSET_TAB[Channel - 1U])))->CMAR, SrcAddress);
 8000790:	68bb      	ldr	r3, [r7, #8]
 8000792:	3b01      	subs	r3, #1
 8000794:	4a13      	ldr	r2, [pc, #76]	; (80007e4 <LL_DMA_ConfigAddresses+0x68>)
 8000796:	5cd3      	ldrb	r3, [r2, r3]
 8000798:	001a      	movs	r2, r3
 800079a:	68fb      	ldr	r3, [r7, #12]
 800079c:	18d3      	adds	r3, r2, r3
 800079e:	687a      	ldr	r2, [r7, #4]
 80007a0:	60da      	str	r2, [r3, #12]
    WRITE_REG(((DMA_Channel_TypeDef *)((uint32_t)((uint32_t)DMAx + CHANNEL_OFFSET_TAB[Channel - 1U])))->CPAR, DstAddress);
 80007a2:	68bb      	ldr	r3, [r7, #8]
 80007a4:	3b01      	subs	r3, #1
 80007a6:	4a0f      	ldr	r2, [pc, #60]	; (80007e4 <LL_DMA_ConfigAddresses+0x68>)
 80007a8:	5cd3      	ldrb	r3, [r2, r3]
 80007aa:	001a      	movs	r2, r3
 80007ac:	68fb      	ldr	r3, [r7, #12]
 80007ae:	18d3      	adds	r3, r2, r3
 80007b0:	683a      	ldr	r2, [r7, #0]
 80007b2:	609a      	str	r2, [r3, #8]
  else
  {
    WRITE_REG(((DMA_Channel_TypeDef *)((uint32_t)((uint32_t)DMAx + CHANNEL_OFFSET_TAB[Channel - 1U])))->CPAR, SrcAddress);
    WRITE_REG(((DMA_Channel_TypeDef *)((uint32_t)((uint32_t)DMAx + CHANNEL_OFFSET_TAB[Channel - 1U])))->CMAR, DstAddress);
  }
}
 80007b4:	e011      	b.n	80007da <LL_DMA_ConfigAddresses+0x5e>
    WRITE_REG(((DMA_Channel_TypeDef *)((uint32_t)((uint32_t)DMAx + CHANNEL_OFFSET_TAB[Channel - 1U])))->CPAR, SrcAddress);
 80007b6:	68bb      	ldr	r3, [r7, #8]
 80007b8:	3b01      	subs	r3, #1
 80007ba:	4a0a      	ldr	r2, [pc, #40]	; (80007e4 <LL_DMA_ConfigAddresses+0x68>)
 80007bc:	5cd3      	ldrb	r3, [r2, r3]
 80007be:	001a      	movs	r2, r3
 80007c0:	68fb      	ldr	r3, [r7, #12]
 80007c2:	18d3      	adds	r3, r2, r3
 80007c4:	687a      	ldr	r2, [r7, #4]
 80007c6:	609a      	str	r2, [r3, #8]
    WRITE_REG(((DMA_Channel_TypeDef *)((uint32_t)((uint32_t)DMAx + CHANNEL_OFFSET_TAB[Channel - 1U])))->CMAR, DstAddress);
 80007c8:	68bb      	ldr	r3, [r7, #8]
 80007ca:	3b01      	subs	r3, #1
 80007cc:	4a05      	ldr	r2, [pc, #20]	; (80007e4 <LL_DMA_ConfigAddresses+0x68>)
 80007ce:	5cd3      	ldrb	r3, [r2, r3]
 80007d0:	001a      	movs	r2, r3
 80007d2:	68fb      	ldr	r3, [r7, #12]
 80007d4:	18d3      	adds	r3, r2, r3
 80007d6:	683a      	ldr	r2, [r7, #0]
 80007d8:	60da      	str	r2, [r3, #12]
}
 80007da:	46c0      	nop			; (mov r8, r8)
 80007dc:	46bd      	mov	sp, r7
 80007de:	b004      	add	sp, #16
 80007e0:	bd80      	pop	{r7, pc}
 80007e2:	46c0      	nop			; (mov r8, r8)
 80007e4:	08006fa4 	.word	0x08006fa4

080007e8 <LL_DMA_ClearFlag_TC2>:
  * @rmtoll IFCR         CTCIF2        LL_DMA_ClearFlag_TC2
  * @param  DMAx DMAx Instance
  * @retval None
  */
__STATIC_INLINE void LL_DMA_ClearFlag_TC2(DMA_TypeDef *DMAx)
{
 80007e8:	b580      	push	{r7, lr}
 80007ea:	b082      	sub	sp, #8
 80007ec:	af00      	add	r7, sp, #0
 80007ee:	6078      	str	r0, [r7, #4]
  WRITE_REG(DMAx->IFCR, DMA_IFCR_CTCIF2);
 80007f0:	687b      	ldr	r3, [r7, #4]
 80007f2:	2220      	movs	r2, #32
 80007f4:	605a      	str	r2, [r3, #4]
}
 80007f6:	46c0      	nop			; (mov r8, r8)
 80007f8:	46bd      	mov	sp, r7
 80007fa:	b002      	add	sp, #8
 80007fc:	bd80      	pop	{r7, pc}

080007fe <LL_DMA_ClearFlag_TC3>:
  * @rmtoll IFCR         CTCIF3        LL_DMA_ClearFlag_TC3
  * @param  DMAx DMAx Instance
  * @retval None
  */
__STATIC_INLINE void LL_DMA_ClearFlag_TC3(DMA_TypeDef *DMAx)
{
 80007fe:	b580      	push	{r7, lr}
 8000800:	b082      	sub	sp, #8
 8000802:	af00      	add	r7, sp, #0
 8000804:	6078      	str	r0, [r7, #4]
  WRITE_REG(DMAx->IFCR, DMA_IFCR_CTCIF3);
 8000806:	687b      	ldr	r3, [r7, #4]
 8000808:	2280      	movs	r2, #128	; 0x80
 800080a:	0092      	lsls	r2, r2, #2
 800080c:	605a      	str	r2, [r3, #4]
}
 800080e:	46c0      	nop			; (mov r8, r8)
 8000810:	46bd      	mov	sp, r7
 8000812:	b002      	add	sp, #8
 8000814:	bd80      	pop	{r7, pc}

08000816 <LL_DMA_ClearFlag_TE2>:
  * @rmtoll IFCR         CTEIF2        LL_DMA_ClearFlag_TE2
  * @param  DMAx DMAx Instance
  * @retval None
  */
__STATIC_INLINE void LL_DMA_ClearFlag_TE2(DMA_TypeDef *DMAx)
{
 8000816:	b580      	push	{r7, lr}
 8000818:	b082      	sub	sp, #8
 800081a:	af00      	add	r7, sp, #0
 800081c:	6078      	str	r0, [r7, #4]
  WRITE_REG(DMAx->IFCR, DMA_IFCR_CTEIF2);
 800081e:	687b      	ldr	r3, [r7, #4]
 8000820:	2280      	movs	r2, #128	; 0x80
 8000822:	605a      	str	r2, [r3, #4]
}
 8000824:	46c0      	nop			; (mov r8, r8)
 8000826:	46bd      	mov	sp, r7
 8000828:	b002      	add	sp, #8
 800082a:	bd80      	pop	{r7, pc}

0800082c <LL_DMA_ClearFlag_TE3>:
  * @rmtoll IFCR         CTEIF3        LL_DMA_ClearFlag_TE3
  * @param  DMAx DMAx Instance
  * @retval None
  */
__STATIC_INLINE void LL_DMA_ClearFlag_TE3(DMA_TypeDef *DMAx)
{
 800082c:	b580      	push	{r7, lr}
 800082e:	b082      	sub	sp, #8
 8000830:	af00      	add	r7, sp, #0
 8000832:	6078      	str	r0, [r7, #4]
  WRITE_REG(DMAx->IFCR, DMA_IFCR_CTEIF3);
 8000834:	687b      	ldr	r3, [r7, #4]
 8000836:	2280      	movs	r2, #128	; 0x80
 8000838:	0112      	lsls	r2, r2, #4
 800083a:	605a      	str	r2, [r3, #4]
}
 800083c:	46c0      	nop			; (mov r8, r8)
 800083e:	46bd      	mov	sp, r7
 8000840:	b002      	add	sp, #8
 8000842:	bd80      	pop	{r7, pc}

08000844 <LL_DMA_EnableIT_TC>:
  *         @arg @ref LL_DMA_CHANNEL_6
  *         @arg @ref LL_DMA_CHANNEL_7
  * @retval None
  */
__STATIC_INLINE void LL_DMA_EnableIT_TC(DMA_TypeDef *DMAx, uint32_t Channel)
{
 8000844:	b580      	push	{r7, lr}
 8000846:	b082      	sub	sp, #8
 8000848:	af00      	add	r7, sp, #0
 800084a:	6078      	str	r0, [r7, #4]
 800084c:	6039      	str	r1, [r7, #0]
  SET_BIT(((DMA_Channel_TypeDef *)((uint32_t)((uint32_t)DMAx + CHANNEL_OFFSET_TAB[Channel - 1U])))->CCR, DMA_CCR_TCIE);
 800084e:	683b      	ldr	r3, [r7, #0]
 8000850:	3b01      	subs	r3, #1
 8000852:	4a0a      	ldr	r2, [pc, #40]	; (800087c <LL_DMA_EnableIT_TC+0x38>)
 8000854:	5cd3      	ldrb	r3, [r2, r3]
 8000856:	001a      	movs	r2, r3
 8000858:	687b      	ldr	r3, [r7, #4]
 800085a:	18d3      	adds	r3, r2, r3
 800085c:	681a      	ldr	r2, [r3, #0]
 800085e:	683b      	ldr	r3, [r7, #0]
 8000860:	3b01      	subs	r3, #1
 8000862:	4906      	ldr	r1, [pc, #24]	; (800087c <LL_DMA_EnableIT_TC+0x38>)
 8000864:	5ccb      	ldrb	r3, [r1, r3]
 8000866:	0019      	movs	r1, r3
 8000868:	687b      	ldr	r3, [r7, #4]
 800086a:	18cb      	adds	r3, r1, r3
 800086c:	2102      	movs	r1, #2
 800086e:	430a      	orrs	r2, r1
 8000870:	601a      	str	r2, [r3, #0]
}
 8000872:	46c0      	nop			; (mov r8, r8)
 8000874:	46bd      	mov	sp, r7
 8000876:	b002      	add	sp, #8
 8000878:	bd80      	pop	{r7, pc}
 800087a:	46c0      	nop			; (mov r8, r8)
 800087c:	08006fa4 	.word	0x08006fa4

08000880 <LL_DMA_EnableIT_TE>:
  *         @arg @ref LL_DMA_CHANNEL_6
  *         @arg @ref LL_DMA_CHANNEL_7
  * @retval None
  */
__STATIC_INLINE void LL_DMA_EnableIT_TE(DMA_TypeDef *DMAx, uint32_t Channel)
{
 8000880:	b580      	push	{r7, lr}
 8000882:	b082      	sub	sp, #8
 8000884:	af00      	add	r7, sp, #0
 8000886:	6078      	str	r0, [r7, #4]
 8000888:	6039      	str	r1, [r7, #0]
  SET_BIT(((DMA_Channel_TypeDef *)((uint32_t)((uint32_t)DMAx + CHANNEL_OFFSET_TAB[Channel - 1U])))->CCR, DMA_CCR_TEIE);
 800088a:	683b      	ldr	r3, [r7, #0]
 800088c:	3b01      	subs	r3, #1
 800088e:	4a0a      	ldr	r2, [pc, #40]	; (80008b8 <LL_DMA_EnableIT_TE+0x38>)
 8000890:	5cd3      	ldrb	r3, [r2, r3]
 8000892:	001a      	movs	r2, r3
 8000894:	687b      	ldr	r3, [r7, #4]
 8000896:	18d3      	adds	r3, r2, r3
 8000898:	681a      	ldr	r2, [r3, #0]
 800089a:	683b      	ldr	r3, [r7, #0]
 800089c:	3b01      	subs	r3, #1
 800089e:	4906      	ldr	r1, [pc, #24]	; (80008b8 <LL_DMA_EnableIT_TE+0x38>)
 80008a0:	5ccb      	ldrb	r3, [r1, r3]
 80008a2:	0019      	movs	r1, r3
 80008a4:	687b      	ldr	r3, [r7, #4]
 80008a6:	18cb      	adds	r3, r1, r3
 80008a8:	2108      	movs	r1, #8
 80008aa:	430a      	orrs	r2, r1
 80008ac:	601a      	str	r2, [r3, #0]
}
 80008ae:	46c0      	nop			; (mov r8, r8)
 80008b0:	46bd      	mov	sp, r7
 80008b2:	b002      	add	sp, #8
 80008b4:	bd80      	pop	{r7, pc}
 80008b6:	46c0      	nop			; (mov r8, r8)
 80008b8:	08006fa4 	.word	0x08006fa4

080008bc <LL_SPI_Enable>:
  * @rmtoll CR1          SPE           LL_SPI_Enable
  * @param  SPIx SPI Instance
  * @retval None
  */
__STATIC_INLINE void LL_SPI_Enable(SPI_TypeDef *SPIx)
{
 80008bc:	b580      	push	{r7, lr}
 80008be:	b082      	sub	sp, #8
 80008c0:	af00      	add	r7, sp, #0
 80008c2:	6078      	str	r0, [r7, #4]
  SET_BIT(SPIx->CR1, SPI_CR1_SPE);
 80008c4:	687b      	ldr	r3, [r7, #4]
 80008c6:	681b      	ldr	r3, [r3, #0]
 80008c8:	2240      	movs	r2, #64	; 0x40
 80008ca:	431a      	orrs	r2, r3
 80008cc:	687b      	ldr	r3, [r7, #4]
 80008ce:	601a      	str	r2, [r3, #0]
}
 80008d0:	46c0      	nop			; (mov r8, r8)
 80008d2:	46bd      	mov	sp, r7
 80008d4:	b002      	add	sp, #8
 80008d6:	bd80      	pop	{r7, pc}

080008d8 <LL_SPI_EnableDMAReq_RX>:
  * @rmtoll CR2          RXDMAEN       LL_SPI_EnableDMAReq_RX
  * @param  SPIx SPI Instance
  * @retval None
  */
__STATIC_INLINE void LL_SPI_EnableDMAReq_RX(SPI_TypeDef *SPIx)
{
 80008d8:	b580      	push	{r7, lr}
 80008da:	b082      	sub	sp, #8
 80008dc:	af00      	add	r7, sp, #0
 80008de:	6078      	str	r0, [r7, #4]
  SET_BIT(SPIx->CR2, SPI_CR2_RXDMAEN);
 80008e0:	687b      	ldr	r3, [r7, #4]
 80008e2:	685b      	ldr	r3, [r3, #4]
 80008e4:	2201      	movs	r2, #1
 80008e6:	431a      	orrs	r2, r3
 80008e8:	687b      	ldr	r3, [r7, #4]
 80008ea:	605a      	str	r2, [r3, #4]
}
 80008ec:	46c0      	nop			; (mov r8, r8)
 80008ee:	46bd      	mov	sp, r7
 80008f0:	b002      	add	sp, #8
 80008f2:	bd80      	pop	{r7, pc}

080008f4 <LL_SPI_EnableDMAReq_TX>:
  * @rmtoll CR2          TXDMAEN       LL_SPI_EnableDMAReq_TX
  * @param  SPIx SPI Instance
  * @retval None
  */
__STATIC_INLINE void LL_SPI_EnableDMAReq_TX(SPI_TypeDef *SPIx)
{
 80008f4:	b580      	push	{r7, lr}
 80008f6:	b082      	sub	sp, #8
 80008f8:	af00      	add	r7, sp, #0
 80008fa:	6078      	str	r0, [r7, #4]
  SET_BIT(SPIx->CR2, SPI_CR2_TXDMAEN);
 80008fc:	687b      	ldr	r3, [r7, #4]
 80008fe:	685b      	ldr	r3, [r3, #4]
 8000900:	2202      	movs	r2, #2
 8000902:	431a      	orrs	r2, r3
 8000904:	687b      	ldr	r3, [r7, #4]
 8000906:	605a      	str	r2, [r3, #4]
}
 8000908:	46c0      	nop			; (mov r8, r8)
 800090a:	46bd      	mov	sp, r7
 800090c:	b002      	add	sp, #8
 800090e:	bd80      	pop	{r7, pc}

08000910 <LL_SPI_DMA_GetRegAddr>:
  * @rmtoll DR           DR            LL_SPI_DMA_GetRegAddr
  * @param  SPIx SPI Instance
  * @retval Address of data register
  */
__STATIC_INLINE uint32_t LL_SPI_DMA_GetRegAddr(SPI_TypeDef *SPIx)
{
 8000910:	b580      	push	{r7, lr}
 8000912:	b082      	sub	sp, #8
 8000914:	af00      	add	r7, sp, #0
 8000916:	6078      	str	r0, [r7, #4]
  return (uint32_t) &(SPIx->DR);
 8000918:	687b      	ldr	r3, [r7, #4]
 800091a:	330c      	adds	r3, #12
}
 800091c:	0018      	movs	r0, r3
 800091e:	46bd      	mov	sp, r7
 8000920:	b002      	add	sp, #8
 8000922:	bd80      	pop	{r7, pc}

08000924 <SPI1_TransmitReceiveSlaveDMA>:
extern uint8_t bufSPI_Tx[], bufSPI_Rx[];
//extern uint8_t bufSPI_Tx[], bufSPI_Rx[];
extern uint16_t SPI_RxBufLastCNDTR;
extern uint8_t bufCmd[], bufAns[], nBufCmd, nBufAns;
char sp[100];
void SPI1_TransmitReceiveSlaveDMA(uint8_t *bufOut, uint8_t *bufIn, int bufLen) {
 8000924:	b5b0      	push	{r4, r5, r7, lr}
 8000926:	b086      	sub	sp, #24
 8000928:	af02      	add	r7, sp, #8
 800092a:	60f8      	str	r0, [r7, #12]
 800092c:	60b9      	str	r1, [r7, #8]
 800092e:	607a      	str	r2, [r7, #4]
	LL_DMA_DisableChannel(DMA1, LL_DMA_CHANNEL_3); // Tx
 8000930:	4b24      	ldr	r3, [pc, #144]	; (80009c4 <SPI1_TransmitReceiveSlaveDMA+0xa0>)
 8000932:	2103      	movs	r1, #3
 8000934:	0018      	movs	r0, r3
 8000936:	f7ff fecb 	bl	80006d0 <LL_DMA_DisableChannel>
	LL_DMA_DisableChannel(DMA1, LL_DMA_CHANNEL_2); // Rx
 800093a:	4b22      	ldr	r3, [pc, #136]	; (80009c4 <SPI1_TransmitReceiveSlaveDMA+0xa0>)
 800093c:	2102      	movs	r1, #2
 800093e:	0018      	movs	r0, r3
 8000940:	f7ff fec6 	bl	80006d0 <LL_DMA_DisableChannel>
	LL_DMA_SetDataLength(DMA1, LL_DMA_CHANNEL_3, bufLen);
 8000944:	687b      	ldr	r3, [r7, #4]
 8000946:	481f      	ldr	r0, [pc, #124]	; (80009c4 <SPI1_TransmitReceiveSlaveDMA+0xa0>)
 8000948:	001a      	movs	r2, r3
 800094a:	2103      	movs	r1, #3
 800094c:	f7ff fef6 	bl	800073c <LL_DMA_SetDataLength>
	LL_DMA_SetDataLength(DMA1, LL_DMA_CHANNEL_2, bufLen);
 8000950:	687b      	ldr	r3, [r7, #4]
 8000952:	481c      	ldr	r0, [pc, #112]	; (80009c4 <SPI1_TransmitReceiveSlaveDMA+0xa0>)
 8000954:	001a      	movs	r2, r3
 8000956:	2102      	movs	r1, #2
 8000958:	f7ff fef0 	bl	800073c <LL_DMA_SetDataLength>
	LL_DMA_ConfigAddresses(DMA1, LL_DMA_CHANNEL_3, (uint32_t) bufOut,
 800095c:	68fc      	ldr	r4, [r7, #12]
 800095e:	4b1a      	ldr	r3, [pc, #104]	; (80009c8 <SPI1_TransmitReceiveSlaveDMA+0xa4>)
 8000960:	0018      	movs	r0, r3
 8000962:	f7ff ffd5 	bl	8000910 <LL_SPI_DMA_GetRegAddr>
 8000966:	0005      	movs	r5, r0
 8000968:	4b16      	ldr	r3, [pc, #88]	; (80009c4 <SPI1_TransmitReceiveSlaveDMA+0xa0>)
 800096a:	2103      	movs	r1, #3
 800096c:	0018      	movs	r0, r3
 800096e:	f7ff fecd 	bl	800070c <LL_DMA_GetDataTransferDirection>
 8000972:	0003      	movs	r3, r0
 8000974:	4813      	ldr	r0, [pc, #76]	; (80009c4 <SPI1_TransmitReceiveSlaveDMA+0xa0>)
 8000976:	9300      	str	r3, [sp, #0]
 8000978:	002b      	movs	r3, r5
 800097a:	0022      	movs	r2, r4
 800097c:	2103      	movs	r1, #3
 800097e:	f7ff fefd 	bl	800077c <LL_DMA_ConfigAddresses>
			LL_SPI_DMA_GetRegAddr(SPI1),
			LL_DMA_GetDataTransferDirection(DMA1, LL_DMA_CHANNEL_3));
	LL_DMA_ConfigAddresses(DMA1, LL_DMA_CHANNEL_2, LL_SPI_DMA_GetRegAddr(SPI1),
 8000982:	4b11      	ldr	r3, [pc, #68]	; (80009c8 <SPI1_TransmitReceiveSlaveDMA+0xa4>)
 8000984:	0018      	movs	r0, r3
 8000986:	f7ff ffc3 	bl	8000910 <LL_SPI_DMA_GetRegAddr>
 800098a:	0005      	movs	r5, r0
 800098c:	68bc      	ldr	r4, [r7, #8]
 800098e:	4b0d      	ldr	r3, [pc, #52]	; (80009c4 <SPI1_TransmitReceiveSlaveDMA+0xa0>)
 8000990:	2102      	movs	r1, #2
 8000992:	0018      	movs	r0, r3
 8000994:	f7ff feba 	bl	800070c <LL_DMA_GetDataTransferDirection>
 8000998:	0003      	movs	r3, r0
 800099a:	480a      	ldr	r0, [pc, #40]	; (80009c4 <SPI1_TransmitReceiveSlaveDMA+0xa0>)
 800099c:	9300      	str	r3, [sp, #0]
 800099e:	0023      	movs	r3, r4
 80009a0:	002a      	movs	r2, r5
 80009a2:	2102      	movs	r1, #2
 80009a4:	f7ff feea 	bl	800077c <LL_DMA_ConfigAddresses>
			(uint32_t) bufIn,
			LL_DMA_GetDataTransferDirection(DMA1, LL_DMA_CHANNEL_2));
	LL_DMA_EnableChannel(DMA1, LL_DMA_CHANNEL_2);
 80009a8:	4b06      	ldr	r3, [pc, #24]	; (80009c4 <SPI1_TransmitReceiveSlaveDMA+0xa0>)
 80009aa:	2102      	movs	r1, #2
 80009ac:	0018      	movs	r0, r3
 80009ae:	f7ff fe71 	bl	8000694 <LL_DMA_EnableChannel>
	LL_DMA_EnableChannel(DMA1, LL_DMA_CHANNEL_3);
 80009b2:	4b04      	ldr	r3, [pc, #16]	; (80009c4 <SPI1_TransmitReceiveSlaveDMA+0xa0>)
 80009b4:	2103      	movs	r1, #3
 80009b6:	0018      	movs	r0, r3
 80009b8:	f7ff fe6c 	bl	8000694 <LL_DMA_EnableChannel>

}
 80009bc:	46c0      	nop			; (mov r8, r8)
 80009be:	46bd      	mov	sp, r7
 80009c0:	b004      	add	sp, #16
 80009c2:	bdb0      	pop	{r4, r5, r7, pc}
 80009c4:	40020000 	.word	0x40020000
 80009c8:	40013000 	.word	0x40013000

080009cc <initSPI1>:
//------------------------------------------------------------
void initSPI1(void) {
 80009cc:	b580      	push	{r7, lr}
 80009ce:	af00      	add	r7, sp, #0
// Init of SPI1 Slave DMA Circular
	LL_DMA_DisableChannel(DMA1, LL_DMA_CHANNEL_2);
 80009d0:	4b23      	ldr	r3, [pc, #140]	; (8000a60 <initSPI1+0x94>)
 80009d2:	2102      	movs	r1, #2
 80009d4:	0018      	movs	r0, r3
 80009d6:	f7ff fe7b 	bl	80006d0 <LL_DMA_DisableChannel>
	LL_DMA_DisableChannel(DMA1, LL_DMA_CHANNEL_3);
 80009da:	4b21      	ldr	r3, [pc, #132]	; (8000a60 <initSPI1+0x94>)
 80009dc:	2103      	movs	r1, #3
 80009de:	0018      	movs	r0, r3
 80009e0:	f7ff fe76 	bl	80006d0 <LL_DMA_DisableChannel>
	LL_DMA_ClearFlag_TC2(DMA1);
 80009e4:	4b1e      	ldr	r3, [pc, #120]	; (8000a60 <initSPI1+0x94>)
 80009e6:	0018      	movs	r0, r3
 80009e8:	f7ff fefe 	bl	80007e8 <LL_DMA_ClearFlag_TC2>
	LL_DMA_ClearFlag_TE2(DMA1);
 80009ec:	4b1c      	ldr	r3, [pc, #112]	; (8000a60 <initSPI1+0x94>)
 80009ee:	0018      	movs	r0, r3
 80009f0:	f7ff ff11 	bl	8000816 <LL_DMA_ClearFlag_TE2>
	LL_DMA_ClearFlag_TC3(DMA1);
 80009f4:	4b1a      	ldr	r3, [pc, #104]	; (8000a60 <initSPI1+0x94>)
 80009f6:	0018      	movs	r0, r3
 80009f8:	f7ff ff01 	bl	80007fe <LL_DMA_ClearFlag_TC3>
	LL_DMA_ClearFlag_TE3(DMA1);
 80009fc:	4b18      	ldr	r3, [pc, #96]	; (8000a60 <initSPI1+0x94>)
 80009fe:	0018      	movs	r0, r3
 8000a00:	f7ff ff14 	bl	800082c <LL_DMA_ClearFlag_TE3>
	LL_SPI_EnableDMAReq_TX(SPI1);
 8000a04:	4b17      	ldr	r3, [pc, #92]	; (8000a64 <initSPI1+0x98>)
 8000a06:	0018      	movs	r0, r3
 8000a08:	f7ff ff74 	bl	80008f4 <LL_SPI_EnableDMAReq_TX>
	LL_SPI_EnableDMAReq_RX(SPI1);
 8000a0c:	4b15      	ldr	r3, [pc, #84]	; (8000a64 <initSPI1+0x98>)
 8000a0e:	0018      	movs	r0, r3
 8000a10:	f7ff ff62 	bl	80008d8 <LL_SPI_EnableDMAReq_RX>
	LL_DMA_EnableIT_TC(DMA1, LL_DMA_CHANNEL_2);
 8000a14:	4b12      	ldr	r3, [pc, #72]	; (8000a60 <initSPI1+0x94>)
 8000a16:	2102      	movs	r1, #2
 8000a18:	0018      	movs	r0, r3
 8000a1a:	f7ff ff13 	bl	8000844 <LL_DMA_EnableIT_TC>
	LL_DMA_EnableIT_TE(DMA1, LL_DMA_CHANNEL_2);
 8000a1e:	4b10      	ldr	r3, [pc, #64]	; (8000a60 <initSPI1+0x94>)
 8000a20:	2102      	movs	r1, #2
 8000a22:	0018      	movs	r0, r3
 8000a24:	f7ff ff2c 	bl	8000880 <LL_DMA_EnableIT_TE>
	LL_DMA_EnableIT_TC(DMA1, LL_DMA_CHANNEL_3);
 8000a28:	4b0d      	ldr	r3, [pc, #52]	; (8000a60 <initSPI1+0x94>)
 8000a2a:	2103      	movs	r1, #3
 8000a2c:	0018      	movs	r0, r3
 8000a2e:	f7ff ff09 	bl	8000844 <LL_DMA_EnableIT_TC>
	LL_DMA_EnableIT_TE(DMA1, LL_DMA_CHANNEL_3);
 8000a32:	4b0b      	ldr	r3, [pc, #44]	; (8000a60 <initSPI1+0x94>)
 8000a34:	2103      	movs	r1, #3
 8000a36:	0018      	movs	r0, r3
 8000a38:	f7ff ff22 	bl	8000880 <LL_DMA_EnableIT_TE>
	LL_SPI_Enable(SPI1);
 8000a3c:	4b09      	ldr	r3, [pc, #36]	; (8000a64 <initSPI1+0x98>)
 8000a3e:	0018      	movs	r0, r3
 8000a40:	f7ff ff3c 	bl	80008bc <LL_SPI_Enable>

	LL_mDelay(100);
 8000a44:	2064      	movs	r0, #100	; 0x64
 8000a46:	f005 fe23 	bl	8006690 <LL_mDelay>
	SPI_RxBufLastCNDTR = BUFSIZE;
 8000a4a:	4b07      	ldr	r3, [pc, #28]	; (8000a68 <initSPI1+0x9c>)
 8000a4c:	2240      	movs	r2, #64	; 0x40
 8000a4e:	801a      	strh	r2, [r3, #0]
	LL_SPI_Enable(SPI2);
 8000a50:	4b06      	ldr	r3, [pc, #24]	; (8000a6c <initSPI1+0xa0>)
 8000a52:	0018      	movs	r0, r3
 8000a54:	f7ff ff32 	bl	80008bc <LL_SPI_Enable>
}
 8000a58:	46c0      	nop			; (mov r8, r8)
 8000a5a:	46bd      	mov	sp, r7
 8000a5c:	bd80      	pop	{r7, pc}
 8000a5e:	46c0      	nop			; (mov r8, r8)
 8000a60:	40020000 	.word	0x40020000
 8000a64:	40013000 	.word	0x40013000
 8000a68:	20000670 	.word	0x20000670
 8000a6c:	40003800 	.word	0x40003800

08000a70 <LL_DMA_EnableChannel>:
{
 8000a70:	b580      	push	{r7, lr}
 8000a72:	b082      	sub	sp, #8
 8000a74:	af00      	add	r7, sp, #0
 8000a76:	6078      	str	r0, [r7, #4]
 8000a78:	6039      	str	r1, [r7, #0]
  SET_BIT(((DMA_Channel_TypeDef *)((uint32_t)((uint32_t)DMAx + CHANNEL_OFFSET_TAB[Channel - 1U])))->CCR, DMA_CCR_EN);
 8000a7a:	683b      	ldr	r3, [r7, #0]
 8000a7c:	3b01      	subs	r3, #1
 8000a7e:	4a0a      	ldr	r2, [pc, #40]	; (8000aa8 <LL_DMA_EnableChannel+0x38>)
 8000a80:	5cd3      	ldrb	r3, [r2, r3]
 8000a82:	001a      	movs	r2, r3
 8000a84:	687b      	ldr	r3, [r7, #4]
 8000a86:	18d3      	adds	r3, r2, r3
 8000a88:	681a      	ldr	r2, [r3, #0]
 8000a8a:	683b      	ldr	r3, [r7, #0]
 8000a8c:	3b01      	subs	r3, #1
 8000a8e:	4906      	ldr	r1, [pc, #24]	; (8000aa8 <LL_DMA_EnableChannel+0x38>)
 8000a90:	5ccb      	ldrb	r3, [r1, r3]
 8000a92:	0019      	movs	r1, r3
 8000a94:	687b      	ldr	r3, [r7, #4]
 8000a96:	18cb      	adds	r3, r1, r3
 8000a98:	2101      	movs	r1, #1
 8000a9a:	430a      	orrs	r2, r1
 8000a9c:	601a      	str	r2, [r3, #0]
}
 8000a9e:	46c0      	nop			; (mov r8, r8)
 8000aa0:	46bd      	mov	sp, r7
 8000aa2:	b002      	add	sp, #8
 8000aa4:	bd80      	pop	{r7, pc}
 8000aa6:	46c0      	nop			; (mov r8, r8)
 8000aa8:	08006fac 	.word	0x08006fac

08000aac <LL_DMA_DisableChannel>:
{
 8000aac:	b580      	push	{r7, lr}
 8000aae:	b082      	sub	sp, #8
 8000ab0:	af00      	add	r7, sp, #0
 8000ab2:	6078      	str	r0, [r7, #4]
 8000ab4:	6039      	str	r1, [r7, #0]
  CLEAR_BIT(((DMA_Channel_TypeDef *)((uint32_t)((uint32_t)DMAx + CHANNEL_OFFSET_TAB[Channel - 1U])))->CCR, DMA_CCR_EN);
 8000ab6:	683b      	ldr	r3, [r7, #0]
 8000ab8:	3b01      	subs	r3, #1
 8000aba:	4a0a      	ldr	r2, [pc, #40]	; (8000ae4 <LL_DMA_DisableChannel+0x38>)
 8000abc:	5cd3      	ldrb	r3, [r2, r3]
 8000abe:	001a      	movs	r2, r3
 8000ac0:	687b      	ldr	r3, [r7, #4]
 8000ac2:	18d3      	adds	r3, r2, r3
 8000ac4:	681a      	ldr	r2, [r3, #0]
 8000ac6:	683b      	ldr	r3, [r7, #0]
 8000ac8:	3b01      	subs	r3, #1
 8000aca:	4906      	ldr	r1, [pc, #24]	; (8000ae4 <LL_DMA_DisableChannel+0x38>)
 8000acc:	5ccb      	ldrb	r3, [r1, r3]
 8000ace:	0019      	movs	r1, r3
 8000ad0:	687b      	ldr	r3, [r7, #4]
 8000ad2:	18cb      	adds	r3, r1, r3
 8000ad4:	2101      	movs	r1, #1
 8000ad6:	438a      	bics	r2, r1
 8000ad8:	601a      	str	r2, [r3, #0]
}
 8000ada:	46c0      	nop			; (mov r8, r8)
 8000adc:	46bd      	mov	sp, r7
 8000ade:	b002      	add	sp, #8
 8000ae0:	bd80      	pop	{r7, pc}
 8000ae2:	46c0      	nop			; (mov r8, r8)
 8000ae4:	08006fac 	.word	0x08006fac

08000ae8 <LL_DMA_GetDataTransferDirection>:
{
 8000ae8:	b580      	push	{r7, lr}
 8000aea:	b082      	sub	sp, #8
 8000aec:	af00      	add	r7, sp, #0
 8000aee:	6078      	str	r0, [r7, #4]
 8000af0:	6039      	str	r1, [r7, #0]
  return (READ_BIT(((DMA_Channel_TypeDef *)((uint32_t)((uint32_t)DMAx + CHANNEL_OFFSET_TAB[Channel - 1U])))->CCR,
 8000af2:	683b      	ldr	r3, [r7, #0]
 8000af4:	3b01      	subs	r3, #1
 8000af6:	4a06      	ldr	r2, [pc, #24]	; (8000b10 <LL_DMA_GetDataTransferDirection+0x28>)
 8000af8:	5cd3      	ldrb	r3, [r2, r3]
 8000afa:	001a      	movs	r2, r3
 8000afc:	687b      	ldr	r3, [r7, #4]
 8000afe:	18d3      	adds	r3, r2, r3
 8000b00:	681b      	ldr	r3, [r3, #0]
 8000b02:	4a04      	ldr	r2, [pc, #16]	; (8000b14 <LL_DMA_GetDataTransferDirection+0x2c>)
 8000b04:	4013      	ands	r3, r2
}
 8000b06:	0018      	movs	r0, r3
 8000b08:	46bd      	mov	sp, r7
 8000b0a:	b002      	add	sp, #8
 8000b0c:	bd80      	pop	{r7, pc}
 8000b0e:	46c0      	nop			; (mov r8, r8)
 8000b10:	08006fac 	.word	0x08006fac
 8000b14:	00004010 	.word	0x00004010

08000b18 <LL_DMA_SetDataLength>:
{
 8000b18:	b580      	push	{r7, lr}
 8000b1a:	b084      	sub	sp, #16
 8000b1c:	af00      	add	r7, sp, #0
 8000b1e:	60f8      	str	r0, [r7, #12]
 8000b20:	60b9      	str	r1, [r7, #8]
 8000b22:	607a      	str	r2, [r7, #4]
  MODIFY_REG(((DMA_Channel_TypeDef *)((uint32_t)((uint32_t)DMAx + CHANNEL_OFFSET_TAB[Channel - 1U])))->CNDTR,
 8000b24:	68bb      	ldr	r3, [r7, #8]
 8000b26:	3b01      	subs	r3, #1
 8000b28:	4a0a      	ldr	r2, [pc, #40]	; (8000b54 <LL_DMA_SetDataLength+0x3c>)
 8000b2a:	5cd3      	ldrb	r3, [r2, r3]
 8000b2c:	001a      	movs	r2, r3
 8000b2e:	68fb      	ldr	r3, [r7, #12]
 8000b30:	18d3      	adds	r3, r2, r3
 8000b32:	685b      	ldr	r3, [r3, #4]
 8000b34:	0c1b      	lsrs	r3, r3, #16
 8000b36:	0419      	lsls	r1, r3, #16
 8000b38:	68bb      	ldr	r3, [r7, #8]
 8000b3a:	3b01      	subs	r3, #1
 8000b3c:	4a05      	ldr	r2, [pc, #20]	; (8000b54 <LL_DMA_SetDataLength+0x3c>)
 8000b3e:	5cd3      	ldrb	r3, [r2, r3]
 8000b40:	001a      	movs	r2, r3
 8000b42:	68fb      	ldr	r3, [r7, #12]
 8000b44:	18d3      	adds	r3, r2, r3
 8000b46:	687a      	ldr	r2, [r7, #4]
 8000b48:	430a      	orrs	r2, r1
 8000b4a:	605a      	str	r2, [r3, #4]
}
 8000b4c:	46c0      	nop			; (mov r8, r8)
 8000b4e:	46bd      	mov	sp, r7
 8000b50:	b004      	add	sp, #16
 8000b52:	bd80      	pop	{r7, pc}
 8000b54:	08006fac 	.word	0x08006fac

08000b58 <LL_DMA_ConfigAddresses>:
{
 8000b58:	b580      	push	{r7, lr}
 8000b5a:	b084      	sub	sp, #16
 8000b5c:	af00      	add	r7, sp, #0
 8000b5e:	60f8      	str	r0, [r7, #12]
 8000b60:	60b9      	str	r1, [r7, #8]
 8000b62:	607a      	str	r2, [r7, #4]
 8000b64:	603b      	str	r3, [r7, #0]
  if (Direction == LL_DMA_DIRECTION_MEMORY_TO_PERIPH)
 8000b66:	69bb      	ldr	r3, [r7, #24]
 8000b68:	2b10      	cmp	r3, #16
 8000b6a:	d112      	bne.n	8000b92 <LL_DMA_ConfigAddresses+0x3a>
    WRITE_REG(((DMA_Channel_TypeDef *)((uint32_t)((uint32_t)DMAx + CHANNEL_OFFSET_TAB[Channel - 1U])))->CMAR, SrcAddress);
 8000b6c:	68bb      	ldr	r3, [r7, #8]
 8000b6e:	3b01      	subs	r3, #1
 8000b70:	4a13      	ldr	r2, [pc, #76]	; (8000bc0 <LL_DMA_ConfigAddresses+0x68>)
 8000b72:	5cd3      	ldrb	r3, [r2, r3]
 8000b74:	001a      	movs	r2, r3
 8000b76:	68fb      	ldr	r3, [r7, #12]
 8000b78:	18d3      	adds	r3, r2, r3
 8000b7a:	687a      	ldr	r2, [r7, #4]
 8000b7c:	60da      	str	r2, [r3, #12]
    WRITE_REG(((DMA_Channel_TypeDef *)((uint32_t)((uint32_t)DMAx + CHANNEL_OFFSET_TAB[Channel - 1U])))->CPAR, DstAddress);
 8000b7e:	68bb      	ldr	r3, [r7, #8]
 8000b80:	3b01      	subs	r3, #1
 8000b82:	4a0f      	ldr	r2, [pc, #60]	; (8000bc0 <LL_DMA_ConfigAddresses+0x68>)
 8000b84:	5cd3      	ldrb	r3, [r2, r3]
 8000b86:	001a      	movs	r2, r3
 8000b88:	68fb      	ldr	r3, [r7, #12]
 8000b8a:	18d3      	adds	r3, r2, r3
 8000b8c:	683a      	ldr	r2, [r7, #0]
 8000b8e:	609a      	str	r2, [r3, #8]
}
 8000b90:	e011      	b.n	8000bb6 <LL_DMA_ConfigAddresses+0x5e>
    WRITE_REG(((DMA_Channel_TypeDef *)((uint32_t)((uint32_t)DMAx + CHANNEL_OFFSET_TAB[Channel - 1U])))->CPAR, SrcAddress);
 8000b92:	68bb      	ldr	r3, [r7, #8]
 8000b94:	3b01      	subs	r3, #1
 8000b96:	4a0a      	ldr	r2, [pc, #40]	; (8000bc0 <LL_DMA_ConfigAddresses+0x68>)
 8000b98:	5cd3      	ldrb	r3, [r2, r3]
 8000b9a:	001a      	movs	r2, r3
 8000b9c:	68fb      	ldr	r3, [r7, #12]
 8000b9e:	18d3      	adds	r3, r2, r3
 8000ba0:	687a      	ldr	r2, [r7, #4]
 8000ba2:	609a      	str	r2, [r3, #8]
    WRITE_REG(((DMA_Channel_TypeDef *)((uint32_t)((uint32_t)DMAx + CHANNEL_OFFSET_TAB[Channel - 1U])))->CMAR, DstAddress);
 8000ba4:	68bb      	ldr	r3, [r7, #8]
 8000ba6:	3b01      	subs	r3, #1
 8000ba8:	4a05      	ldr	r2, [pc, #20]	; (8000bc0 <LL_DMA_ConfigAddresses+0x68>)
 8000baa:	5cd3      	ldrb	r3, [r2, r3]
 8000bac:	001a      	movs	r2, r3
 8000bae:	68fb      	ldr	r3, [r7, #12]
 8000bb0:	18d3      	adds	r3, r2, r3
 8000bb2:	683a      	ldr	r2, [r7, #0]
 8000bb4:	60da      	str	r2, [r3, #12]
}
 8000bb6:	46c0      	nop			; (mov r8, r8)
 8000bb8:	46bd      	mov	sp, r7
 8000bba:	b004      	add	sp, #16
 8000bbc:	bd80      	pop	{r7, pc}
 8000bbe:	46c0      	nop			; (mov r8, r8)
 8000bc0:	08006fac 	.word	0x08006fac

08000bc4 <LL_DMA_ClearFlag_GI4>:
{
 8000bc4:	b580      	push	{r7, lr}
 8000bc6:	b082      	sub	sp, #8
 8000bc8:	af00      	add	r7, sp, #0
 8000bca:	6078      	str	r0, [r7, #4]
  WRITE_REG(DMAx->IFCR, DMA_IFCR_CGIF4);
 8000bcc:	687b      	ldr	r3, [r7, #4]
 8000bce:	2280      	movs	r2, #128	; 0x80
 8000bd0:	0152      	lsls	r2, r2, #5
 8000bd2:	605a      	str	r2, [r3, #4]
}
 8000bd4:	46c0      	nop			; (mov r8, r8)
 8000bd6:	46bd      	mov	sp, r7
 8000bd8:	b002      	add	sp, #8
 8000bda:	bd80      	pop	{r7, pc}

08000bdc <LL_DMA_ClearFlag_GI5>:
{
 8000bdc:	b580      	push	{r7, lr}
 8000bde:	b082      	sub	sp, #8
 8000be0:	af00      	add	r7, sp, #0
 8000be2:	6078      	str	r0, [r7, #4]
  WRITE_REG(DMAx->IFCR, DMA_IFCR_CGIF5);
 8000be4:	687b      	ldr	r3, [r7, #4]
 8000be6:	2280      	movs	r2, #128	; 0x80
 8000be8:	0252      	lsls	r2, r2, #9
 8000bea:	605a      	str	r2, [r3, #4]
}
 8000bec:	46c0      	nop			; (mov r8, r8)
 8000bee:	46bd      	mov	sp, r7
 8000bf0:	b002      	add	sp, #8
 8000bf2:	bd80      	pop	{r7, pc}

08000bf4 <LL_DMA_ClearFlag_TC4>:
{
 8000bf4:	b580      	push	{r7, lr}
 8000bf6:	b082      	sub	sp, #8
 8000bf8:	af00      	add	r7, sp, #0
 8000bfa:	6078      	str	r0, [r7, #4]
  WRITE_REG(DMAx->IFCR, DMA_IFCR_CTCIF4);
 8000bfc:	687b      	ldr	r3, [r7, #4]
 8000bfe:	2280      	movs	r2, #128	; 0x80
 8000c00:	0192      	lsls	r2, r2, #6
 8000c02:	605a      	str	r2, [r3, #4]
}
 8000c04:	46c0      	nop			; (mov r8, r8)
 8000c06:	46bd      	mov	sp, r7
 8000c08:	b002      	add	sp, #8
 8000c0a:	bd80      	pop	{r7, pc}

08000c0c <LL_DMA_ClearFlag_TC5>:
{
 8000c0c:	b580      	push	{r7, lr}
 8000c0e:	b082      	sub	sp, #8
 8000c10:	af00      	add	r7, sp, #0
 8000c12:	6078      	str	r0, [r7, #4]
  WRITE_REG(DMAx->IFCR, DMA_IFCR_CTCIF5);
 8000c14:	687b      	ldr	r3, [r7, #4]
 8000c16:	2280      	movs	r2, #128	; 0x80
 8000c18:	0292      	lsls	r2, r2, #10
 8000c1a:	605a      	str	r2, [r3, #4]
}
 8000c1c:	46c0      	nop			; (mov r8, r8)
 8000c1e:	46bd      	mov	sp, r7
 8000c20:	b002      	add	sp, #8
 8000c22:	bd80      	pop	{r7, pc}

08000c24 <LL_DMA_ClearFlag_TE4>:
{
 8000c24:	b580      	push	{r7, lr}
 8000c26:	b082      	sub	sp, #8
 8000c28:	af00      	add	r7, sp, #0
 8000c2a:	6078      	str	r0, [r7, #4]
  WRITE_REG(DMAx->IFCR, DMA_IFCR_CTEIF4);
 8000c2c:	687b      	ldr	r3, [r7, #4]
 8000c2e:	2280      	movs	r2, #128	; 0x80
 8000c30:	0212      	lsls	r2, r2, #8
 8000c32:	605a      	str	r2, [r3, #4]
}
 8000c34:	46c0      	nop			; (mov r8, r8)
 8000c36:	46bd      	mov	sp, r7
 8000c38:	b002      	add	sp, #8
 8000c3a:	bd80      	pop	{r7, pc}

08000c3c <LL_DMA_ClearFlag_TE5>:
{
 8000c3c:	b580      	push	{r7, lr}
 8000c3e:	b082      	sub	sp, #8
 8000c40:	af00      	add	r7, sp, #0
 8000c42:	6078      	str	r0, [r7, #4]
  WRITE_REG(DMAx->IFCR, DMA_IFCR_CTEIF5);
 8000c44:	687b      	ldr	r3, [r7, #4]
 8000c46:	2280      	movs	r2, #128	; 0x80
 8000c48:	0312      	lsls	r2, r2, #12
 8000c4a:	605a      	str	r2, [r3, #4]
}
 8000c4c:	46c0      	nop			; (mov r8, r8)
 8000c4e:	46bd      	mov	sp, r7
 8000c50:	b002      	add	sp, #8
 8000c52:	bd80      	pop	{r7, pc}

08000c54 <LL_DMA_EnableIT_TC>:
{
 8000c54:	b580      	push	{r7, lr}
 8000c56:	b082      	sub	sp, #8
 8000c58:	af00      	add	r7, sp, #0
 8000c5a:	6078      	str	r0, [r7, #4]
 8000c5c:	6039      	str	r1, [r7, #0]
  SET_BIT(((DMA_Channel_TypeDef *)((uint32_t)((uint32_t)DMAx + CHANNEL_OFFSET_TAB[Channel - 1U])))->CCR, DMA_CCR_TCIE);
 8000c5e:	683b      	ldr	r3, [r7, #0]
 8000c60:	3b01      	subs	r3, #1
 8000c62:	4a0a      	ldr	r2, [pc, #40]	; (8000c8c <LL_DMA_EnableIT_TC+0x38>)
 8000c64:	5cd3      	ldrb	r3, [r2, r3]
 8000c66:	001a      	movs	r2, r3
 8000c68:	687b      	ldr	r3, [r7, #4]
 8000c6a:	18d3      	adds	r3, r2, r3
 8000c6c:	681a      	ldr	r2, [r3, #0]
 8000c6e:	683b      	ldr	r3, [r7, #0]
 8000c70:	3b01      	subs	r3, #1
 8000c72:	4906      	ldr	r1, [pc, #24]	; (8000c8c <LL_DMA_EnableIT_TC+0x38>)
 8000c74:	5ccb      	ldrb	r3, [r1, r3]
 8000c76:	0019      	movs	r1, r3
 8000c78:	687b      	ldr	r3, [r7, #4]
 8000c7a:	18cb      	adds	r3, r1, r3
 8000c7c:	2102      	movs	r1, #2
 8000c7e:	430a      	orrs	r2, r1
 8000c80:	601a      	str	r2, [r3, #0]
}
 8000c82:	46c0      	nop			; (mov r8, r8)
 8000c84:	46bd      	mov	sp, r7
 8000c86:	b002      	add	sp, #8
 8000c88:	bd80      	pop	{r7, pc}
 8000c8a:	46c0      	nop			; (mov r8, r8)
 8000c8c:	08006fac 	.word	0x08006fac

08000c90 <LL_DMA_EnableIT_TE>:
{
 8000c90:	b580      	push	{r7, lr}
 8000c92:	b082      	sub	sp, #8
 8000c94:	af00      	add	r7, sp, #0
 8000c96:	6078      	str	r0, [r7, #4]
 8000c98:	6039      	str	r1, [r7, #0]
  SET_BIT(((DMA_Channel_TypeDef *)((uint32_t)((uint32_t)DMAx + CHANNEL_OFFSET_TAB[Channel - 1U])))->CCR, DMA_CCR_TEIE);
 8000c9a:	683b      	ldr	r3, [r7, #0]
 8000c9c:	3b01      	subs	r3, #1
 8000c9e:	4a0a      	ldr	r2, [pc, #40]	; (8000cc8 <LL_DMA_EnableIT_TE+0x38>)
 8000ca0:	5cd3      	ldrb	r3, [r2, r3]
 8000ca2:	001a      	movs	r2, r3
 8000ca4:	687b      	ldr	r3, [r7, #4]
 8000ca6:	18d3      	adds	r3, r2, r3
 8000ca8:	681a      	ldr	r2, [r3, #0]
 8000caa:	683b      	ldr	r3, [r7, #0]
 8000cac:	3b01      	subs	r3, #1
 8000cae:	4906      	ldr	r1, [pc, #24]	; (8000cc8 <LL_DMA_EnableIT_TE+0x38>)
 8000cb0:	5ccb      	ldrb	r3, [r1, r3]
 8000cb2:	0019      	movs	r1, r3
 8000cb4:	687b      	ldr	r3, [r7, #4]
 8000cb6:	18cb      	adds	r3, r1, r3
 8000cb8:	2108      	movs	r1, #8
 8000cba:	430a      	orrs	r2, r1
 8000cbc:	601a      	str	r2, [r3, #0]
}
 8000cbe:	46c0      	nop			; (mov r8, r8)
 8000cc0:	46bd      	mov	sp, r7
 8000cc2:	b002      	add	sp, #8
 8000cc4:	bd80      	pop	{r7, pc}
 8000cc6:	46c0      	nop			; (mov r8, r8)
 8000cc8:	08006fac 	.word	0x08006fac

08000ccc <LL_USART_EnableDMAReq_RX>:
  * @rmtoll CR3          DMAR          LL_USART_EnableDMAReq_RX
  * @param  USARTx USART Instance
  * @retval None
  */
__STATIC_INLINE void LL_USART_EnableDMAReq_RX(USART_TypeDef *USARTx)
{
 8000ccc:	b580      	push	{r7, lr}
 8000cce:	b086      	sub	sp, #24
 8000cd0:	af00      	add	r7, sp, #0
 8000cd2:	6078      	str	r0, [r7, #4]
 */
__STATIC_FORCEINLINE uint32_t __get_PRIMASK(void)
{
  uint32_t result;

  __ASM volatile ("MRS %0, primask" : "=r" (result) :: "memory");
 8000cd4:	f3ef 8310 	mrs	r3, PRIMASK
 8000cd8:	60bb      	str	r3, [r7, #8]
  return(result);
 8000cda:	68bb      	ldr	r3, [r7, #8]
  ATOMIC_SET_BIT(USARTx->CR3, USART_CR3_DMAR);
 8000cdc:	617b      	str	r3, [r7, #20]
 8000cde:	2301      	movs	r3, #1
 8000ce0:	60fb      	str	r3, [r7, #12]
  \details Assigns the given value to the Priority Mask Register.
  \param [in]    priMask  Priority Mask
 */
__STATIC_FORCEINLINE void __set_PRIMASK(uint32_t priMask)
{
  __ASM volatile ("MSR primask, %0" : : "r" (priMask) : "memory");
 8000ce2:	68fb      	ldr	r3, [r7, #12]
 8000ce4:	f383 8810 	msr	PRIMASK, r3
}
 8000ce8:	46c0      	nop			; (mov r8, r8)
 8000cea:	687b      	ldr	r3, [r7, #4]
 8000cec:	689b      	ldr	r3, [r3, #8]
 8000cee:	2240      	movs	r2, #64	; 0x40
 8000cf0:	431a      	orrs	r2, r3
 8000cf2:	687b      	ldr	r3, [r7, #4]
 8000cf4:	609a      	str	r2, [r3, #8]
 8000cf6:	697b      	ldr	r3, [r7, #20]
 8000cf8:	613b      	str	r3, [r7, #16]
  __ASM volatile ("MSR primask, %0" : : "r" (priMask) : "memory");
 8000cfa:	693b      	ldr	r3, [r7, #16]
 8000cfc:	f383 8810 	msr	PRIMASK, r3
}
 8000d00:	46c0      	nop			; (mov r8, r8)
}
 8000d02:	46c0      	nop			; (mov r8, r8)
 8000d04:	46bd      	mov	sp, r7
 8000d06:	b006      	add	sp, #24
 8000d08:	bd80      	pop	{r7, pc}

08000d0a <LL_USART_EnableDMAReq_TX>:
  * @rmtoll CR3          DMAT          LL_USART_EnableDMAReq_TX
  * @param  USARTx USART Instance
  * @retval None
  */
__STATIC_INLINE void LL_USART_EnableDMAReq_TX(USART_TypeDef *USARTx)
{
 8000d0a:	b580      	push	{r7, lr}
 8000d0c:	b086      	sub	sp, #24
 8000d0e:	af00      	add	r7, sp, #0
 8000d10:	6078      	str	r0, [r7, #4]
  __ASM volatile ("MRS %0, primask" : "=r" (result) :: "memory");
 8000d12:	f3ef 8310 	mrs	r3, PRIMASK
 8000d16:	60bb      	str	r3, [r7, #8]
  return(result);
 8000d18:	68bb      	ldr	r3, [r7, #8]
  ATOMIC_SET_BIT(USARTx->CR3, USART_CR3_DMAT);
 8000d1a:	617b      	str	r3, [r7, #20]
 8000d1c:	2301      	movs	r3, #1
 8000d1e:	60fb      	str	r3, [r7, #12]
  __ASM volatile ("MSR primask, %0" : : "r" (priMask) : "memory");
 8000d20:	68fb      	ldr	r3, [r7, #12]
 8000d22:	f383 8810 	msr	PRIMASK, r3
}
 8000d26:	46c0      	nop			; (mov r8, r8)
 8000d28:	687b      	ldr	r3, [r7, #4]
 8000d2a:	689b      	ldr	r3, [r3, #8]
 8000d2c:	2280      	movs	r2, #128	; 0x80
 8000d2e:	431a      	orrs	r2, r3
 8000d30:	687b      	ldr	r3, [r7, #4]
 8000d32:	609a      	str	r2, [r3, #8]
 8000d34:	697b      	ldr	r3, [r7, #20]
 8000d36:	613b      	str	r3, [r7, #16]
  __ASM volatile ("MSR primask, %0" : : "r" (priMask) : "memory");
 8000d38:	693b      	ldr	r3, [r7, #16]
 8000d3a:	f383 8810 	msr	PRIMASK, r3
}
 8000d3e:	46c0      	nop			; (mov r8, r8)
}
 8000d40:	46c0      	nop			; (mov r8, r8)
 8000d42:	46bd      	mov	sp, r7
 8000d44:	b006      	add	sp, #24
 8000d46:	bd80      	pop	{r7, pc}

08000d48 <LL_USART_DMA_GetRegAddr>:
  *         @arg @ref LL_USART_DMA_REG_DATA_TRANSMIT
  *         @arg @ref LL_USART_DMA_REG_DATA_RECEIVE
  * @retval Address of data register
  */
__STATIC_INLINE uint32_t LL_USART_DMA_GetRegAddr(USART_TypeDef *USARTx, uint32_t Direction)
{
 8000d48:	b580      	push	{r7, lr}
 8000d4a:	b084      	sub	sp, #16
 8000d4c:	af00      	add	r7, sp, #0
 8000d4e:	6078      	str	r0, [r7, #4]
 8000d50:	6039      	str	r1, [r7, #0]
  uint32_t data_reg_addr;

  if (Direction == LL_USART_DMA_REG_DATA_TRANSMIT)
 8000d52:	683b      	ldr	r3, [r7, #0]
 8000d54:	2b00      	cmp	r3, #0
 8000d56:	d103      	bne.n	8000d60 <LL_USART_DMA_GetRegAddr+0x18>
  {
    /* return address of TDR register */
    data_reg_addr = (uint32_t) &(USARTx->TDR);
 8000d58:	687b      	ldr	r3, [r7, #4]
 8000d5a:	3328      	adds	r3, #40	; 0x28
 8000d5c:	60fb      	str	r3, [r7, #12]
 8000d5e:	e002      	b.n	8000d66 <LL_USART_DMA_GetRegAddr+0x1e>
  }
  else
  {
    /* return address of RDR register */
    data_reg_addr = (uint32_t) &(USARTx->RDR);
 8000d60:	687b      	ldr	r3, [r7, #4]
 8000d62:	3324      	adds	r3, #36	; 0x24
 8000d64:	60fb      	str	r3, [r7, #12]
  }

  return data_reg_addr;
 8000d66:	68fb      	ldr	r3, [r7, #12]
}
 8000d68:	0018      	movs	r0, r3
 8000d6a:	46bd      	mov	sp, r7
 8000d6c:	b004      	add	sp, #16
 8000d6e:	bd80      	pop	{r7, pc}

08000d70 <uartDMA_Init>:
#include "string.h"

//DMA_TypeDef d;
extern uint32_t UART_RxBufLastCNDTR;

void uartDMA_Init(void) {
 8000d70:	b580      	push	{r7, lr}
 8000d72:	af00      	add	r7, sp, #0
	LL_DMA_DisableChannel(DMA1, LL_DMA_CHANNEL_4);
 8000d74:	4b29      	ldr	r3, [pc, #164]	; (8000e1c <uartDMA_Init+0xac>)
 8000d76:	2104      	movs	r1, #4
 8000d78:	0018      	movs	r0, r3
 8000d7a:	f7ff fe97 	bl	8000aac <LL_DMA_DisableChannel>
	LL_DMA_DisableChannel(DMA1, LL_DMA_CHANNEL_5);
 8000d7e:	4b27      	ldr	r3, [pc, #156]	; (8000e1c <uartDMA_Init+0xac>)
 8000d80:	2105      	movs	r1, #5
 8000d82:	0018      	movs	r0, r3
 8000d84:	f7ff fe92 	bl	8000aac <LL_DMA_DisableChannel>
	LL_DMA_ClearFlag_TC4(DMA1);
 8000d88:	4b24      	ldr	r3, [pc, #144]	; (8000e1c <uartDMA_Init+0xac>)
 8000d8a:	0018      	movs	r0, r3
 8000d8c:	f7ff ff32 	bl	8000bf4 <LL_DMA_ClearFlag_TC4>
	LL_DMA_ClearFlag_TE4(DMA1);
 8000d90:	4b22      	ldr	r3, [pc, #136]	; (8000e1c <uartDMA_Init+0xac>)
 8000d92:	0018      	movs	r0, r3
 8000d94:	f7ff ff46 	bl	8000c24 <LL_DMA_ClearFlag_TE4>
	LL_DMA_ClearFlag_TC5(DMA1);
 8000d98:	4b20      	ldr	r3, [pc, #128]	; (8000e1c <uartDMA_Init+0xac>)
 8000d9a:	0018      	movs	r0, r3
 8000d9c:	f7ff ff36 	bl	8000c0c <LL_DMA_ClearFlag_TC5>
	LL_DMA_ClearFlag_TE5(DMA1);
 8000da0:	4b1e      	ldr	r3, [pc, #120]	; (8000e1c <uartDMA_Init+0xac>)
 8000da2:	0018      	movs	r0, r3
 8000da4:	f7ff ff4a 	bl	8000c3c <LL_DMA_ClearFlag_TE5>

	LL_USART_EnableDMAReq_RX(USART1);
 8000da8:	4b1d      	ldr	r3, [pc, #116]	; (8000e20 <uartDMA_Init+0xb0>)
 8000daa:	0018      	movs	r0, r3
 8000dac:	f7ff ff8e 	bl	8000ccc <LL_USART_EnableDMAReq_RX>
	LL_USART_EnableDMAReq_TX(USART1);
 8000db0:	4b1b      	ldr	r3, [pc, #108]	; (8000e20 <uartDMA_Init+0xb0>)
 8000db2:	0018      	movs	r0, r3
 8000db4:	f7ff ffa9 	bl	8000d0a <LL_USART_EnableDMAReq_TX>

	LL_DMA_EnableIT_TC(DMA1, LL_DMA_CHANNEL_4);
 8000db8:	4b18      	ldr	r3, [pc, #96]	; (8000e1c <uartDMA_Init+0xac>)
 8000dba:	2104      	movs	r1, #4
 8000dbc:	0018      	movs	r0, r3
 8000dbe:	f7ff ff49 	bl	8000c54 <LL_DMA_EnableIT_TC>
	LL_DMA_EnableIT_TE(DMA1, LL_DMA_CHANNEL_4);
 8000dc2:	4b16      	ldr	r3, [pc, #88]	; (8000e1c <uartDMA_Init+0xac>)
 8000dc4:	2104      	movs	r1, #4
 8000dc6:	0018      	movs	r0, r3
 8000dc8:	f7ff ff62 	bl	8000c90 <LL_DMA_EnableIT_TE>
	LL_DMA_EnableIT_TC(DMA1, LL_DMA_CHANNEL_5);
 8000dcc:	4b13      	ldr	r3, [pc, #76]	; (8000e1c <uartDMA_Init+0xac>)
 8000dce:	2105      	movs	r1, #5
 8000dd0:	0018      	movs	r0, r3
 8000dd2:	f7ff ff3f 	bl	8000c54 <LL_DMA_EnableIT_TC>
	LL_DMA_EnableIT_TE(DMA1, LL_DMA_CHANNEL_5);
 8000dd6:	4b11      	ldr	r3, [pc, #68]	; (8000e1c <uartDMA_Init+0xac>)
 8000dd8:	2105      	movs	r1, #5
 8000dda:	0018      	movs	r0, r3
 8000ddc:	f7ff ff58 	bl	8000c90 <LL_DMA_EnableIT_TE>

	LL_DMA_ClearFlag_GI5(DMA1);
 8000de0:	4b0e      	ldr	r3, [pc, #56]	; (8000e1c <uartDMA_Init+0xac>)
 8000de2:	0018      	movs	r0, r3
 8000de4:	f7ff fefa 	bl	8000bdc <LL_DMA_ClearFlag_GI5>
	LL_DMA_ClearFlag_GI4(DMA1);
 8000de8:	4b0c      	ldr	r3, [pc, #48]	; (8000e1c <uartDMA_Init+0xac>)
 8000dea:	0018      	movs	r0, r3
 8000dec:	f7ff feea 	bl	8000bc4 <LL_DMA_ClearFlag_GI4>
	LL_DMA_ClearFlag_TC4(DMA1);
 8000df0:	4b0a      	ldr	r3, [pc, #40]	; (8000e1c <uartDMA_Init+0xac>)
 8000df2:	0018      	movs	r0, r3
 8000df4:	f7ff fefe 	bl	8000bf4 <LL_DMA_ClearFlag_TC4>
	LL_DMA_ClearFlag_TE4(DMA1);
 8000df8:	4b08      	ldr	r3, [pc, #32]	; (8000e1c <uartDMA_Init+0xac>)
 8000dfa:	0018      	movs	r0, r3
 8000dfc:	f7ff ff12 	bl	8000c24 <LL_DMA_ClearFlag_TE4>
	LL_DMA_ClearFlag_TC5(DMA1);
 8000e00:	4b06      	ldr	r3, [pc, #24]	; (8000e1c <uartDMA_Init+0xac>)
 8000e02:	0018      	movs	r0, r3
 8000e04:	f7ff ff02 	bl	8000c0c <LL_DMA_ClearFlag_TC5>
	LL_DMA_ClearFlag_TE5(DMA1);
 8000e08:	4b04      	ldr	r3, [pc, #16]	; (8000e1c <uartDMA_Init+0xac>)
 8000e0a:	0018      	movs	r0, r3
 8000e0c:	f7ff ff16 	bl	8000c3c <LL_DMA_ClearFlag_TE5>

	UART_RxBufLastCNDTR = BUFSIZE;
 8000e10:	4b04      	ldr	r3, [pc, #16]	; (8000e24 <uartDMA_Init+0xb4>)
 8000e12:	2240      	movs	r2, #64	; 0x40
 8000e14:	601a      	str	r2, [r3, #0]

//	LL_DMA_ConfigAddresses(DMA1, LL_DMA_CHANNEL_5, LL_USART_DMA_GetRegAddr(USART1), (uint32_t)&inBufUart, LL_DMA_GetDataTransferDirection(DMA1, LL_DMA_CHANNEL_5));
//  LL_DMA_ConfigAddresses(DMA1, LL_DMA_CHANNEL_4, (uint32_t)out, LL_USART_DMA_GetRegAddr(USART1), LL_DMA_GetDataTransferDirection(DMA1, LL_DMA_CHANNEL_4));
}
 8000e16:	46c0      	nop			; (mov r8, r8)
 8000e18:	46bd      	mov	sp, r7
 8000e1a:	bd80      	pop	{r7, pc}
 8000e1c:	40020000 	.word	0x40020000
 8000e20:	40013800 	.word	0x40013800
 8000e24:	20000588 	.word	0x20000588

08000e28 <UART_TX>:
//---------------------------------------------------------------------------
void UART_TX(uint8_t *out, uint16_t sz) {
 8000e28:	b5b0      	push	{r4, r5, r7, lr}
 8000e2a:	b084      	sub	sp, #16
 8000e2c:	af02      	add	r7, sp, #8
 8000e2e:	6078      	str	r0, [r7, #4]
 8000e30:	000a      	movs	r2, r1
 8000e32:	1cbb      	adds	r3, r7, #2
 8000e34:	801a      	strh	r2, [r3, #0]
	LL_DMA_DisableChannel(DMA1, LL_DMA_CHANNEL_4);
 8000e36:	4b14      	ldr	r3, [pc, #80]	; (8000e88 <UART_TX+0x60>)
 8000e38:	2104      	movs	r1, #4
 8000e3a:	0018      	movs	r0, r3
 8000e3c:	f7ff fe36 	bl	8000aac <LL_DMA_DisableChannel>
	LL_DMA_ConfigAddresses(DMA1, LL_DMA_CHANNEL_4, (uint32_t) out,
 8000e40:	687c      	ldr	r4, [r7, #4]
 8000e42:	4b12      	ldr	r3, [pc, #72]	; (8000e8c <UART_TX+0x64>)
 8000e44:	2100      	movs	r1, #0
 8000e46:	0018      	movs	r0, r3
 8000e48:	f7ff ff7e 	bl	8000d48 <LL_USART_DMA_GetRegAddr>
 8000e4c:	0005      	movs	r5, r0
 8000e4e:	4b0e      	ldr	r3, [pc, #56]	; (8000e88 <UART_TX+0x60>)
 8000e50:	2104      	movs	r1, #4
 8000e52:	0018      	movs	r0, r3
 8000e54:	f7ff fe48 	bl	8000ae8 <LL_DMA_GetDataTransferDirection>
 8000e58:	0003      	movs	r3, r0
 8000e5a:	480b      	ldr	r0, [pc, #44]	; (8000e88 <UART_TX+0x60>)
 8000e5c:	9300      	str	r3, [sp, #0]
 8000e5e:	002b      	movs	r3, r5
 8000e60:	0022      	movs	r2, r4
 8000e62:	2104      	movs	r1, #4
 8000e64:	f7ff fe78 	bl	8000b58 <LL_DMA_ConfigAddresses>
			LL_USART_DMA_GetRegAddr(USART1 ,LL_USART_DMA_REG_DATA_TRANSMIT),
			LL_DMA_GetDataTransferDirection(DMA1, LL_DMA_CHANNEL_4));
	LL_DMA_SetDataLength(DMA1, LL_DMA_CHANNEL_4, sz);
 8000e68:	1cbb      	adds	r3, r7, #2
 8000e6a:	881b      	ldrh	r3, [r3, #0]
 8000e6c:	4806      	ldr	r0, [pc, #24]	; (8000e88 <UART_TX+0x60>)
 8000e6e:	001a      	movs	r2, r3
 8000e70:	2104      	movs	r1, #4
 8000e72:	f7ff fe51 	bl	8000b18 <LL_DMA_SetDataLength>
	LL_DMA_EnableChannel(DMA1, LL_DMA_CHANNEL_4);
 8000e76:	4b04      	ldr	r3, [pc, #16]	; (8000e88 <UART_TX+0x60>)
 8000e78:	2104      	movs	r1, #4
 8000e7a:	0018      	movs	r0, r3
 8000e7c:	f7ff fdf8 	bl	8000a70 <LL_DMA_EnableChannel>
}
 8000e80:	46c0      	nop			; (mov r8, r8)
 8000e82:	46bd      	mov	sp, r7
 8000e84:	b002      	add	sp, #8
 8000e86:	bdb0      	pop	{r4, r5, r7, pc}
 8000e88:	40020000 	.word	0x40020000
 8000e8c:	40013800 	.word	0x40013800

08000e90 <UART_RX>:
//---------------------------------------------------------------------
void UART_RX(uint8_t *buf, uint16_t sz) {
 8000e90:	b5b0      	push	{r4, r5, r7, lr}
 8000e92:	b084      	sub	sp, #16
 8000e94:	af02      	add	r7, sp, #8
 8000e96:	6078      	str	r0, [r7, #4]
 8000e98:	000a      	movs	r2, r1
 8000e9a:	1cbb      	adds	r3, r7, #2
 8000e9c:	801a      	strh	r2, [r3, #0]
	LL_DMA_DisableChannel(DMA1, LL_DMA_CHANNEL_5);
 8000e9e:	4b14      	ldr	r3, [pc, #80]	; (8000ef0 <UART_RX+0x60>)
 8000ea0:	2105      	movs	r1, #5
 8000ea2:	0018      	movs	r0, r3
 8000ea4:	f7ff fe02 	bl	8000aac <LL_DMA_DisableChannel>
	LL_DMA_ConfigAddresses(DMA1, LL_DMA_CHANNEL_5,
 8000ea8:	4b12      	ldr	r3, [pc, #72]	; (8000ef4 <UART_RX+0x64>)
 8000eaa:	2101      	movs	r1, #1
 8000eac:	0018      	movs	r0, r3
 8000eae:	f7ff ff4b 	bl	8000d48 <LL_USART_DMA_GetRegAddr>
 8000eb2:	0005      	movs	r5, r0
 8000eb4:	687c      	ldr	r4, [r7, #4]
 8000eb6:	4b0e      	ldr	r3, [pc, #56]	; (8000ef0 <UART_RX+0x60>)
 8000eb8:	2105      	movs	r1, #5
 8000eba:	0018      	movs	r0, r3
 8000ebc:	f7ff fe14 	bl	8000ae8 <LL_DMA_GetDataTransferDirection>
 8000ec0:	0003      	movs	r3, r0
 8000ec2:	480b      	ldr	r0, [pc, #44]	; (8000ef0 <UART_RX+0x60>)
 8000ec4:	9300      	str	r3, [sp, #0]
 8000ec6:	0023      	movs	r3, r4
 8000ec8:	002a      	movs	r2, r5
 8000eca:	2105      	movs	r1, #5
 8000ecc:	f7ff fe44 	bl	8000b58 <LL_DMA_ConfigAddresses>
			LL_USART_DMA_GetRegAddr(USART1,LL_USART_DMA_REG_DATA_RECEIVE), (uint32_t) buf,
			LL_DMA_GetDataTransferDirection(DMA1, LL_DMA_CHANNEL_5));
	LL_DMA_SetDataLength(DMA1, LL_DMA_CHANNEL_5, sz);
 8000ed0:	1cbb      	adds	r3, r7, #2
 8000ed2:	881b      	ldrh	r3, [r3, #0]
 8000ed4:	4806      	ldr	r0, [pc, #24]	; (8000ef0 <UART_RX+0x60>)
 8000ed6:	001a      	movs	r2, r3
 8000ed8:	2105      	movs	r1, #5
 8000eda:	f7ff fe1d 	bl	8000b18 <LL_DMA_SetDataLength>
	LL_DMA_EnableChannel(DMA1, LL_DMA_CHANNEL_5);
 8000ede:	4b04      	ldr	r3, [pc, #16]	; (8000ef0 <UART_RX+0x60>)
 8000ee0:	2105      	movs	r1, #5
 8000ee2:	0018      	movs	r0, r3
 8000ee4:	f7ff fdc4 	bl	8000a70 <LL_DMA_EnableChannel>
}
 8000ee8:	46c0      	nop			; (mov r8, r8)
 8000eea:	46bd      	mov	sp, r7
 8000eec:	b002      	add	sp, #8
 8000eee:	bdb0      	pop	{r4, r5, r7, pc}
 8000ef0:	40020000 	.word	0x40020000
 8000ef4:	40013800 	.word	0x40013800

08000ef8 <UART_RXBUF_GetData>:
//--------------------------------------------------------------------
uint16_t UART_RXBUF_GetData(uint16_t *shift) {
 8000ef8:	b580      	push	{r7, lr}
 8000efa:	b084      	sub	sp, #16
 8000efc:	af00      	add	r7, sp, #0
 8000efe:	6078      	str	r0, [r7, #4]
	uint32_t cndrt = DMA1_Channel5->CNDTR;
 8000f00:	4b19      	ldr	r3, [pc, #100]	; (8000f68 <UART_RXBUF_GetData+0x70>)
 8000f02:	685b      	ldr	r3, [r3, #4]
 8000f04:	60fb      	str	r3, [r7, #12]
	*shift = BUFSIZE - UART_RxBufLastCNDTR;
 8000f06:	4b19      	ldr	r3, [pc, #100]	; (8000f6c <UART_RXBUF_GetData+0x74>)
 8000f08:	681b      	ldr	r3, [r3, #0]
 8000f0a:	b29b      	uxth	r3, r3
 8000f0c:	2240      	movs	r2, #64	; 0x40
 8000f0e:	1ad3      	subs	r3, r2, r3
 8000f10:	b29a      	uxth	r2, r3
 8000f12:	687b      	ldr	r3, [r7, #4]
 8000f14:	801a      	strh	r2, [r3, #0]

	if (UART_RxBufLastCNDTR > cndrt) {
 8000f16:	4b15      	ldr	r3, [pc, #84]	; (8000f6c <UART_RXBUF_GetData+0x74>)
 8000f18:	681b      	ldr	r3, [r3, #0]
 8000f1a:	68fa      	ldr	r2, [r7, #12]
 8000f1c:	429a      	cmp	r2, r3
 8000f1e:	d20e      	bcs.n	8000f3e <UART_RXBUF_GetData+0x46>
		uint16_t len = UART_RxBufLastCNDTR - cndrt;
 8000f20:	4b12      	ldr	r3, [pc, #72]	; (8000f6c <UART_RXBUF_GetData+0x74>)
 8000f22:	681b      	ldr	r3, [r3, #0]
 8000f24:	b299      	uxth	r1, r3
 8000f26:	68fb      	ldr	r3, [r7, #12]
 8000f28:	b29a      	uxth	r2, r3
 8000f2a:	2008      	movs	r0, #8
 8000f2c:	183b      	adds	r3, r7, r0
 8000f2e:	1a8a      	subs	r2, r1, r2
 8000f30:	801a      	strh	r2, [r3, #0]
		UART_RxBufLastCNDTR = cndrt;
 8000f32:	4b0e      	ldr	r3, [pc, #56]	; (8000f6c <UART_RXBUF_GetData+0x74>)
 8000f34:	68fa      	ldr	r2, [r7, #12]
 8000f36:	601a      	str	r2, [r3, #0]
		return len;
 8000f38:	183b      	adds	r3, r7, r0
 8000f3a:	881b      	ldrh	r3, [r3, #0]
 8000f3c:	e010      	b.n	8000f60 <UART_RXBUF_GetData+0x68>
	} else if (UART_RxBufLastCNDTR < cndrt) {
 8000f3e:	4b0b      	ldr	r3, [pc, #44]	; (8000f6c <UART_RXBUF_GetData+0x74>)
 8000f40:	681b      	ldr	r3, [r3, #0]
 8000f42:	68fa      	ldr	r2, [r7, #12]
 8000f44:	429a      	cmp	r2, r3
 8000f46:	d90a      	bls.n	8000f5e <UART_RXBUF_GetData+0x66>
		uint16_t len = UART_RxBufLastCNDTR;
 8000f48:	4b08      	ldr	r3, [pc, #32]	; (8000f6c <UART_RXBUF_GetData+0x74>)
 8000f4a:	681a      	ldr	r2, [r3, #0]
 8000f4c:	210a      	movs	r1, #10
 8000f4e:	187b      	adds	r3, r7, r1
 8000f50:	801a      	strh	r2, [r3, #0]
		UART_RxBufLastCNDTR = BUFSIZE;
 8000f52:	4b06      	ldr	r3, [pc, #24]	; (8000f6c <UART_RXBUF_GetData+0x74>)
 8000f54:	2240      	movs	r2, #64	; 0x40
 8000f56:	601a      	str	r2, [r3, #0]
		return len;
 8000f58:	187b      	adds	r3, r7, r1
 8000f5a:	881b      	ldrh	r3, [r3, #0]
 8000f5c:	e000      	b.n	8000f60 <UART_RXBUF_GetData+0x68>
	}
	return 0;
 8000f5e:	2300      	movs	r3, #0
}
 8000f60:	0018      	movs	r0, r3
 8000f62:	46bd      	mov	sp, r7
 8000f64:	b004      	add	sp, #16
 8000f66:	bd80      	pop	{r7, pc}
 8000f68:	40020058 	.word	0x40020058
 8000f6c:	20000588 	.word	0x20000588

08000f70 <DMA1_RS485_TransmitComplete>:
//        // завершена передача всех данных
//	HAL_GPIO_WritePin(STM_DIR_GPIO_Port,STM_DIR_Pin,GPIO_PIN_RESET); // ВКЛЮЧЕНИЕ ПРИЁМА ПО RS-485
//	huart->gState = HAL_UART_STATE_READY;
//}
void DMA1_RS485_TransmitComplete(void)
{
 8000f70:	b580      	push	{r7, lr}
 8000f72:	af00      	add	r7, sp, #0
//	LL_mDelay(1);
	while((USART1->ISR & USART_ISR_TC) == 0){};
 8000f74:	46c0      	nop			; (mov r8, r8)
 8000f76:	4b07      	ldr	r3, [pc, #28]	; (8000f94 <DMA1_RS485_TransmitComplete+0x24>)
 8000f78:	69db      	ldr	r3, [r3, #28]
 8000f7a:	2240      	movs	r2, #64	; 0x40
 8000f7c:	4013      	ands	r3, r2
 8000f7e:	d0fa      	beq.n	8000f76 <DMA1_RS485_TransmitComplete+0x6>
	HAL_GPIO_WritePin(STM_DIR_GPIO_Port,STM_DIR_Pin,GPIO_PIN_RESET); // ВКЛЮЧЕНИЕ ПРИЁМА ПО RS-485
 8000f80:	4b05      	ldr	r3, [pc, #20]	; (8000f98 <DMA1_RS485_TransmitComplete+0x28>)
 8000f82:	2200      	movs	r2, #0
 8000f84:	2108      	movs	r1, #8
 8000f86:	0018      	movs	r0, r3
 8000f88:	f003 f886 	bl	8004098 <HAL_GPIO_WritePin>
}
 8000f8c:	46c0      	nop			; (mov r8, r8)
 8000f8e:	46bd      	mov	sp, r7
 8000f90:	bd80      	pop	{r7, pc}
 8000f92:	46c0      	nop			; (mov r8, r8)
 8000f94:	40013800 	.word	0x40013800
 8000f98:	50000400 	.word	0x50000400

08000f9c <Out485>:
void Out485(uint8_t *buf, uint16_t size)
{
 8000f9c:	b580      	push	{r7, lr}
 8000f9e:	b082      	sub	sp, #8
 8000fa0:	af00      	add	r7, sp, #0
 8000fa2:	6078      	str	r0, [r7, #4]
 8000fa4:	000a      	movs	r2, r1
 8000fa6:	1cbb      	adds	r3, r7, #2
 8000fa8:	801a      	strh	r2, [r3, #0]
	  HAL_GPIO_WritePin(STM_DIR_GPIO_Port,STM_DIR_Pin,GPIO_PIN_SET);
 8000faa:	4b08      	ldr	r3, [pc, #32]	; (8000fcc <Out485+0x30>)
 8000fac:	2201      	movs	r2, #1
 8000fae:	2108      	movs	r1, #8
 8000fb0:	0018      	movs	r0, r3
 8000fb2:	f003 f871 	bl	8004098 <HAL_GPIO_WritePin>
	  UART_TX((uint8_t *)buf,size);
 8000fb6:	1cbb      	adds	r3, r7, #2
 8000fb8:	881a      	ldrh	r2, [r3, #0]
 8000fba:	687b      	ldr	r3, [r7, #4]
 8000fbc:	0011      	movs	r1, r2
 8000fbe:	0018      	movs	r0, r3
 8000fc0:	f7ff ff32 	bl	8000e28 <UART_TX>
//	  HAL_UART_Transmit_DMA(&huart1,(uint8_t *)buf,size);
}
 8000fc4:	46c0      	nop			; (mov r8, r8)
 8000fc6:	46bd      	mov	sp, r7
 8000fc8:	b002      	add	sp, #8
 8000fca:	bd80      	pop	{r7, pc}
 8000fcc:	50000400 	.word	0x50000400

08000fd0 <MX_ADC_Init>:

ADC_HandleTypeDef hadc;

/* ADC init function */
void MX_ADC_Init(void)
{
 8000fd0:	b580      	push	{r7, lr}
 8000fd2:	b082      	sub	sp, #8
 8000fd4:	af00      	add	r7, sp, #0

  /* USER CODE BEGIN ADC_Init 0 */

  /* USER CODE END ADC_Init 0 */

  ADC_ChannelConfTypeDef sConfig = {0};
 8000fd6:	003b      	movs	r3, r7
 8000fd8:	0018      	movs	r0, r3
 8000fda:	2308      	movs	r3, #8
 8000fdc:	001a      	movs	r2, r3
 8000fde:	2100      	movs	r1, #0
 8000fe0:	f005 fbab 	bl	800673a <memset>
  /* USER CODE BEGIN ADC_Init 1 */

  /* USER CODE END ADC_Init 1 */
  /** Configure the global features of the ADC (Clock, Resolution, Data Alignment and number of conversion)
  */
  hadc.Instance = ADC1;
 8000fe4:	4b2a      	ldr	r3, [pc, #168]	; (8001090 <MX_ADC_Init+0xc0>)
 8000fe6:	4a2b      	ldr	r2, [pc, #172]	; (8001094 <MX_ADC_Init+0xc4>)
 8000fe8:	601a      	str	r2, [r3, #0]
  hadc.Init.OversamplingMode = DISABLE;
 8000fea:	4b29      	ldr	r3, [pc, #164]	; (8001090 <MX_ADC_Init+0xc0>)
 8000fec:	2200      	movs	r2, #0
 8000fee:	63da      	str	r2, [r3, #60]	; 0x3c
  hadc.Init.ClockPrescaler = ADC_CLOCK_SYNC_PCLK_DIV2;
 8000ff0:	4b27      	ldr	r3, [pc, #156]	; (8001090 <MX_ADC_Init+0xc0>)
 8000ff2:	2280      	movs	r2, #128	; 0x80
 8000ff4:	05d2      	lsls	r2, r2, #23
 8000ff6:	605a      	str	r2, [r3, #4]
  hadc.Init.Resolution = ADC_RESOLUTION_12B;
 8000ff8:	4b25      	ldr	r3, [pc, #148]	; (8001090 <MX_ADC_Init+0xc0>)
 8000ffa:	2200      	movs	r2, #0
 8000ffc:	609a      	str	r2, [r3, #8]
  hadc.Init.SamplingTime = ADC_SAMPLETIME_1CYCLE_5;
 8000ffe:	4b24      	ldr	r3, [pc, #144]	; (8001090 <MX_ADC_Init+0xc0>)
 8001000:	2200      	movs	r2, #0
 8001002:	639a      	str	r2, [r3, #56]	; 0x38
  hadc.Init.ScanConvMode = ADC_SCAN_DIRECTION_FORWARD;
 8001004:	4b22      	ldr	r3, [pc, #136]	; (8001090 <MX_ADC_Init+0xc0>)
 8001006:	2201      	movs	r2, #1
 8001008:	611a      	str	r2, [r3, #16]
  hadc.Init.DataAlign = ADC_DATAALIGN_RIGHT;
 800100a:	4b21      	ldr	r3, [pc, #132]	; (8001090 <MX_ADC_Init+0xc0>)
 800100c:	2200      	movs	r2, #0
 800100e:	60da      	str	r2, [r3, #12]
  hadc.Init.ContinuousConvMode = DISABLE;
 8001010:	4b1f      	ldr	r3, [pc, #124]	; (8001090 <MX_ADC_Init+0xc0>)
 8001012:	2220      	movs	r2, #32
 8001014:	2100      	movs	r1, #0
 8001016:	5499      	strb	r1, [r3, r2]
  hadc.Init.DiscontinuousConvMode = DISABLE;
 8001018:	4b1d      	ldr	r3, [pc, #116]	; (8001090 <MX_ADC_Init+0xc0>)
 800101a:	2221      	movs	r2, #33	; 0x21
 800101c:	2100      	movs	r1, #0
 800101e:	5499      	strb	r1, [r3, r2]
  hadc.Init.ExternalTrigConvEdge = ADC_EXTERNALTRIGCONVEDGE_NONE;
 8001020:	4b1b      	ldr	r3, [pc, #108]	; (8001090 <MX_ADC_Init+0xc0>)
 8001022:	2200      	movs	r2, #0
 8001024:	629a      	str	r2, [r3, #40]	; 0x28
  hadc.Init.ExternalTrigConv = ADC_SOFTWARE_START;
 8001026:	4b1a      	ldr	r3, [pc, #104]	; (8001090 <MX_ADC_Init+0xc0>)
 8001028:	22c2      	movs	r2, #194	; 0xc2
 800102a:	32ff      	adds	r2, #255	; 0xff
 800102c:	625a      	str	r2, [r3, #36]	; 0x24
  hadc.Init.DMAContinuousRequests = DISABLE;
 800102e:	4b18      	ldr	r3, [pc, #96]	; (8001090 <MX_ADC_Init+0xc0>)
 8001030:	222c      	movs	r2, #44	; 0x2c
 8001032:	2100      	movs	r1, #0
 8001034:	5499      	strb	r1, [r3, r2]
  hadc.Init.EOCSelection = ADC_EOC_SINGLE_CONV;
 8001036:	4b16      	ldr	r3, [pc, #88]	; (8001090 <MX_ADC_Init+0xc0>)
 8001038:	2204      	movs	r2, #4
 800103a:	615a      	str	r2, [r3, #20]
  hadc.Init.Overrun = ADC_OVR_DATA_PRESERVED;
 800103c:	4b14      	ldr	r3, [pc, #80]	; (8001090 <MX_ADC_Init+0xc0>)
 800103e:	2200      	movs	r2, #0
 8001040:	631a      	str	r2, [r3, #48]	; 0x30
  hadc.Init.LowPowerAutoWait = DISABLE;
 8001042:	4b13      	ldr	r3, [pc, #76]	; (8001090 <MX_ADC_Init+0xc0>)
 8001044:	2200      	movs	r2, #0
 8001046:	619a      	str	r2, [r3, #24]
  hadc.Init.LowPowerFrequencyMode = DISABLE;
 8001048:	4b11      	ldr	r3, [pc, #68]	; (8001090 <MX_ADC_Init+0xc0>)
 800104a:	2200      	movs	r2, #0
 800104c:	635a      	str	r2, [r3, #52]	; 0x34
  hadc.Init.LowPowerAutoPowerOff = DISABLE;
 800104e:	4b10      	ldr	r3, [pc, #64]	; (8001090 <MX_ADC_Init+0xc0>)
 8001050:	2200      	movs	r2, #0
 8001052:	61da      	str	r2, [r3, #28]
  if (HAL_ADC_Init(&hadc) != HAL_OK)
 8001054:	4b0e      	ldr	r3, [pc, #56]	; (8001090 <MX_ADC_Init+0xc0>)
 8001056:	0018      	movs	r0, r3
 8001058:	f002 fba8 	bl	80037ac <HAL_ADC_Init>
 800105c:	1e03      	subs	r3, r0, #0
 800105e:	d001      	beq.n	8001064 <MX_ADC_Init+0x94>
  {
    Error_Handler();
 8001060:	f001 f82a 	bl	80020b8 <Error_Handler>
  }
  /** Configure for the selected ADC regular channel to be converted.
  */
  sConfig.Channel = ADC_CHANNEL_0;
 8001064:	003b      	movs	r3, r7
 8001066:	2201      	movs	r2, #1
 8001068:	601a      	str	r2, [r3, #0]
  sConfig.Rank = ADC_RANK_CHANNEL_NUMBER;
 800106a:	003b      	movs	r3, r7
 800106c:	2280      	movs	r2, #128	; 0x80
 800106e:	0152      	lsls	r2, r2, #5
 8001070:	605a      	str	r2, [r3, #4]
  if (HAL_ADC_ConfigChannel(&hadc, &sConfig) != HAL_OK)
 8001072:	003a      	movs	r2, r7
 8001074:	4b06      	ldr	r3, [pc, #24]	; (8001090 <MX_ADC_Init+0xc0>)
 8001076:	0011      	movs	r1, r2
 8001078:	0018      	movs	r0, r3
 800107a:	f002 fd0b 	bl	8003a94 <HAL_ADC_ConfigChannel>
 800107e:	1e03      	subs	r3, r0, #0
 8001080:	d001      	beq.n	8001086 <MX_ADC_Init+0xb6>
  {
    Error_Handler();
 8001082:	f001 f819 	bl	80020b8 <Error_Handler>
  }
  /* USER CODE BEGIN ADC_Init 2 */

  /* USER CODE END ADC_Init 2 */

}
 8001086:	46c0      	nop			; (mov r8, r8)
 8001088:	46bd      	mov	sp, r7
 800108a:	b002      	add	sp, #8
 800108c:	bd80      	pop	{r7, pc}
 800108e:	46c0      	nop			; (mov r8, r8)
 8001090:	20000400 	.word	0x20000400
 8001094:	40012400 	.word	0x40012400

08001098 <HAL_ADC_MspInit>:

void HAL_ADC_MspInit(ADC_HandleTypeDef* adcHandle)
{
 8001098:	b590      	push	{r4, r7, lr}
 800109a:	b089      	sub	sp, #36	; 0x24
 800109c:	af00      	add	r7, sp, #0
 800109e:	6078      	str	r0, [r7, #4]

  GPIO_InitTypeDef GPIO_InitStruct = {0};
 80010a0:	240c      	movs	r4, #12
 80010a2:	193b      	adds	r3, r7, r4
 80010a4:	0018      	movs	r0, r3
 80010a6:	2314      	movs	r3, #20
 80010a8:	001a      	movs	r2, r3
 80010aa:	2100      	movs	r1, #0
 80010ac:	f005 fb45 	bl	800673a <memset>
  if(adcHandle->Instance==ADC1)
 80010b0:	687b      	ldr	r3, [r7, #4]
 80010b2:	681b      	ldr	r3, [r3, #0]
 80010b4:	4a14      	ldr	r2, [pc, #80]	; (8001108 <HAL_ADC_MspInit+0x70>)
 80010b6:	4293      	cmp	r3, r2
 80010b8:	d122      	bne.n	8001100 <HAL_ADC_MspInit+0x68>
  {
  /* USER CODE BEGIN ADC1_MspInit 0 */

  /* USER CODE END ADC1_MspInit 0 */
    /* ADC1 clock enable */
    __HAL_RCC_ADC1_CLK_ENABLE();
 80010ba:	4b14      	ldr	r3, [pc, #80]	; (800110c <HAL_ADC_MspInit+0x74>)
 80010bc:	6b5a      	ldr	r2, [r3, #52]	; 0x34
 80010be:	4b13      	ldr	r3, [pc, #76]	; (800110c <HAL_ADC_MspInit+0x74>)
 80010c0:	2180      	movs	r1, #128	; 0x80
 80010c2:	0089      	lsls	r1, r1, #2
 80010c4:	430a      	orrs	r2, r1
 80010c6:	635a      	str	r2, [r3, #52]	; 0x34

    __HAL_RCC_GPIOA_CLK_ENABLE();
 80010c8:	4b10      	ldr	r3, [pc, #64]	; (800110c <HAL_ADC_MspInit+0x74>)
 80010ca:	6ada      	ldr	r2, [r3, #44]	; 0x2c
 80010cc:	4b0f      	ldr	r3, [pc, #60]	; (800110c <HAL_ADC_MspInit+0x74>)
 80010ce:	2101      	movs	r1, #1
 80010d0:	430a      	orrs	r2, r1
 80010d2:	62da      	str	r2, [r3, #44]	; 0x2c
 80010d4:	4b0d      	ldr	r3, [pc, #52]	; (800110c <HAL_ADC_MspInit+0x74>)
 80010d6:	6adb      	ldr	r3, [r3, #44]	; 0x2c
 80010d8:	2201      	movs	r2, #1
 80010da:	4013      	ands	r3, r2
 80010dc:	60bb      	str	r3, [r7, #8]
 80010de:	68bb      	ldr	r3, [r7, #8]
    /**ADC GPIO Configuration
    PA0     ------> ADC_IN0
    */
    GPIO_InitStruct.Pin = ADC_Pin;
 80010e0:	193b      	adds	r3, r7, r4
 80010e2:	2201      	movs	r2, #1
 80010e4:	601a      	str	r2, [r3, #0]
    GPIO_InitStruct.Mode = GPIO_MODE_ANALOG;
 80010e6:	193b      	adds	r3, r7, r4
 80010e8:	2203      	movs	r2, #3
 80010ea:	605a      	str	r2, [r3, #4]
    GPIO_InitStruct.Pull = GPIO_NOPULL;
 80010ec:	193b      	adds	r3, r7, r4
 80010ee:	2200      	movs	r2, #0
 80010f0:	609a      	str	r2, [r3, #8]
    HAL_GPIO_Init(ADC_GPIO_Port, &GPIO_InitStruct);
 80010f2:	193a      	adds	r2, r7, r4
 80010f4:	23a0      	movs	r3, #160	; 0xa0
 80010f6:	05db      	lsls	r3, r3, #23
 80010f8:	0011      	movs	r1, r2
 80010fa:	0018      	movs	r0, r3
 80010fc:	f002 fe4e 	bl	8003d9c <HAL_GPIO_Init>

  /* USER CODE BEGIN ADC1_MspInit 1 */

  /* USER CODE END ADC1_MspInit 1 */
  }
}
 8001100:	46c0      	nop			; (mov r8, r8)
 8001102:	46bd      	mov	sp, r7
 8001104:	b009      	add	sp, #36	; 0x24
 8001106:	bd90      	pop	{r4, r7, pc}
 8001108:	40012400 	.word	0x40012400
 800110c:	40021000 	.word	0x40021000

08001110 <command_task>:
//#include <string.h>
//void Out485(uint8_t *buf, uint16_t size);
//------------------------------------------

void command_task(uint8_t *buf, uint8_t UART_SPI)
{
 8001110:	b590      	push	{r4, r7, lr}
 8001112:	b085      	sub	sp, #20
 8001114:	af00      	add	r7, sp, #0
 8001116:	6078      	str	r0, [r7, #4]
 8001118:	000a      	movs	r2, r1
 800111a:	1cfb      	adds	r3, r7, #3
 800111c:	701a      	strb	r2, [r3, #0]
	{// Check CRC16
		uint16_t crc16;

		crc16 = crc16Calculate(buf+2, buf[1]+2); // == 0 if OK
 800111e:	687b      	ldr	r3, [r7, #4]
 8001120:	1c9a      	adds	r2, r3, #2
 8001122:	687b      	ldr	r3, [r7, #4]
 8001124:	3301      	adds	r3, #1
 8001126:	781b      	ldrb	r3, [r3, #0]
 8001128:	b29b      	uxth	r3, r3
 800112a:	3302      	adds	r3, #2
 800112c:	b29b      	uxth	r3, r3
 800112e:	210e      	movs	r1, #14
 8001130:	187c      	adds	r4, r7, r1
 8001132:	0019      	movs	r1, r3
 8001134:	0010      	movs	r0, r2
 8001136:	f000 f827 	bl	8001188 <crc16Calculate>
 800113a:	0003      	movs	r3, r0
 800113c:	8023      	strh	r3, [r4, #0]
		//if(crc16) return;// crc != 0 ERROR
	    if(buf[2] != MYID) return;
 800113e:	687b      	ldr	r3, [r7, #4]
 8001140:	3302      	adds	r3, #2
 8001142:	781b      	ldrb	r3, [r3, #0]
 8001144:	2b31      	cmp	r3, #49	; 0x31
 8001146:	d11a      	bne.n	800117e <command_task+0x6e>
		{

//			developer(buf+3, buf[1] - 1); // Обработка принятой команды

// Подготовка ответа на команду и ответ
			if(UART_SPI == CMDUART)
 8001148:	1cfb      	adds	r3, r7, #3
 800114a:	781b      	ldrb	r3, [r3, #0]
 800114c:	2b00      	cmp	r3, #0
 800114e:	d10a      	bne.n	8001166 <command_task+0x56>
			{// Command from USART
				developerUSART(buf+3, buf[1] - 1);
 8001150:	687b      	ldr	r3, [r7, #4]
 8001152:	1cda      	adds	r2, r3, #3
 8001154:	687b      	ldr	r3, [r7, #4]
 8001156:	3301      	adds	r3, #1
 8001158:	781b      	ldrb	r3, [r3, #0]
 800115a:	3b01      	subs	r3, #1
 800115c:	0019      	movs	r1, r3
 800115e:	0010      	movs	r0, r2
 8001160:	f000 f852 	bl	8001208 <developerUSART>
 8001164:	e00c      	b.n	8001180 <command_task+0x70>
			}
			else
			{// Command from SPI
				developerSPI(buf+3, buf[1] - 1);
 8001166:	687b      	ldr	r3, [r7, #4]
 8001168:	1cda      	adds	r2, r3, #3
 800116a:	687b      	ldr	r3, [r7, #4]
 800116c:	3301      	adds	r3, #1
 800116e:	781b      	ldrb	r3, [r3, #0]
 8001170:	3b01      	subs	r3, #1
 8001172:	b2db      	uxtb	r3, r3
 8001174:	0019      	movs	r1, r3
 8001176:	0010      	movs	r0, r2
 8001178:	f000 f8d4 	bl	8001324 <developerSPI>
 800117c:	e000      	b.n	8001180 <command_task+0x70>
	    if(buf[2] != MYID) return;
 800117e:	46c0      	nop			; (mov r8, r8)
			}

		}

	}
}
 8001180:	46bd      	mov	sp, r7
 8001182:	b005      	add	sp, #20
 8001184:	bd90      	pop	{r4, r7, pc}
	...

08001188 <crc16Calculate>:
  0xEF1F, 0xFF3E, 0xCF5D, 0xDF7C, 0xAF9B, 0xBFBA, 0x8FD9, 0x9FF8,
  0x6E17, 0x7E36, 0x4E55, 0x5E74, 0x2E93, 0x3EB2, 0x0ED1, 0x1EF0
};

uint16_t crc16Calculate(uint8_t *data, uint16_t lenght)
{
 8001188:	b5b0      	push	{r4, r5, r7, lr}
 800118a:	b084      	sub	sp, #16
 800118c:	af00      	add	r7, sp, #0
 800118e:	6078      	str	r0, [r7, #4]
 8001190:	000a      	movs	r2, r1
 8001192:	1cbb      	adds	r3, r7, #2
 8001194:	801a      	strh	r2, [r3, #0]
  uint16_t crc = 0xFFFF;
 8001196:	230e      	movs	r3, #14
 8001198:	18fb      	adds	r3, r7, r3
 800119a:	2201      	movs	r2, #1
 800119c:	4252      	negs	r2, r2
 800119e:	801a      	strh	r2, [r3, #0]
  for(uint16_t i = 0; i < lenght; i++)
 80011a0:	230c      	movs	r3, #12
 80011a2:	18fb      	adds	r3, r7, r3
 80011a4:	2200      	movs	r2, #0
 80011a6:	801a      	strh	r2, [r3, #0]
 80011a8:	e01e      	b.n	80011e8 <crc16Calculate+0x60>
  {
    crc = (crc << 8) ^ crc16Table[(crc >> 8) ^ data[i]];
 80011aa:	240e      	movs	r4, #14
 80011ac:	193b      	adds	r3, r7, r4
 80011ae:	881b      	ldrh	r3, [r3, #0]
 80011b0:	021b      	lsls	r3, r3, #8
 80011b2:	b21a      	sxth	r2, r3
 80011b4:	193b      	adds	r3, r7, r4
 80011b6:	881b      	ldrh	r3, [r3, #0]
 80011b8:	0a1b      	lsrs	r3, r3, #8
 80011ba:	b29b      	uxth	r3, r3
 80011bc:	0018      	movs	r0, r3
 80011be:	250c      	movs	r5, #12
 80011c0:	197b      	adds	r3, r7, r5
 80011c2:	881b      	ldrh	r3, [r3, #0]
 80011c4:	6879      	ldr	r1, [r7, #4]
 80011c6:	18cb      	adds	r3, r1, r3
 80011c8:	781b      	ldrb	r3, [r3, #0]
 80011ca:	0001      	movs	r1, r0
 80011cc:	4059      	eors	r1, r3
 80011ce:	4b0d      	ldr	r3, [pc, #52]	; (8001204 <crc16Calculate+0x7c>)
 80011d0:	0049      	lsls	r1, r1, #1
 80011d2:	5acb      	ldrh	r3, [r1, r3]
 80011d4:	b21b      	sxth	r3, r3
 80011d6:	4053      	eors	r3, r2
 80011d8:	b21a      	sxth	r2, r3
 80011da:	193b      	adds	r3, r7, r4
 80011dc:	801a      	strh	r2, [r3, #0]
  for(uint16_t i = 0; i < lenght; i++)
 80011de:	197b      	adds	r3, r7, r5
 80011e0:	881a      	ldrh	r2, [r3, #0]
 80011e2:	197b      	adds	r3, r7, r5
 80011e4:	3201      	adds	r2, #1
 80011e6:	801a      	strh	r2, [r3, #0]
 80011e8:	230c      	movs	r3, #12
 80011ea:	18fa      	adds	r2, r7, r3
 80011ec:	1cbb      	adds	r3, r7, #2
 80011ee:	8812      	ldrh	r2, [r2, #0]
 80011f0:	881b      	ldrh	r3, [r3, #0]
 80011f2:	429a      	cmp	r2, r3
 80011f4:	d3d9      	bcc.n	80011aa <crc16Calculate+0x22>
  }
  return crc;
 80011f6:	230e      	movs	r3, #14
 80011f8:	18fb      	adds	r3, r7, r3
 80011fa:	881b      	ldrh	r3, [r3, #0]

}
 80011fc:	0018      	movs	r0, r3
 80011fe:	46bd      	mov	sp, r7
 8001200:	b004      	add	sp, #16
 8001202:	bdb0      	pop	{r4, r5, r7, pc}
 8001204:	08006fb4 	.word	0x08006fb4

08001208 <developerUSART>:



}
void developerUSART(uint8_t *buf, int len)
{
 8001208:	b5f0      	push	{r4, r5, r6, r7, lr}
 800120a:	b085      	sub	sp, #20
 800120c:	af00      	add	r7, sp, #0
 800120e:	6078      	str	r0, [r7, #4]
 8001210:	6039      	str	r1, [r7, #0]
//	memcpy(bbuf,buf,len);
//	Out485(bbuf, len);
	uint8_t out_len;
	uint16_t crc16;

	bbuf[0] = MARKER;
 8001212:	4b40      	ldr	r3, [pc, #256]	; (8001314 <developerUSART+0x10c>)
 8001214:	22c0      	movs	r2, #192	; 0xc0
 8001216:	701a      	strb	r2, [r3, #0]
	bbuf[2] = MYID;
 8001218:	4b3e      	ldr	r3, [pc, #248]	; (8001314 <developerUSART+0x10c>)
 800121a:	2231      	movs	r2, #49	; 0x31
 800121c:	709a      	strb	r2, [r3, #2]

	switch(buf[0])
 800121e:	687b      	ldr	r3, [r7, #4]
 8001220:	781b      	ldrb	r3, [r3, #0]
 8001222:	2b01      	cmp	r3, #1
 8001224:	d002      	beq.n	800122c <developerUSART+0x24>
 8001226:	2b02      	cmp	r3, #2
 8001228:	d04c      	beq.n	80012c4 <developerUSART+0xbc>
 800122a:	e06f      	b.n	800130c <developerUSART+0x104>
	{
	case READ_REGISTER:
		out_len = buf[COINT_REGISTER]*2;
 800122c:	687b      	ldr	r3, [r7, #4]
 800122e:	3302      	adds	r3, #2
 8001230:	781b      	ldrb	r3, [r3, #0]
 8001232:	240f      	movs	r4, #15
 8001234:	193a      	adds	r2, r7, r4
 8001236:	18db      	adds	r3, r3, r3
 8001238:	7013      	strb	r3, [r2, #0]
		bbuf[1] = out_len + 1;
 800123a:	193b      	adds	r3, r7, r4
 800123c:	781b      	ldrb	r3, [r3, #0]
 800123e:	3301      	adds	r3, #1
 8001240:	b2da      	uxtb	r2, r3
 8001242:	4b34      	ldr	r3, [pc, #208]	; (8001314 <developerUSART+0x10c>)
 8001244:	705a      	strb	r2, [r3, #1]
		if((buf[COINT_REGISTER] + buf[FIRST_REGISTER]) > DATA_SIZE) return;
 8001246:	687b      	ldr	r3, [r7, #4]
 8001248:	3302      	adds	r3, #2
 800124a:	781b      	ldrb	r3, [r3, #0]
 800124c:	001a      	movs	r2, r3
 800124e:	687b      	ldr	r3, [r7, #4]
 8001250:	3301      	adds	r3, #1
 8001252:	781b      	ldrb	r3, [r3, #0]
 8001254:	18d3      	adds	r3, r2, r3
 8001256:	2b18      	cmp	r3, #24
 8001258:	dc55      	bgt.n	8001306 <developerUSART+0xfe>
		memcpy(bbuf+3,ramRomData+buf[FIRST_REGISTER],out_len);
 800125a:	482f      	ldr	r0, [pc, #188]	; (8001318 <developerUSART+0x110>)
 800125c:	687b      	ldr	r3, [r7, #4]
 800125e:	3301      	adds	r3, #1
 8001260:	781b      	ldrb	r3, [r3, #0]
 8001262:	005a      	lsls	r2, r3, #1
 8001264:	4b2d      	ldr	r3, [pc, #180]	; (800131c <developerUSART+0x114>)
 8001266:	18d1      	adds	r1, r2, r3
 8001268:	0025      	movs	r5, r4
 800126a:	193b      	adds	r3, r7, r4
 800126c:	781b      	ldrb	r3, [r3, #0]
 800126e:	001a      	movs	r2, r3
 8001270:	f005 fa5a 	bl	8006728 <memcpy>
		crc16 = crc16Calculate(bbuf+2, bbuf[1]);
 8001274:	4a2a      	ldr	r2, [pc, #168]	; (8001320 <developerUSART+0x118>)
 8001276:	4b27      	ldr	r3, [pc, #156]	; (8001314 <developerUSART+0x10c>)
 8001278:	785b      	ldrb	r3, [r3, #1]
 800127a:	b29b      	uxth	r3, r3
 800127c:	260c      	movs	r6, #12
 800127e:	19bc      	adds	r4, r7, r6
 8001280:	0019      	movs	r1, r3
 8001282:	0010      	movs	r0, r2
 8001284:	f7ff ff80 	bl	8001188 <crc16Calculate>
 8001288:	0003      	movs	r3, r0
 800128a:	8023      	strh	r3, [r4, #0]
		bbuf[out_len + 3] = crc16 >> 8;
 800128c:	0030      	movs	r0, r6
 800128e:	183b      	adds	r3, r7, r0
 8001290:	881b      	ldrh	r3, [r3, #0]
 8001292:	0a1b      	lsrs	r3, r3, #8
 8001294:	b29a      	uxth	r2, r3
 8001296:	197b      	adds	r3, r7, r5
 8001298:	781b      	ldrb	r3, [r3, #0]
 800129a:	3303      	adds	r3, #3
 800129c:	b2d1      	uxtb	r1, r2
 800129e:	4a1d      	ldr	r2, [pc, #116]	; (8001314 <developerUSART+0x10c>)
 80012a0:	54d1      	strb	r1, [r2, r3]
		bbuf[out_len + 4] = crc16;
 80012a2:	197b      	adds	r3, r7, r5
 80012a4:	781b      	ldrb	r3, [r3, #0]
 80012a6:	3304      	adds	r3, #4
 80012a8:	183a      	adds	r2, r7, r0
 80012aa:	8812      	ldrh	r2, [r2, #0]
 80012ac:	b2d1      	uxtb	r1, r2
 80012ae:	4a19      	ldr	r2, [pc, #100]	; (8001314 <developerUSART+0x10c>)
 80012b0:	54d1      	strb	r1, [r2, r3]
		Out485(bbuf, out_len+5);
 80012b2:	197b      	adds	r3, r7, r5
 80012b4:	781b      	ldrb	r3, [r3, #0]
 80012b6:	1d5a      	adds	r2, r3, #5
 80012b8:	4b16      	ldr	r3, [pc, #88]	; (8001314 <developerUSART+0x10c>)
 80012ba:	0011      	movs	r1, r2
 80012bc:	0018      	movs	r0, r3
 80012be:	f7ff fe6d 	bl	8000f9c <Out485>
		break;
 80012c2:	e023      	b.n	800130c <developerUSART+0x104>

	case WRITE_REGISTER:
		if((buf[COINT_REGISTER] + buf[FIRST_REGISTER]) >= RW_DATA_SIZE) return;
 80012c4:	687b      	ldr	r3, [r7, #4]
 80012c6:	3302      	adds	r3, #2
 80012c8:	781b      	ldrb	r3, [r3, #0]
 80012ca:	001a      	movs	r2, r3
 80012cc:	687b      	ldr	r3, [r7, #4]
 80012ce:	3301      	adds	r3, #1
 80012d0:	781b      	ldrb	r3, [r3, #0]
 80012d2:	18d3      	adds	r3, r2, r3
 80012d4:	2b04      	cmp	r3, #4
 80012d6:	dc18      	bgt.n	800130a <developerUSART+0x102>
		out_len = buf[COINT_REGISTER]*2;
 80012d8:	687b      	ldr	r3, [r7, #4]
 80012da:	3302      	adds	r3, #2
 80012dc:	781b      	ldrb	r3, [r3, #0]
 80012de:	240f      	movs	r4, #15
 80012e0:	193a      	adds	r2, r7, r4
 80012e2:	18db      	adds	r3, r3, r3
 80012e4:	7013      	strb	r3, [r2, #0]
		memcpy(ramRomData+buf[FIRST_REGISTER],buf+3,out_len);
 80012e6:	687b      	ldr	r3, [r7, #4]
 80012e8:	3301      	adds	r3, #1
 80012ea:	781b      	ldrb	r3, [r3, #0]
 80012ec:	005a      	lsls	r2, r3, #1
 80012ee:	4b0b      	ldr	r3, [pc, #44]	; (800131c <developerUSART+0x114>)
 80012f0:	18d0      	adds	r0, r2, r3
 80012f2:	687b      	ldr	r3, [r7, #4]
 80012f4:	1cd9      	adds	r1, r3, #3
 80012f6:	193b      	adds	r3, r7, r4
 80012f8:	781b      	ldrb	r3, [r3, #0]
 80012fa:	001a      	movs	r2, r3
 80012fc:	f005 fa14 	bl	8006728 <memcpy>
		mode_task();
 8001300:	f000 fbbe 	bl	8001a80 <mode_task>

		break;
 8001304:	e002      	b.n	800130c <developerUSART+0x104>
		if((buf[COINT_REGISTER] + buf[FIRST_REGISTER]) > DATA_SIZE) return;
 8001306:	46c0      	nop			; (mov r8, r8)
 8001308:	e000      	b.n	800130c <developerUSART+0x104>
		if((buf[COINT_REGISTER] + buf[FIRST_REGISTER]) >= RW_DATA_SIZE) return;
 800130a:	46c0      	nop			; (mov r8, r8)

	}

}
 800130c:	46bd      	mov	sp, r7
 800130e:	b005      	add	sp, #20
 8001310:	bdf0      	pop	{r4, r5, r6, r7, pc}
 8001312:	46c0      	nop			; (mov r8, r8)
 8001314:	20000090 	.word	0x20000090
 8001318:	20000093 	.word	0x20000093
 800131c:	20000674 	.word	0x20000674
 8001320:	20000092 	.word	0x20000092

08001324 <developerSPI>:
//-------------------------------------------------
void developerSPI(uint8_t *buf, uint8_t len)
{
 8001324:	b580      	push	{r7, lr}
 8001326:	b082      	sub	sp, #8
 8001328:	af00      	add	r7, sp, #0
 800132a:	6078      	str	r0, [r7, #4]
 800132c:	000a      	movs	r2, r1
 800132e:	1cfb      	adds	r3, r7, #3
 8001330:	701a      	strb	r2, [r3, #0]

}
 8001332:	46c0      	nop			; (mov r8, r8)
 8001334:	46bd      	mov	sp, r7
 8001336:	b002      	add	sp, #8
 8001338:	bd80      	pop	{r7, pc}
	...

0800133c <__NVIC_EnableIRQ>:
  \details Enables a device specific interrupt in the NVIC interrupt controller.
  \param [in]      IRQn  Device specific interrupt number.
  \note    IRQn must not be negative.
 */
__STATIC_INLINE void __NVIC_EnableIRQ(IRQn_Type IRQn)
{
 800133c:	b580      	push	{r7, lr}
 800133e:	b082      	sub	sp, #8
 8001340:	af00      	add	r7, sp, #0
 8001342:	0002      	movs	r2, r0
 8001344:	1dfb      	adds	r3, r7, #7
 8001346:	701a      	strb	r2, [r3, #0]
  if ((int32_t)(IRQn) >= 0)
 8001348:	1dfb      	adds	r3, r7, #7
 800134a:	781b      	ldrb	r3, [r3, #0]
 800134c:	2b7f      	cmp	r3, #127	; 0x7f
 800134e:	d809      	bhi.n	8001364 <__NVIC_EnableIRQ+0x28>
  {
    NVIC->ISER[0U] = (uint32_t)(1UL << (((uint32_t)IRQn) & 0x1FUL));
 8001350:	1dfb      	adds	r3, r7, #7
 8001352:	781b      	ldrb	r3, [r3, #0]
 8001354:	001a      	movs	r2, r3
 8001356:	231f      	movs	r3, #31
 8001358:	401a      	ands	r2, r3
 800135a:	4b04      	ldr	r3, [pc, #16]	; (800136c <__NVIC_EnableIRQ+0x30>)
 800135c:	2101      	movs	r1, #1
 800135e:	4091      	lsls	r1, r2
 8001360:	000a      	movs	r2, r1
 8001362:	601a      	str	r2, [r3, #0]
  }
}
 8001364:	46c0      	nop			; (mov r8, r8)
 8001366:	46bd      	mov	sp, r7
 8001368:	b002      	add	sp, #8
 800136a:	bd80      	pop	{r7, pc}
 800136c:	e000e100 	.word	0xe000e100

08001370 <__NVIC_SetPriority>:
  \param [in]      IRQn  Interrupt number.
  \param [in]  priority  Priority to set.
  \note    The priority cannot be set for every processor exception.
 */
__STATIC_INLINE void __NVIC_SetPriority(IRQn_Type IRQn, uint32_t priority)
{
 8001370:	b590      	push	{r4, r7, lr}
 8001372:	b083      	sub	sp, #12
 8001374:	af00      	add	r7, sp, #0
 8001376:	0002      	movs	r2, r0
 8001378:	6039      	str	r1, [r7, #0]
 800137a:	1dfb      	adds	r3, r7, #7
 800137c:	701a      	strb	r2, [r3, #0]
  if ((int32_t)(IRQn) >= 0)
 800137e:	1dfb      	adds	r3, r7, #7
 8001380:	781b      	ldrb	r3, [r3, #0]
 8001382:	2b7f      	cmp	r3, #127	; 0x7f
 8001384:	d828      	bhi.n	80013d8 <__NVIC_SetPriority+0x68>
  {
    NVIC->IP[_IP_IDX(IRQn)]  = ((uint32_t)(NVIC->IP[_IP_IDX(IRQn)]  & ~(0xFFUL << _BIT_SHIFT(IRQn))) |
 8001386:	4a2f      	ldr	r2, [pc, #188]	; (8001444 <__NVIC_SetPriority+0xd4>)
 8001388:	1dfb      	adds	r3, r7, #7
 800138a:	781b      	ldrb	r3, [r3, #0]
 800138c:	b25b      	sxtb	r3, r3
 800138e:	089b      	lsrs	r3, r3, #2
 8001390:	33c0      	adds	r3, #192	; 0xc0
 8001392:	009b      	lsls	r3, r3, #2
 8001394:	589b      	ldr	r3, [r3, r2]
 8001396:	1dfa      	adds	r2, r7, #7
 8001398:	7812      	ldrb	r2, [r2, #0]
 800139a:	0011      	movs	r1, r2
 800139c:	2203      	movs	r2, #3
 800139e:	400a      	ands	r2, r1
 80013a0:	00d2      	lsls	r2, r2, #3
 80013a2:	21ff      	movs	r1, #255	; 0xff
 80013a4:	4091      	lsls	r1, r2
 80013a6:	000a      	movs	r2, r1
 80013a8:	43d2      	mvns	r2, r2
 80013aa:	401a      	ands	r2, r3
 80013ac:	0011      	movs	r1, r2
       (((priority << (8U - __NVIC_PRIO_BITS)) & (uint32_t)0xFFUL) << _BIT_SHIFT(IRQn)));
 80013ae:	683b      	ldr	r3, [r7, #0]
 80013b0:	019b      	lsls	r3, r3, #6
 80013b2:	22ff      	movs	r2, #255	; 0xff
 80013b4:	401a      	ands	r2, r3
 80013b6:	1dfb      	adds	r3, r7, #7
 80013b8:	781b      	ldrb	r3, [r3, #0]
 80013ba:	0018      	movs	r0, r3
 80013bc:	2303      	movs	r3, #3
 80013be:	4003      	ands	r3, r0
 80013c0:	00db      	lsls	r3, r3, #3
 80013c2:	409a      	lsls	r2, r3
    NVIC->IP[_IP_IDX(IRQn)]  = ((uint32_t)(NVIC->IP[_IP_IDX(IRQn)]  & ~(0xFFUL << _BIT_SHIFT(IRQn))) |
 80013c4:	481f      	ldr	r0, [pc, #124]	; (8001444 <__NVIC_SetPriority+0xd4>)
 80013c6:	1dfb      	adds	r3, r7, #7
 80013c8:	781b      	ldrb	r3, [r3, #0]
 80013ca:	b25b      	sxtb	r3, r3
 80013cc:	089b      	lsrs	r3, r3, #2
 80013ce:	430a      	orrs	r2, r1
 80013d0:	33c0      	adds	r3, #192	; 0xc0
 80013d2:	009b      	lsls	r3, r3, #2
 80013d4:	501a      	str	r2, [r3, r0]
  else
  {
    SCB->SHP[_SHP_IDX(IRQn)] = ((uint32_t)(SCB->SHP[_SHP_IDX(IRQn)] & ~(0xFFUL << _BIT_SHIFT(IRQn))) |
       (((priority << (8U - __NVIC_PRIO_BITS)) & (uint32_t)0xFFUL) << _BIT_SHIFT(IRQn)));
  }
}
 80013d6:	e031      	b.n	800143c <__NVIC_SetPriority+0xcc>
    SCB->SHP[_SHP_IDX(IRQn)] = ((uint32_t)(SCB->SHP[_SHP_IDX(IRQn)] & ~(0xFFUL << _BIT_SHIFT(IRQn))) |
 80013d8:	4a1b      	ldr	r2, [pc, #108]	; (8001448 <__NVIC_SetPriority+0xd8>)
 80013da:	1dfb      	adds	r3, r7, #7
 80013dc:	781b      	ldrb	r3, [r3, #0]
 80013de:	0019      	movs	r1, r3
 80013e0:	230f      	movs	r3, #15
 80013e2:	400b      	ands	r3, r1
 80013e4:	3b08      	subs	r3, #8
 80013e6:	089b      	lsrs	r3, r3, #2
 80013e8:	3306      	adds	r3, #6
 80013ea:	009b      	lsls	r3, r3, #2
 80013ec:	18d3      	adds	r3, r2, r3
 80013ee:	3304      	adds	r3, #4
 80013f0:	681b      	ldr	r3, [r3, #0]
 80013f2:	1dfa      	adds	r2, r7, #7
 80013f4:	7812      	ldrb	r2, [r2, #0]
 80013f6:	0011      	movs	r1, r2
 80013f8:	2203      	movs	r2, #3
 80013fa:	400a      	ands	r2, r1
 80013fc:	00d2      	lsls	r2, r2, #3
 80013fe:	21ff      	movs	r1, #255	; 0xff
 8001400:	4091      	lsls	r1, r2
 8001402:	000a      	movs	r2, r1
 8001404:	43d2      	mvns	r2, r2
 8001406:	401a      	ands	r2, r3
 8001408:	0011      	movs	r1, r2
       (((priority << (8U - __NVIC_PRIO_BITS)) & (uint32_t)0xFFUL) << _BIT_SHIFT(IRQn)));
 800140a:	683b      	ldr	r3, [r7, #0]
 800140c:	019b      	lsls	r3, r3, #6
 800140e:	22ff      	movs	r2, #255	; 0xff
 8001410:	401a      	ands	r2, r3
 8001412:	1dfb      	adds	r3, r7, #7
 8001414:	781b      	ldrb	r3, [r3, #0]
 8001416:	0018      	movs	r0, r3
 8001418:	2303      	movs	r3, #3
 800141a:	4003      	ands	r3, r0
 800141c:	00db      	lsls	r3, r3, #3
 800141e:	409a      	lsls	r2, r3
    SCB->SHP[_SHP_IDX(IRQn)] = ((uint32_t)(SCB->SHP[_SHP_IDX(IRQn)] & ~(0xFFUL << _BIT_SHIFT(IRQn))) |
 8001420:	4809      	ldr	r0, [pc, #36]	; (8001448 <__NVIC_SetPriority+0xd8>)
 8001422:	1dfb      	adds	r3, r7, #7
 8001424:	781b      	ldrb	r3, [r3, #0]
 8001426:	001c      	movs	r4, r3
 8001428:	230f      	movs	r3, #15
 800142a:	4023      	ands	r3, r4
 800142c:	3b08      	subs	r3, #8
 800142e:	089b      	lsrs	r3, r3, #2
 8001430:	430a      	orrs	r2, r1
 8001432:	3306      	adds	r3, #6
 8001434:	009b      	lsls	r3, r3, #2
 8001436:	18c3      	adds	r3, r0, r3
 8001438:	3304      	adds	r3, #4
 800143a:	601a      	str	r2, [r3, #0]
}
 800143c:	46c0      	nop			; (mov r8, r8)
 800143e:	46bd      	mov	sp, r7
 8001440:	b003      	add	sp, #12
 8001442:	bd90      	pop	{r4, r7, pc}
 8001444:	e000e100 	.word	0xe000e100
 8001448:	e000ed00 	.word	0xe000ed00

0800144c <LL_AHB1_GRP1_EnableClock>:
  *
  *         (*) value not defined in all devices.
  * @retval None
*/
__STATIC_INLINE void LL_AHB1_GRP1_EnableClock(uint32_t Periphs)
{
 800144c:	b580      	push	{r7, lr}
 800144e:	b084      	sub	sp, #16
 8001450:	af00      	add	r7, sp, #0
 8001452:	6078      	str	r0, [r7, #4]
  __IO uint32_t tmpreg;
  SET_BIT(RCC->AHBENR, Periphs);
 8001454:	4b07      	ldr	r3, [pc, #28]	; (8001474 <LL_AHB1_GRP1_EnableClock+0x28>)
 8001456:	6b19      	ldr	r1, [r3, #48]	; 0x30
 8001458:	4b06      	ldr	r3, [pc, #24]	; (8001474 <LL_AHB1_GRP1_EnableClock+0x28>)
 800145a:	687a      	ldr	r2, [r7, #4]
 800145c:	430a      	orrs	r2, r1
 800145e:	631a      	str	r2, [r3, #48]	; 0x30
  /* Delay after an RCC peripheral clock enabling */
  tmpreg = READ_BIT(RCC->AHBENR, Periphs);
 8001460:	4b04      	ldr	r3, [pc, #16]	; (8001474 <LL_AHB1_GRP1_EnableClock+0x28>)
 8001462:	6b1b      	ldr	r3, [r3, #48]	; 0x30
 8001464:	687a      	ldr	r2, [r7, #4]
 8001466:	4013      	ands	r3, r2
 8001468:	60fb      	str	r3, [r7, #12]
  (void)tmpreg;
 800146a:	68fb      	ldr	r3, [r7, #12]
}
 800146c:	46c0      	nop			; (mov r8, r8)
 800146e:	46bd      	mov	sp, r7
 8001470:	b004      	add	sp, #16
 8001472:	bd80      	pop	{r7, pc}
 8001474:	40021000 	.word	0x40021000

08001478 <MX_DMA_Init>:

/**
  * Enable DMA controller clock
  */
void MX_DMA_Init(void)
{
 8001478:	b580      	push	{r7, lr}
 800147a:	af00      	add	r7, sp, #0

  /* Init with LL driver */
  /* DMA controller clock enable */
  LL_AHB1_GRP1_EnableClock(LL_AHB1_GRP1_PERIPH_DMA1);
 800147c:	2001      	movs	r0, #1
 800147e:	f7ff ffe5 	bl	800144c <LL_AHB1_GRP1_EnableClock>

  /* DMA interrupt init */
  /* DMA1_Channel2_3_IRQn interrupt configuration */
  NVIC_SetPriority(DMA1_Channel2_3_IRQn, 0);
 8001482:	2100      	movs	r1, #0
 8001484:	200a      	movs	r0, #10
 8001486:	f7ff ff73 	bl	8001370 <__NVIC_SetPriority>
  NVIC_EnableIRQ(DMA1_Channel2_3_IRQn);
 800148a:	200a      	movs	r0, #10
 800148c:	f7ff ff56 	bl	800133c <__NVIC_EnableIRQ>
  /* DMA1_Channel4_5_6_7_IRQn interrupt configuration */
  NVIC_SetPriority(DMA1_Channel4_5_6_7_IRQn, 0);
 8001490:	2100      	movs	r1, #0
 8001492:	200b      	movs	r0, #11
 8001494:	f7ff ff6c 	bl	8001370 <__NVIC_SetPriority>
  NVIC_EnableIRQ(DMA1_Channel4_5_6_7_IRQn);
 8001498:	200b      	movs	r0, #11
 800149a:	f7ff ff4f 	bl	800133c <__NVIC_EnableIRQ>

}
 800149e:	46c0      	nop			; (mov r8, r8)
 80014a0:	46bd      	mov	sp, r7
 80014a2:	bd80      	pop	{r7, pc}

080014a4 <drive_init>:
//PidData_t pid1, pid2, pid3, pid4;

PidData_t pid1, pid2, pid3, pid4;

void drive_init(void)
{
 80014a4:	b580      	push	{r7, lr}
 80014a6:	af00      	add	r7, sp, #0

	ramRomData[PID_P] = DEFAULT_PID_P;
 80014a8:	4b13      	ldr	r3, [pc, #76]	; (80014f8 <drive_init+0x54>)
 80014aa:	2214      	movs	r2, #20
 80014ac:	815a      	strh	r2, [r3, #10]
	ramRomData[PID_I] = DEFAULT_PID_I;
 80014ae:	4b12      	ldr	r3, [pc, #72]	; (80014f8 <drive_init+0x54>)
 80014b0:	2203      	movs	r2, #3
 80014b2:	819a      	strh	r2, [r3, #12]
	ramRomData[PID_D] = DEFAULT_PID_D;
 80014b4:	4b10      	ldr	r3, [pc, #64]	; (80014f8 <drive_init+0x54>)
 80014b6:	2200      	movs	r2, #0
 80014b8:	81da      	strh	r2, [r3, #14]


	ramRomData[MOTOR_MODE] = 0;
 80014ba:	4b0f      	ldr	r3, [pc, #60]	; (80014f8 <drive_init+0x54>)
 80014bc:	2200      	movs	r2, #0
 80014be:	801a      	strh	r2, [r3, #0]
	ramRomData[M1_POWER] = 0;
 80014c0:	4b0d      	ldr	r3, [pc, #52]	; (80014f8 <drive_init+0x54>)
 80014c2:	2200      	movs	r2, #0
 80014c4:	831a      	strh	r2, [r3, #24]
	ramRomData[M2_POWER] = 0;
 80014c6:	4b0c      	ldr	r3, [pc, #48]	; (80014f8 <drive_init+0x54>)
 80014c8:	2200      	movs	r2, #0
 80014ca:	835a      	strh	r2, [r3, #26]
	ramRomData[M3_POWER] = 0;
 80014cc:	4b0a      	ldr	r3, [pc, #40]	; (80014f8 <drive_init+0x54>)
 80014ce:	2200      	movs	r2, #0
 80014d0:	839a      	strh	r2, [r3, #28]
	ramRomData[M4_POWER] = 0;
 80014d2:	4b09      	ldr	r3, [pc, #36]	; (80014f8 <drive_init+0x54>)
 80014d4:	2200      	movs	r2, #0
 80014d6:	83da      	strh	r2, [r3, #30]

	ramRomData[M1_GOAL_SPEED] = 0;
 80014d8:	4b07      	ldr	r3, [pc, #28]	; (80014f8 <drive_init+0x54>)
 80014da:	2200      	movs	r2, #0
 80014dc:	805a      	strh	r2, [r3, #2]
	ramRomData[M2_GOAL_SPEED] = 0;
 80014de:	4b06      	ldr	r3, [pc, #24]	; (80014f8 <drive_init+0x54>)
 80014e0:	2200      	movs	r2, #0
 80014e2:	809a      	strh	r2, [r3, #4]
	ramRomData[M3_GOAL_SPEED] = 0;
 80014e4:	4b04      	ldr	r3, [pc, #16]	; (80014f8 <drive_init+0x54>)
 80014e6:	2200      	movs	r2, #0
 80014e8:	80da      	strh	r2, [r3, #6]
	ramRomData[M4_GOAL_SPEED] = 0;
 80014ea:	4b03      	ldr	r3, [pc, #12]	; (80014f8 <drive_init+0x54>)
 80014ec:	2200      	movs	r2, #0
 80014ee:	811a      	strh	r2, [r3, #8]
}
 80014f0:	46c0      	nop			; (mov r8, r8)
 80014f2:	46bd      	mov	sp, r7
 80014f4:	bd80      	pop	{r7, pc}
 80014f6:	46c0      	nop			; (mov r8, r8)
 80014f8:	20000674 	.word	0x20000674

080014fc <speed_to_sec>:

void speed_to_sec(void)
{
 80014fc:	b580      	push	{r7, lr}
 80014fe:	b086      	sub	sp, #24
 8001500:	af00      	add	r7, sp, #0
	int32_t result_speed1=0, result_speed2=0, result_speed3=0, result_speed4 = 0;
 8001502:	2300      	movs	r3, #0
 8001504:	617b      	str	r3, [r7, #20]
 8001506:	2300      	movs	r3, #0
 8001508:	613b      	str	r3, [r7, #16]
 800150a:	2300      	movs	r3, #0
 800150c:	60fb      	str	r3, [r7, #12]
 800150e:	2300      	movs	r3, #0
 8001510:	60bb      	str	r3, [r7, #8]
	for (int i = 0; i < 100; i++)
 8001512:	2300      	movs	r3, #0
 8001514:	607b      	str	r3, [r7, #4]
 8001516:	e022      	b.n	800155e <speed_to_sec+0x62>
	{
		result_speed1 += M1_buf_summ_speed[i];
 8001518:	4b24      	ldr	r3, [pc, #144]	; (80015ac <speed_to_sec+0xb0>)
 800151a:	687a      	ldr	r2, [r7, #4]
 800151c:	0052      	lsls	r2, r2, #1
 800151e:	5ed3      	ldrsh	r3, [r2, r3]
 8001520:	001a      	movs	r2, r3
 8001522:	697b      	ldr	r3, [r7, #20]
 8001524:	189b      	adds	r3, r3, r2
 8001526:	617b      	str	r3, [r7, #20]
		result_speed2 += M2_buf_summ_speed[i];
 8001528:	4b21      	ldr	r3, [pc, #132]	; (80015b0 <speed_to_sec+0xb4>)
 800152a:	687a      	ldr	r2, [r7, #4]
 800152c:	0052      	lsls	r2, r2, #1
 800152e:	5ed3      	ldrsh	r3, [r2, r3]
 8001530:	001a      	movs	r2, r3
 8001532:	693b      	ldr	r3, [r7, #16]
 8001534:	189b      	adds	r3, r3, r2
 8001536:	613b      	str	r3, [r7, #16]
		result_speed3 += M3_buf_summ_speed[i];
 8001538:	4b1e      	ldr	r3, [pc, #120]	; (80015b4 <speed_to_sec+0xb8>)
 800153a:	687a      	ldr	r2, [r7, #4]
 800153c:	0052      	lsls	r2, r2, #1
 800153e:	5ed3      	ldrsh	r3, [r2, r3]
 8001540:	001a      	movs	r2, r3
 8001542:	68fb      	ldr	r3, [r7, #12]
 8001544:	189b      	adds	r3, r3, r2
 8001546:	60fb      	str	r3, [r7, #12]
		result_speed4 += M4_buf_summ_speed[i];
 8001548:	4b1b      	ldr	r3, [pc, #108]	; (80015b8 <speed_to_sec+0xbc>)
 800154a:	687a      	ldr	r2, [r7, #4]
 800154c:	0052      	lsls	r2, r2, #1
 800154e:	5ed3      	ldrsh	r3, [r2, r3]
 8001550:	001a      	movs	r2, r3
 8001552:	68bb      	ldr	r3, [r7, #8]
 8001554:	189b      	adds	r3, r3, r2
 8001556:	60bb      	str	r3, [r7, #8]
	for (int i = 0; i < 100; i++)
 8001558:	687b      	ldr	r3, [r7, #4]
 800155a:	3301      	adds	r3, #1
 800155c:	607b      	str	r3, [r7, #4]
 800155e:	687b      	ldr	r3, [r7, #4]
 8001560:	2b63      	cmp	r3, #99	; 0x63
 8001562:	ddd9      	ble.n	8001518 <speed_to_sec+0x1c>
	}
	ramRomData[M1_SPEED_sek] = result_speed1 * 20;
 8001564:	697b      	ldr	r3, [r7, #20]
 8001566:	b29b      	uxth	r3, r3
 8001568:	2214      	movs	r2, #20
 800156a:	4353      	muls	r3, r2
 800156c:	b29b      	uxth	r3, r3
 800156e:	b21a      	sxth	r2, r3
 8001570:	4b12      	ldr	r3, [pc, #72]	; (80015bc <speed_to_sec+0xc0>)
 8001572:	821a      	strh	r2, [r3, #16]
	ramRomData[M2_SPEED_sek] = result_speed2 * 20;
 8001574:	693b      	ldr	r3, [r7, #16]
 8001576:	b29b      	uxth	r3, r3
 8001578:	2214      	movs	r2, #20
 800157a:	4353      	muls	r3, r2
 800157c:	b29b      	uxth	r3, r3
 800157e:	b21a      	sxth	r2, r3
 8001580:	4b0e      	ldr	r3, [pc, #56]	; (80015bc <speed_to_sec+0xc0>)
 8001582:	825a      	strh	r2, [r3, #18]
	ramRomData[M3_SPEED_sek] = result_speed3 * 20;
 8001584:	68fb      	ldr	r3, [r7, #12]
 8001586:	b29b      	uxth	r3, r3
 8001588:	2214      	movs	r2, #20
 800158a:	4353      	muls	r3, r2
 800158c:	b29b      	uxth	r3, r3
 800158e:	b21a      	sxth	r2, r3
 8001590:	4b0a      	ldr	r3, [pc, #40]	; (80015bc <speed_to_sec+0xc0>)
 8001592:	829a      	strh	r2, [r3, #20]
	ramRomData[M4_SPEED_sek] = result_speed4 * 20;
 8001594:	68bb      	ldr	r3, [r7, #8]
 8001596:	b29b      	uxth	r3, r3
 8001598:	2214      	movs	r2, #20
 800159a:	4353      	muls	r3, r2
 800159c:	b29b      	uxth	r3, r3
 800159e:	b21a      	sxth	r2, r3
 80015a0:	4b06      	ldr	r3, [pc, #24]	; (80015bc <speed_to_sec+0xc0>)
 80015a2:	82da      	strh	r2, [r3, #22]

}//void speed_to_sek(void)
 80015a4:	46c0      	nop			; (mov r8, r8)
 80015a6:	46bd      	mov	sp, r7
 80015a8:	b006      	add	sp, #24
 80015aa:	bd80      	pop	{r7, pc}
 80015ac:	200000c4 	.word	0x200000c4
 80015b0:	2000018c 	.word	0x2000018c
 80015b4:	20000254 	.word	0x20000254
 80015b8:	2000031c 	.word	0x2000031c
 80015bc:	20000674 	.word	0x20000674

080015c0 <encoder_update>:

void encoder_update(void)
{
 80015c0:	b580      	push	{r7, lr}
 80015c2:	b082      	sub	sp, #8
 80015c4:	af00      	add	r7, sp, #0
	int16_t speed = 0;
 80015c6:	1dbb      	adds	r3, r7, #6
 80015c8:	2200      	movs	r2, #0
 80015ca:	801a      	strh	r2, [r3, #0]
//	enc1 = LPTIM1->CNT << 1;
//	enc2 = TIM2->CNT;
//	enc3 = TIM21->CNT;
//	enc4 = TIM22->CNT;

	speed =  (ramRomData[M1_ENCODER] - enc1);
 80015cc:	4b42      	ldr	r3, [pc, #264]	; (80016d8 <encoder_update+0x118>)
 80015ce:	2228      	movs	r2, #40	; 0x28
 80015d0:	5e9b      	ldrsh	r3, [r3, r2]
 80015d2:	b29a      	uxth	r2, r3
 80015d4:	4b41      	ldr	r3, [pc, #260]	; (80016dc <encoder_update+0x11c>)
 80015d6:	2100      	movs	r1, #0
 80015d8:	5e5b      	ldrsh	r3, [r3, r1]
 80015da:	b29b      	uxth	r3, r3
 80015dc:	1ad3      	subs	r3, r2, r3
 80015de:	b29a      	uxth	r2, r3
 80015e0:	1dbb      	adds	r3, r7, #6
 80015e2:	801a      	strh	r2, [r3, #0]
	ramRomData[M1_ENCODER] = enc1;
 80015e4:	4b3d      	ldr	r3, [pc, #244]	; (80016dc <encoder_update+0x11c>)
 80015e6:	2200      	movs	r2, #0
 80015e8:	5e9a      	ldrsh	r2, [r3, r2]
 80015ea:	4b3b      	ldr	r3, [pc, #236]	; (80016d8 <encoder_update+0x118>)
 80015ec:	851a      	strh	r2, [r3, #40]	; 0x28
	ramRomData[M1_PRESENT_SPEED] = speed;
 80015ee:	4b3a      	ldr	r3, [pc, #232]	; (80016d8 <encoder_update+0x118>)
 80015f0:	1dba      	adds	r2, r7, #6
 80015f2:	8812      	ldrh	r2, [r2, #0]
 80015f4:	841a      	strh	r2, [r3, #32]
	M1_buf_summ_speed[n_count_speed] = speed;
 80015f6:	4b3a      	ldr	r3, [pc, #232]	; (80016e0 <encoder_update+0x120>)
 80015f8:	781b      	ldrb	r3, [r3, #0]
 80015fa:	001a      	movs	r2, r3
 80015fc:	4b39      	ldr	r3, [pc, #228]	; (80016e4 <encoder_update+0x124>)
 80015fe:	0052      	lsls	r2, r2, #1
 8001600:	1db9      	adds	r1, r7, #6
 8001602:	8809      	ldrh	r1, [r1, #0]
 8001604:	52d1      	strh	r1, [r2, r3]


	speed =  (ramRomData[M2_ENCODER] - enc2);
 8001606:	4b34      	ldr	r3, [pc, #208]	; (80016d8 <encoder_update+0x118>)
 8001608:	222a      	movs	r2, #42	; 0x2a
 800160a:	5e9b      	ldrsh	r3, [r3, r2]
 800160c:	b29a      	uxth	r2, r3
 800160e:	4b36      	ldr	r3, [pc, #216]	; (80016e8 <encoder_update+0x128>)
 8001610:	2100      	movs	r1, #0
 8001612:	5e5b      	ldrsh	r3, [r3, r1]
 8001614:	b29b      	uxth	r3, r3
 8001616:	1ad3      	subs	r3, r2, r3
 8001618:	b29a      	uxth	r2, r3
 800161a:	1dbb      	adds	r3, r7, #6
 800161c:	801a      	strh	r2, [r3, #0]
	ramRomData[M2_ENCODER] = enc2;
 800161e:	4b32      	ldr	r3, [pc, #200]	; (80016e8 <encoder_update+0x128>)
 8001620:	2200      	movs	r2, #0
 8001622:	5e9a      	ldrsh	r2, [r3, r2]
 8001624:	4b2c      	ldr	r3, [pc, #176]	; (80016d8 <encoder_update+0x118>)
 8001626:	855a      	strh	r2, [r3, #42]	; 0x2a
	ramRomData[M2_PRESENT_SPEED] = speed;
 8001628:	4b2b      	ldr	r3, [pc, #172]	; (80016d8 <encoder_update+0x118>)
 800162a:	1dba      	adds	r2, r7, #6
 800162c:	8812      	ldrh	r2, [r2, #0]
 800162e:	845a      	strh	r2, [r3, #34]	; 0x22
	M2_buf_summ_speed[n_count_speed] = speed;
 8001630:	4b2b      	ldr	r3, [pc, #172]	; (80016e0 <encoder_update+0x120>)
 8001632:	781b      	ldrb	r3, [r3, #0]
 8001634:	001a      	movs	r2, r3
 8001636:	4b2d      	ldr	r3, [pc, #180]	; (80016ec <encoder_update+0x12c>)
 8001638:	0052      	lsls	r2, r2, #1
 800163a:	1db9      	adds	r1, r7, #6
 800163c:	8809      	ldrh	r1, [r1, #0]
 800163e:	52d1      	strh	r1, [r2, r3]


	speed =  (ramRomData[M3_ENCODER] - enc3);
 8001640:	4b25      	ldr	r3, [pc, #148]	; (80016d8 <encoder_update+0x118>)
 8001642:	222c      	movs	r2, #44	; 0x2c
 8001644:	5e9b      	ldrsh	r3, [r3, r2]
 8001646:	b29a      	uxth	r2, r3
 8001648:	4b29      	ldr	r3, [pc, #164]	; (80016f0 <encoder_update+0x130>)
 800164a:	2100      	movs	r1, #0
 800164c:	5e5b      	ldrsh	r3, [r3, r1]
 800164e:	b29b      	uxth	r3, r3
 8001650:	1ad3      	subs	r3, r2, r3
 8001652:	b29a      	uxth	r2, r3
 8001654:	1dbb      	adds	r3, r7, #6
 8001656:	801a      	strh	r2, [r3, #0]
	ramRomData[M3_ENCODER] = enc3;
 8001658:	4b25      	ldr	r3, [pc, #148]	; (80016f0 <encoder_update+0x130>)
 800165a:	2200      	movs	r2, #0
 800165c:	5e9a      	ldrsh	r2, [r3, r2]
 800165e:	4b1e      	ldr	r3, [pc, #120]	; (80016d8 <encoder_update+0x118>)
 8001660:	859a      	strh	r2, [r3, #44]	; 0x2c
	ramRomData[M3_PRESENT_SPEED] = speed;
 8001662:	4b1d      	ldr	r3, [pc, #116]	; (80016d8 <encoder_update+0x118>)
 8001664:	1dba      	adds	r2, r7, #6
 8001666:	8812      	ldrh	r2, [r2, #0]
 8001668:	849a      	strh	r2, [r3, #36]	; 0x24
	M3_buf_summ_speed[n_count_speed] = speed;
 800166a:	4b1d      	ldr	r3, [pc, #116]	; (80016e0 <encoder_update+0x120>)
 800166c:	781b      	ldrb	r3, [r3, #0]
 800166e:	001a      	movs	r2, r3
 8001670:	4b20      	ldr	r3, [pc, #128]	; (80016f4 <encoder_update+0x134>)
 8001672:	0052      	lsls	r2, r2, #1
 8001674:	1db9      	adds	r1, r7, #6
 8001676:	8809      	ldrh	r1, [r1, #0]
 8001678:	52d1      	strh	r1, [r2, r3]

	speed =  (ramRomData[M4_ENCODER] - enc4);
 800167a:	4b17      	ldr	r3, [pc, #92]	; (80016d8 <encoder_update+0x118>)
 800167c:	222e      	movs	r2, #46	; 0x2e
 800167e:	5e9b      	ldrsh	r3, [r3, r2]
 8001680:	b29a      	uxth	r2, r3
 8001682:	4b1d      	ldr	r3, [pc, #116]	; (80016f8 <encoder_update+0x138>)
 8001684:	2100      	movs	r1, #0
 8001686:	5e5b      	ldrsh	r3, [r3, r1]
 8001688:	b29b      	uxth	r3, r3
 800168a:	1ad3      	subs	r3, r2, r3
 800168c:	b29a      	uxth	r2, r3
 800168e:	1dbb      	adds	r3, r7, #6
 8001690:	801a      	strh	r2, [r3, #0]
	ramRomData[M4_ENCODER] = enc4;
 8001692:	4b19      	ldr	r3, [pc, #100]	; (80016f8 <encoder_update+0x138>)
 8001694:	2200      	movs	r2, #0
 8001696:	5e9a      	ldrsh	r2, [r3, r2]
 8001698:	4b0f      	ldr	r3, [pc, #60]	; (80016d8 <encoder_update+0x118>)
 800169a:	85da      	strh	r2, [r3, #46]	; 0x2e
	ramRomData[M4_PRESENT_SPEED] = speed;
 800169c:	4b0e      	ldr	r3, [pc, #56]	; (80016d8 <encoder_update+0x118>)
 800169e:	1dba      	adds	r2, r7, #6
 80016a0:	8812      	ldrh	r2, [r2, #0]
 80016a2:	84da      	strh	r2, [r3, #38]	; 0x26
    M4_buf_summ_speed[n_count_speed] = speed;
 80016a4:	4b0e      	ldr	r3, [pc, #56]	; (80016e0 <encoder_update+0x120>)
 80016a6:	781b      	ldrb	r3, [r3, #0]
 80016a8:	001a      	movs	r2, r3
 80016aa:	4b14      	ldr	r3, [pc, #80]	; (80016fc <encoder_update+0x13c>)
 80016ac:	0052      	lsls	r2, r2, #1
 80016ae:	1db9      	adds	r1, r7, #6
 80016b0:	8809      	ldrh	r1, [r1, #0]
 80016b2:	52d1      	strh	r1, [r2, r3]


	n_count_speed ++;
 80016b4:	4b0a      	ldr	r3, [pc, #40]	; (80016e0 <encoder_update+0x120>)
 80016b6:	781b      	ldrb	r3, [r3, #0]
 80016b8:	3301      	adds	r3, #1
 80016ba:	b2da      	uxtb	r2, r3
 80016bc:	4b08      	ldr	r3, [pc, #32]	; (80016e0 <encoder_update+0x120>)
 80016be:	701a      	strb	r2, [r3, #0]
	if (n_count_speed > 100) n_count_speed = 0;
 80016c0:	4b07      	ldr	r3, [pc, #28]	; (80016e0 <encoder_update+0x120>)
 80016c2:	781b      	ldrb	r3, [r3, #0]
 80016c4:	2b64      	cmp	r3, #100	; 0x64
 80016c6:	d902      	bls.n	80016ce <encoder_update+0x10e>
 80016c8:	4b05      	ldr	r3, [pc, #20]	; (80016e0 <encoder_update+0x120>)
 80016ca:	2200      	movs	r2, #0
 80016cc:	701a      	strb	r2, [r3, #0]


}//encoder_update(void)
 80016ce:	46c0      	nop			; (mov r8, r8)
 80016d0:	46bd      	mov	sp, r7
 80016d2:	b002      	add	sp, #8
 80016d4:	bd80      	pop	{r7, pc}
 80016d6:	46c0      	nop			; (mov r8, r8)
 80016d8:	20000674 	.word	0x20000674
 80016dc:	20000494 	.word	0x20000494
 80016e0:	200003e4 	.word	0x200003e4
 80016e4:	200000c4 	.word	0x200000c4
 80016e8:	20000468 	.word	0x20000468
 80016ec:	2000018c 	.word	0x2000018c
 80016f0:	20000478 	.word	0x20000478
 80016f4:	20000254 	.word	0x20000254
 80016f8:	20000496 	.word	0x20000496
 80016fc:	2000031c 	.word	0x2000031c

08001700 <pwm_mode_task>:

static void pwm_mode_task(void)
{
 8001700:	b580      	push	{r7, lr}
 8001702:	af00      	add	r7, sp, #0
	TIM3->CCR1 = ramRomData[M1_POWER];
 8001704:	4b08      	ldr	r3, [pc, #32]	; (8001728 <pwm_mode_task+0x28>)
 8001706:	2218      	movs	r2, #24
 8001708:	5e9a      	ldrsh	r2, [r3, r2]
 800170a:	4b08      	ldr	r3, [pc, #32]	; (800172c <pwm_mode_task+0x2c>)
 800170c:	635a      	str	r2, [r3, #52]	; 0x34
	TIM3->CCR3 = ramRomData[M3_POWER]; //Motor 3
 800170e:	4b06      	ldr	r3, [pc, #24]	; (8001728 <pwm_mode_task+0x28>)
 8001710:	221c      	movs	r2, #28
 8001712:	5e9a      	ldrsh	r2, [r3, r2]
 8001714:	4b05      	ldr	r3, [pc, #20]	; (800172c <pwm_mode_task+0x2c>)
 8001716:	63da      	str	r2, [r3, #60]	; 0x3c
	TIM3->CCR4 = ramRomData[M4_POWER]; //Motor 4
 8001718:	4b03      	ldr	r3, [pc, #12]	; (8001728 <pwm_mode_task+0x28>)
 800171a:	221e      	movs	r2, #30
 800171c:	5e9a      	ldrsh	r2, [r3, r2]
 800171e:	4b03      	ldr	r3, [pc, #12]	; (800172c <pwm_mode_task+0x2c>)
 8001720:	641a      	str	r2, [r3, #64]	; 0x40
	  //TIM2->CCR3 = 0;// Motor 2
}
 8001722:	46c0      	nop			; (mov r8, r8)
 8001724:	46bd      	mov	sp, r7
 8001726:	bd80      	pop	{r7, pc}
 8001728:	20000674 	.word	0x20000674
 800172c:	40000400 	.word	0x40000400

08001730 <pid_update>:

int16_t pid_update(PidData_t* pid, int16_t present_speed, int16_t goal_speed)
{
 8001730:	b590      	push	{r4, r7, lr}
 8001732:	b089      	sub	sp, #36	; 0x24
 8001734:	af00      	add	r7, sp, #0
 8001736:	6078      	str	r0, [r7, #4]
 8001738:	0008      	movs	r0, r1
 800173a:	0011      	movs	r1, r2
 800173c:	1cbb      	adds	r3, r7, #2
 800173e:	1c02      	adds	r2, r0, #0
 8001740:	801a      	strh	r2, [r3, #0]
 8001742:	003b      	movs	r3, r7
 8001744:	1c0a      	adds	r2, r1, #0
 8001746:	801a      	strh	r2, [r3, #0]
	int32_t pwm=0;
 8001748:	2300      	movs	r3, #0
 800174a:	61fb      	str	r3, [r7, #28]
	int16_t serr;
	int32_t power_limit = 1000;
 800174c:	23fa      	movs	r3, #250	; 0xfa
 800174e:	009b      	lsls	r3, r3, #2
 8001750:	61bb      	str	r3, [r7, #24]
	serr = (goal_speed/20 - (present_speed*100));
 8001752:	003b      	movs	r3, r7
 8001754:	2200      	movs	r2, #0
 8001756:	5e9b      	ldrsh	r3, [r3, r2]
 8001758:	2114      	movs	r1, #20
 800175a:	0018      	movs	r0, r3
 800175c:	f7fe fd70 	bl	8000240 <__divsi3>
 8001760:	0003      	movs	r3, r0
 8001762:	b21b      	sxth	r3, r3
 8001764:	b29a      	uxth	r2, r3
 8001766:	1cbb      	adds	r3, r7, #2
 8001768:	881b      	ldrh	r3, [r3, #0]
 800176a:	1c19      	adds	r1, r3, #0
 800176c:	0249      	lsls	r1, r1, #9
 800176e:	1ac9      	subs	r1, r1, r3
 8001770:	0089      	lsls	r1, r1, #2
 8001772:	18c9      	adds	r1, r1, r3
 8001774:	00c9      	lsls	r1, r1, #3
 8001776:	1acb      	subs	r3, r1, r3
 8001778:	009b      	lsls	r3, r3, #2
 800177a:	b29b      	uxth	r3, r3
 800177c:	18d3      	adds	r3, r2, r3
 800177e:	b29a      	uxth	r2, r3
 8001780:	2416      	movs	r4, #22
 8001782:	193b      	adds	r3, r7, r4
 8001784:	801a      	strh	r2, [r3, #0]


	int32_t P = (ramRomData[PID_P]*serr)/100;
 8001786:	4b2a      	ldr	r3, [pc, #168]	; (8001830 <pid_update+0x100>)
 8001788:	220a      	movs	r2, #10
 800178a:	5e9b      	ldrsh	r3, [r3, r2]
 800178c:	001a      	movs	r2, r3
 800178e:	193b      	adds	r3, r7, r4
 8001790:	2100      	movs	r1, #0
 8001792:	5e5b      	ldrsh	r3, [r3, r1]
 8001794:	4353      	muls	r3, r2
 8001796:	2164      	movs	r1, #100	; 0x64
 8001798:	0018      	movs	r0, r3
 800179a:	f7fe fd51 	bl	8000240 <__divsi3>
 800179e:	0003      	movs	r3, r0
 80017a0:	613b      	str	r3, [r7, #16]
	int32_t I = (pid->I + (ramRomData[PID_I]*serr))/100;
 80017a2:	687b      	ldr	r3, [r7, #4]
 80017a4:	689a      	ldr	r2, [r3, #8]
 80017a6:	4b22      	ldr	r3, [pc, #136]	; (8001830 <pid_update+0x100>)
 80017a8:	210c      	movs	r1, #12
 80017aa:	5e5b      	ldrsh	r3, [r3, r1]
 80017ac:	0019      	movs	r1, r3
 80017ae:	193b      	adds	r3, r7, r4
 80017b0:	2000      	movs	r0, #0
 80017b2:	5e1b      	ldrsh	r3, [r3, r0]
 80017b4:	434b      	muls	r3, r1
 80017b6:	18d3      	adds	r3, r2, r3
 80017b8:	2164      	movs	r1, #100	; 0x64
 80017ba:	0018      	movs	r0, r3
 80017bc:	f7fe fd40 	bl	8000240 <__divsi3>
 80017c0:	0003      	movs	r3, r0
 80017c2:	60fb      	str	r3, [r7, #12]
	int32_t D = ramRomData[PID_D]*(serr - pid->prev_err)/100;
 80017c4:	4b1a      	ldr	r3, [pc, #104]	; (8001830 <pid_update+0x100>)
 80017c6:	220e      	movs	r2, #14
 80017c8:	5e9b      	ldrsh	r3, [r3, r2]
 80017ca:	0019      	movs	r1, r3
 80017cc:	193b      	adds	r3, r7, r4
 80017ce:	2200      	movs	r2, #0
 80017d0:	5e9a      	ldrsh	r2, [r3, r2]
 80017d2:	687b      	ldr	r3, [r7, #4]
 80017d4:	681b      	ldr	r3, [r3, #0]
 80017d6:	1ad3      	subs	r3, r2, r3
 80017d8:	434b      	muls	r3, r1
 80017da:	2164      	movs	r1, #100	; 0x64
 80017dc:	0018      	movs	r0, r3
 80017de:	f7fe fd2f 	bl	8000240 <__divsi3>
 80017e2:	0003      	movs	r3, r0
 80017e4:	60bb      	str	r3, [r7, #8]
	pwm = (P + I + D);
 80017e6:	693a      	ldr	r2, [r7, #16]
 80017e8:	68fb      	ldr	r3, [r7, #12]
 80017ea:	18d3      	adds	r3, r2, r3
 80017ec:	68ba      	ldr	r2, [r7, #8]
 80017ee:	18d3      	adds	r3, r2, r3
 80017f0:	61fb      	str	r3, [r7, #28]
//
	if(pwm > power_limit)
 80017f2:	69fa      	ldr	r2, [r7, #28]
 80017f4:	69bb      	ldr	r3, [r7, #24]
 80017f6:	429a      	cmp	r2, r3
 80017f8:	dd02      	ble.n	8001800 <pid_update+0xd0>
		pwm = power_limit;
 80017fa:	69bb      	ldr	r3, [r7, #24]
 80017fc:	61fb      	str	r3, [r7, #28]
 80017fe:	e007      	b.n	8001810 <pid_update+0xe0>
	else if (pwm < -power_limit)
 8001800:	69bb      	ldr	r3, [r7, #24]
 8001802:	425b      	negs	r3, r3
 8001804:	69fa      	ldr	r2, [r7, #28]
 8001806:	429a      	cmp	r2, r3
 8001808:	da02      	bge.n	8001810 <pid_update+0xe0>
		pwm = -power_limit;
 800180a:	69bb      	ldr	r3, [r7, #24]
 800180c:	425b      	negs	r3, r3
 800180e:	61fb      	str	r3, [r7, #28]
//	else if(pwm < -power_limit)
//	else if(pwm < 0)
//		pwm = -pwm;

	pid->I = I;
 8001810:	687b      	ldr	r3, [r7, #4]
 8001812:	68fa      	ldr	r2, [r7, #12]
 8001814:	609a      	str	r2, [r3, #8]
	pid->prev_err = serr;
 8001816:	2316      	movs	r3, #22
 8001818:	18fb      	adds	r3, r7, r3
 800181a:	2200      	movs	r2, #0
 800181c:	5e9a      	ldrsh	r2, [r3, r2]
 800181e:	687b      	ldr	r3, [r7, #4]
 8001820:	601a      	str	r2, [r3, #0]


	return pwm;
 8001822:	69fb      	ldr	r3, [r7, #28]
 8001824:	b21b      	sxth	r3, r3


}//void pid_update(PidData_t* pid, int32_t present, int32_t goal)
 8001826:	0018      	movs	r0, r3
 8001828:	46bd      	mov	sp, r7
 800182a:	b009      	add	sp, #36	; 0x24
 800182c:	bd90      	pop	{r4, r7, pc}
 800182e:	46c0      	nop			; (mov r8, r8)
 8001830:	20000674 	.word	0x20000674

08001834 <speed_task>:

void speed_task(void)
{
 8001834:	b590      	push	{r4, r7, lr}
 8001836:	b083      	sub	sp, #12
 8001838:	af00      	add	r7, sp, #0
	int16_t present_speed, goal_speed;
	int16_t pwm;
	int16_t result_pwm = 0;
 800183a:	1cbb      	adds	r3, r7, #2
 800183c:	2200      	movs	r2, #0
 800183e:	801a      	strh	r2, [r3, #0]

	present_speed = ramRomData[M1_PRESENT_SPEED];
 8001840:	1dbb      	adds	r3, r7, #6
 8001842:	4a89      	ldr	r2, [pc, #548]	; (8001a68 <speed_task+0x234>)
 8001844:	8c12      	ldrh	r2, [r2, #32]
 8001846:	801a      	strh	r2, [r3, #0]
	goal_speed = ramRomData[M1_GOAL_SPEED];
 8001848:	1d3b      	adds	r3, r7, #4
 800184a:	4a87      	ldr	r2, [pc, #540]	; (8001a68 <speed_task+0x234>)
 800184c:	8852      	ldrh	r2, [r2, #2]
 800184e:	801a      	strh	r2, [r3, #0]
	if ((present_speed <= 0) && (goal_speed <0))
 8001850:	1dbb      	adds	r3, r7, #6
 8001852:	2200      	movs	r2, #0
 8001854:	5e9b      	ldrsh	r3, [r3, r2]
 8001856:	2b00      	cmp	r3, #0
 8001858:	dc10      	bgt.n	800187c <speed_task+0x48>
 800185a:	1d3b      	adds	r3, r7, #4
 800185c:	2200      	movs	r2, #0
 800185e:	5e9b      	ldrsh	r3, [r3, r2]
 8001860:	2b00      	cmp	r3, #0
 8001862:	da0b      	bge.n	800187c <speed_task+0x48>
	{
		present_speed = -present_speed;
 8001864:	1dbb      	adds	r3, r7, #6
 8001866:	881b      	ldrh	r3, [r3, #0]
 8001868:	425b      	negs	r3, r3
 800186a:	b29a      	uxth	r2, r3
 800186c:	1dbb      	adds	r3, r7, #6
 800186e:	801a      	strh	r2, [r3, #0]
		goal_speed = -goal_speed;
 8001870:	1d3b      	adds	r3, r7, #4
 8001872:	881b      	ldrh	r3, [r3, #0]
 8001874:	425b      	negs	r3, r3
 8001876:	b29a      	uxth	r2, r3
 8001878:	1d3b      	adds	r3, r7, #4
 800187a:	801a      	strh	r2, [r3, #0]
	}
	pwm = pid_update(&pid1, present_speed, goal_speed);
 800187c:	003c      	movs	r4, r7
 800187e:	1d3b      	adds	r3, r7, #4
 8001880:	2200      	movs	r2, #0
 8001882:	5e9a      	ldrsh	r2, [r3, r2]
 8001884:	1dbb      	adds	r3, r7, #6
 8001886:	2100      	movs	r1, #0
 8001888:	5e59      	ldrsh	r1, [r3, r1]
 800188a:	4b78      	ldr	r3, [pc, #480]	; (8001a6c <speed_task+0x238>)
 800188c:	0018      	movs	r0, r3
 800188e:	f7ff ff4f 	bl	8001730 <pid_update>
 8001892:	0003      	movs	r3, r0
 8001894:	8023      	strh	r3, [r4, #0]
	result_pwm = pwm + ramRomData[M1_POWER];
 8001896:	4b74      	ldr	r3, [pc, #464]	; (8001a68 <speed_task+0x234>)
 8001898:	2218      	movs	r2, #24
 800189a:	5e9b      	ldrsh	r3, [r3, r2]
 800189c:	b29a      	uxth	r2, r3
 800189e:	003b      	movs	r3, r7
 80018a0:	881b      	ldrh	r3, [r3, #0]
 80018a2:	18d3      	adds	r3, r2, r3
 80018a4:	b29a      	uxth	r2, r3
 80018a6:	1cbb      	adds	r3, r7, #2
 80018a8:	801a      	strh	r2, [r3, #0]
	if (result_pwm > TIM3->ARR) result_pwm = TIM3->ARR;
 80018aa:	1cbb      	adds	r3, r7, #2
 80018ac:	2200      	movs	r2, #0
 80018ae:	5e9a      	ldrsh	r2, [r3, r2]
 80018b0:	4b6f      	ldr	r3, [pc, #444]	; (8001a70 <speed_task+0x23c>)
 80018b2:	6adb      	ldr	r3, [r3, #44]	; 0x2c
 80018b4:	429a      	cmp	r2, r3
 80018b6:	d903      	bls.n	80018c0 <speed_task+0x8c>
 80018b8:	4b6d      	ldr	r3, [pc, #436]	; (8001a70 <speed_task+0x23c>)
 80018ba:	6ada      	ldr	r2, [r3, #44]	; 0x2c
 80018bc:	1cbb      	adds	r3, r7, #2
 80018be:	801a      	strh	r2, [r3, #0]
	ramRomData[M1_POWER] = result_pwm;
 80018c0:	4b69      	ldr	r3, [pc, #420]	; (8001a68 <speed_task+0x234>)
 80018c2:	1cba      	adds	r2, r7, #2
 80018c4:	8812      	ldrh	r2, [r2, #0]
 80018c6:	831a      	strh	r2, [r3, #24]


	present_speed = ramRomData[M2_PRESENT_SPEED];
 80018c8:	1dbb      	adds	r3, r7, #6
 80018ca:	4a67      	ldr	r2, [pc, #412]	; (8001a68 <speed_task+0x234>)
 80018cc:	8c52      	ldrh	r2, [r2, #34]	; 0x22
 80018ce:	801a      	strh	r2, [r3, #0]
	goal_speed = ramRomData[M2_GOAL_SPEED];
 80018d0:	1d3b      	adds	r3, r7, #4
 80018d2:	4a65      	ldr	r2, [pc, #404]	; (8001a68 <speed_task+0x234>)
 80018d4:	8892      	ldrh	r2, [r2, #4]
 80018d6:	801a      	strh	r2, [r3, #0]
	if ((present_speed <= 0) && (goal_speed <0))
 80018d8:	1dbb      	adds	r3, r7, #6
 80018da:	2200      	movs	r2, #0
 80018dc:	5e9b      	ldrsh	r3, [r3, r2]
 80018de:	2b00      	cmp	r3, #0
 80018e0:	dc10      	bgt.n	8001904 <speed_task+0xd0>
 80018e2:	1d3b      	adds	r3, r7, #4
 80018e4:	2200      	movs	r2, #0
 80018e6:	5e9b      	ldrsh	r3, [r3, r2]
 80018e8:	2b00      	cmp	r3, #0
 80018ea:	da0b      	bge.n	8001904 <speed_task+0xd0>
	{
		present_speed = -present_speed;
 80018ec:	1dbb      	adds	r3, r7, #6
 80018ee:	881b      	ldrh	r3, [r3, #0]
 80018f0:	425b      	negs	r3, r3
 80018f2:	b29a      	uxth	r2, r3
 80018f4:	1dbb      	adds	r3, r7, #6
 80018f6:	801a      	strh	r2, [r3, #0]
		goal_speed = -goal_speed;
 80018f8:	1d3b      	adds	r3, r7, #4
 80018fa:	881b      	ldrh	r3, [r3, #0]
 80018fc:	425b      	negs	r3, r3
 80018fe:	b29a      	uxth	r2, r3
 8001900:	1d3b      	adds	r3, r7, #4
 8001902:	801a      	strh	r2, [r3, #0]
	}
	pwm = pid_update(&pid2, present_speed, goal_speed);
 8001904:	003c      	movs	r4, r7
 8001906:	1d3b      	adds	r3, r7, #4
 8001908:	2200      	movs	r2, #0
 800190a:	5e9a      	ldrsh	r2, [r3, r2]
 800190c:	1dbb      	adds	r3, r7, #6
 800190e:	2100      	movs	r1, #0
 8001910:	5e59      	ldrsh	r1, [r3, r1]
 8001912:	4b58      	ldr	r3, [pc, #352]	; (8001a74 <speed_task+0x240>)
 8001914:	0018      	movs	r0, r3
 8001916:	f7ff ff0b 	bl	8001730 <pid_update>
 800191a:	0003      	movs	r3, r0
 800191c:	8023      	strh	r3, [r4, #0]
	result_pwm = pwm + ramRomData[M2_POWER];
 800191e:	4b52      	ldr	r3, [pc, #328]	; (8001a68 <speed_task+0x234>)
 8001920:	221a      	movs	r2, #26
 8001922:	5e9b      	ldrsh	r3, [r3, r2]
 8001924:	b29a      	uxth	r2, r3
 8001926:	003b      	movs	r3, r7
 8001928:	881b      	ldrh	r3, [r3, #0]
 800192a:	18d3      	adds	r3, r2, r3
 800192c:	b29a      	uxth	r2, r3
 800192e:	1cbb      	adds	r3, r7, #2
 8001930:	801a      	strh	r2, [r3, #0]
	if (result_pwm > TIM3->ARR) result_pwm = TIM3->ARR;
 8001932:	1cbb      	adds	r3, r7, #2
 8001934:	2200      	movs	r2, #0
 8001936:	5e9a      	ldrsh	r2, [r3, r2]
 8001938:	4b4d      	ldr	r3, [pc, #308]	; (8001a70 <speed_task+0x23c>)
 800193a:	6adb      	ldr	r3, [r3, #44]	; 0x2c
 800193c:	429a      	cmp	r2, r3
 800193e:	d903      	bls.n	8001948 <speed_task+0x114>
 8001940:	4b4b      	ldr	r3, [pc, #300]	; (8001a70 <speed_task+0x23c>)
 8001942:	6ada      	ldr	r2, [r3, #44]	; 0x2c
 8001944:	1cbb      	adds	r3, r7, #2
 8001946:	801a      	strh	r2, [r3, #0]
	ramRomData[M2_POWER] = result_pwm;
 8001948:	4b47      	ldr	r3, [pc, #284]	; (8001a68 <speed_task+0x234>)
 800194a:	1cba      	adds	r2, r7, #2
 800194c:	8812      	ldrh	r2, [r2, #0]
 800194e:	835a      	strh	r2, [r3, #26]


	present_speed = ramRomData[M3_PRESENT_SPEED];
 8001950:	1dbb      	adds	r3, r7, #6
 8001952:	4a45      	ldr	r2, [pc, #276]	; (8001a68 <speed_task+0x234>)
 8001954:	8c92      	ldrh	r2, [r2, #36]	; 0x24
 8001956:	801a      	strh	r2, [r3, #0]
	goal_speed = ramRomData[M3_GOAL_SPEED];
 8001958:	1d3b      	adds	r3, r7, #4
 800195a:	4a43      	ldr	r2, [pc, #268]	; (8001a68 <speed_task+0x234>)
 800195c:	88d2      	ldrh	r2, [r2, #6]
 800195e:	801a      	strh	r2, [r3, #0]
	if ((present_speed <= 0) && (goal_speed <0))
 8001960:	1dbb      	adds	r3, r7, #6
 8001962:	2200      	movs	r2, #0
 8001964:	5e9b      	ldrsh	r3, [r3, r2]
 8001966:	2b00      	cmp	r3, #0
 8001968:	dc10      	bgt.n	800198c <speed_task+0x158>
 800196a:	1d3b      	adds	r3, r7, #4
 800196c:	2200      	movs	r2, #0
 800196e:	5e9b      	ldrsh	r3, [r3, r2]
 8001970:	2b00      	cmp	r3, #0
 8001972:	da0b      	bge.n	800198c <speed_task+0x158>
	{
		present_speed = -present_speed;
 8001974:	1dbb      	adds	r3, r7, #6
 8001976:	881b      	ldrh	r3, [r3, #0]
 8001978:	425b      	negs	r3, r3
 800197a:	b29a      	uxth	r2, r3
 800197c:	1dbb      	adds	r3, r7, #6
 800197e:	801a      	strh	r2, [r3, #0]
		goal_speed = -goal_speed;
 8001980:	1d3b      	adds	r3, r7, #4
 8001982:	881b      	ldrh	r3, [r3, #0]
 8001984:	425b      	negs	r3, r3
 8001986:	b29a      	uxth	r2, r3
 8001988:	1d3b      	adds	r3, r7, #4
 800198a:	801a      	strh	r2, [r3, #0]
	}
	pwm = pid_update(&pid3, present_speed, goal_speed);
 800198c:	003c      	movs	r4, r7
 800198e:	1d3b      	adds	r3, r7, #4
 8001990:	2200      	movs	r2, #0
 8001992:	5e9a      	ldrsh	r2, [r3, r2]
 8001994:	1dbb      	adds	r3, r7, #6
 8001996:	2100      	movs	r1, #0
 8001998:	5e59      	ldrsh	r1, [r3, r1]
 800199a:	4b37      	ldr	r3, [pc, #220]	; (8001a78 <speed_task+0x244>)
 800199c:	0018      	movs	r0, r3
 800199e:	f7ff fec7 	bl	8001730 <pid_update>
 80019a2:	0003      	movs	r3, r0
 80019a4:	8023      	strh	r3, [r4, #0]
	result_pwm = pwm + ramRomData[M3_POWER];
 80019a6:	4b30      	ldr	r3, [pc, #192]	; (8001a68 <speed_task+0x234>)
 80019a8:	221c      	movs	r2, #28
 80019aa:	5e9b      	ldrsh	r3, [r3, r2]
 80019ac:	b29a      	uxth	r2, r3
 80019ae:	003b      	movs	r3, r7
 80019b0:	881b      	ldrh	r3, [r3, #0]
 80019b2:	18d3      	adds	r3, r2, r3
 80019b4:	b29a      	uxth	r2, r3
 80019b6:	1cbb      	adds	r3, r7, #2
 80019b8:	801a      	strh	r2, [r3, #0]
	if (result_pwm > TIM3->ARR) result_pwm = TIM3->ARR;
 80019ba:	1cbb      	adds	r3, r7, #2
 80019bc:	2200      	movs	r2, #0
 80019be:	5e9a      	ldrsh	r2, [r3, r2]
 80019c0:	4b2b      	ldr	r3, [pc, #172]	; (8001a70 <speed_task+0x23c>)
 80019c2:	6adb      	ldr	r3, [r3, #44]	; 0x2c
 80019c4:	429a      	cmp	r2, r3
 80019c6:	d903      	bls.n	80019d0 <speed_task+0x19c>
 80019c8:	4b29      	ldr	r3, [pc, #164]	; (8001a70 <speed_task+0x23c>)
 80019ca:	6ada      	ldr	r2, [r3, #44]	; 0x2c
 80019cc:	1cbb      	adds	r3, r7, #2
 80019ce:	801a      	strh	r2, [r3, #0]
	ramRomData[M3_POWER] = result_pwm;
 80019d0:	4b25      	ldr	r3, [pc, #148]	; (8001a68 <speed_task+0x234>)
 80019d2:	1cba      	adds	r2, r7, #2
 80019d4:	8812      	ldrh	r2, [r2, #0]
 80019d6:	839a      	strh	r2, [r3, #28]

	present_speed = ramRomData[M4_PRESENT_SPEED];
 80019d8:	1dbb      	adds	r3, r7, #6
 80019da:	4a23      	ldr	r2, [pc, #140]	; (8001a68 <speed_task+0x234>)
 80019dc:	8cd2      	ldrh	r2, [r2, #38]	; 0x26
 80019de:	801a      	strh	r2, [r3, #0]
	goal_speed = ramRomData[M4_GOAL_SPEED];
 80019e0:	1d3b      	adds	r3, r7, #4
 80019e2:	4a21      	ldr	r2, [pc, #132]	; (8001a68 <speed_task+0x234>)
 80019e4:	8912      	ldrh	r2, [r2, #8]
 80019e6:	801a      	strh	r2, [r3, #0]
	if ((present_speed <= 0) && (goal_speed <0))
 80019e8:	1dbb      	adds	r3, r7, #6
 80019ea:	2200      	movs	r2, #0
 80019ec:	5e9b      	ldrsh	r3, [r3, r2]
 80019ee:	2b00      	cmp	r3, #0
 80019f0:	dc10      	bgt.n	8001a14 <speed_task+0x1e0>
 80019f2:	1d3b      	adds	r3, r7, #4
 80019f4:	2200      	movs	r2, #0
 80019f6:	5e9b      	ldrsh	r3, [r3, r2]
 80019f8:	2b00      	cmp	r3, #0
 80019fa:	da0b      	bge.n	8001a14 <speed_task+0x1e0>
	{
		present_speed = -present_speed;
 80019fc:	1dbb      	adds	r3, r7, #6
 80019fe:	881b      	ldrh	r3, [r3, #0]
 8001a00:	425b      	negs	r3, r3
 8001a02:	b29a      	uxth	r2, r3
 8001a04:	1dbb      	adds	r3, r7, #6
 8001a06:	801a      	strh	r2, [r3, #0]
		goal_speed = -goal_speed;
 8001a08:	1d3b      	adds	r3, r7, #4
 8001a0a:	881b      	ldrh	r3, [r3, #0]
 8001a0c:	425b      	negs	r3, r3
 8001a0e:	b29a      	uxth	r2, r3
 8001a10:	1d3b      	adds	r3, r7, #4
 8001a12:	801a      	strh	r2, [r3, #0]
	}
	pwm = pid_update(&pid4, present_speed, goal_speed);
 8001a14:	003c      	movs	r4, r7
 8001a16:	1d3b      	adds	r3, r7, #4
 8001a18:	2200      	movs	r2, #0
 8001a1a:	5e9a      	ldrsh	r2, [r3, r2]
 8001a1c:	1dbb      	adds	r3, r7, #6
 8001a1e:	2100      	movs	r1, #0
 8001a20:	5e59      	ldrsh	r1, [r3, r1]
 8001a22:	4b16      	ldr	r3, [pc, #88]	; (8001a7c <speed_task+0x248>)
 8001a24:	0018      	movs	r0, r3
 8001a26:	f7ff fe83 	bl	8001730 <pid_update>
 8001a2a:	0003      	movs	r3, r0
 8001a2c:	8023      	strh	r3, [r4, #0]
	result_pwm = pwm + ramRomData[M4_POWER];
 8001a2e:	4b0e      	ldr	r3, [pc, #56]	; (8001a68 <speed_task+0x234>)
 8001a30:	221e      	movs	r2, #30
 8001a32:	5e9b      	ldrsh	r3, [r3, r2]
 8001a34:	b29a      	uxth	r2, r3
 8001a36:	003b      	movs	r3, r7
 8001a38:	881b      	ldrh	r3, [r3, #0]
 8001a3a:	18d3      	adds	r3, r2, r3
 8001a3c:	b29a      	uxth	r2, r3
 8001a3e:	1cbb      	adds	r3, r7, #2
 8001a40:	801a      	strh	r2, [r3, #0]
	if (result_pwm > TIM3->ARR) result_pwm = TIM3->ARR;
 8001a42:	1cbb      	adds	r3, r7, #2
 8001a44:	2200      	movs	r2, #0
 8001a46:	5e9a      	ldrsh	r2, [r3, r2]
 8001a48:	4b09      	ldr	r3, [pc, #36]	; (8001a70 <speed_task+0x23c>)
 8001a4a:	6adb      	ldr	r3, [r3, #44]	; 0x2c
 8001a4c:	429a      	cmp	r2, r3
 8001a4e:	d903      	bls.n	8001a58 <speed_task+0x224>
 8001a50:	4b07      	ldr	r3, [pc, #28]	; (8001a70 <speed_task+0x23c>)
 8001a52:	6ada      	ldr	r2, [r3, #44]	; 0x2c
 8001a54:	1cbb      	adds	r3, r7, #2
 8001a56:	801a      	strh	r2, [r3, #0]
	ramRomData[M4_POWER] = result_pwm;
 8001a58:	4b03      	ldr	r3, [pc, #12]	; (8001a68 <speed_task+0x234>)
 8001a5a:	1cba      	adds	r2, r7, #2
 8001a5c:	8812      	ldrh	r2, [r2, #0]
 8001a5e:	83da      	strh	r2, [r3, #30]



}//void speed_task(void)
 8001a60:	46c0      	nop			; (mov r8, r8)
 8001a62:	46bd      	mov	sp, r7
 8001a64:	b003      	add	sp, #12
 8001a66:	bd90      	pop	{r4, r7, pc}
 8001a68:	20000674 	.word	0x20000674
 8001a6c:	20000488 	.word	0x20000488
 8001a70:	40000400 	.word	0x40000400
 8001a74:	2000046c 	.word	0x2000046c
 8001a78:	2000047c 	.word	0x2000047c
 8001a7c:	2000045c 	.word	0x2000045c

08001a80 <mode_task>:


void mode_task(void)
{
 8001a80:	b580      	push	{r7, lr}
 8001a82:	af00      	add	r7, sp, #0
	if (ramRomData[M1_GOAL_SPEED] > 0) DIR1_GPIO_Port->BRR=DIR1_Pin;
 8001a84:	4b3e      	ldr	r3, [pc, #248]	; (8001b80 <mode_task+0x100>)
 8001a86:	2202      	movs	r2, #2
 8001a88:	5e9b      	ldrsh	r3, [r3, r2]
 8001a8a:	2b00      	cmp	r3, #0
 8001a8c:	dd04      	ble.n	8001a98 <mode_task+0x18>
 8001a8e:	4b3d      	ldr	r3, [pc, #244]	; (8001b84 <mode_task+0x104>)
 8001a90:	2280      	movs	r2, #128	; 0x80
 8001a92:	0192      	lsls	r2, r2, #6
 8001a94:	629a      	str	r2, [r3, #40]	; 0x28
 8001a96:	e00c      	b.n	8001ab2 <mode_task+0x32>
	else if (ramRomData[M1_GOAL_SPEED] < 0) DIR1_GPIO_Port->BSRR=DIR1_Pin;
 8001a98:	4b39      	ldr	r3, [pc, #228]	; (8001b80 <mode_task+0x100>)
 8001a9a:	2202      	movs	r2, #2
 8001a9c:	5e9b      	ldrsh	r3, [r3, r2]
 8001a9e:	2b00      	cmp	r3, #0
 8001aa0:	da04      	bge.n	8001aac <mode_task+0x2c>
 8001aa2:	4b38      	ldr	r3, [pc, #224]	; (8001b84 <mode_task+0x104>)
 8001aa4:	2280      	movs	r2, #128	; 0x80
 8001aa6:	0192      	lsls	r2, r2, #6
 8001aa8:	619a      	str	r2, [r3, #24]
 8001aaa:	e002      	b.n	8001ab2 <mode_task+0x32>
	else ramRomData[M1_POWER]=0;
 8001aac:	4b34      	ldr	r3, [pc, #208]	; (8001b80 <mode_task+0x100>)
 8001aae:	2200      	movs	r2, #0
 8001ab0:	831a      	strh	r2, [r3, #24]

	if (ramRomData[M2_GOAL_SPEED] > 0) DIR2_GPIO_Port->BRR=DIR2_Pin;
 8001ab2:	4b33      	ldr	r3, [pc, #204]	; (8001b80 <mode_task+0x100>)
 8001ab4:	2204      	movs	r2, #4
 8001ab6:	5e9b      	ldrsh	r3, [r3, r2]
 8001ab8:	2b00      	cmp	r3, #0
 8001aba:	dd04      	ble.n	8001ac6 <mode_task+0x46>
 8001abc:	4b32      	ldr	r3, [pc, #200]	; (8001b88 <mode_task+0x108>)
 8001abe:	2280      	movs	r2, #128	; 0x80
 8001ac0:	0192      	lsls	r2, r2, #6
 8001ac2:	629a      	str	r2, [r3, #40]	; 0x28
 8001ac4:	e00c      	b.n	8001ae0 <mode_task+0x60>
	else if (ramRomData[M2_GOAL_SPEED] < 0) DIR2_GPIO_Port->BSRR=DIR2_Pin;
 8001ac6:	4b2e      	ldr	r3, [pc, #184]	; (8001b80 <mode_task+0x100>)
 8001ac8:	2204      	movs	r2, #4
 8001aca:	5e9b      	ldrsh	r3, [r3, r2]
 8001acc:	2b00      	cmp	r3, #0
 8001ace:	da04      	bge.n	8001ada <mode_task+0x5a>
 8001ad0:	4b2d      	ldr	r3, [pc, #180]	; (8001b88 <mode_task+0x108>)
 8001ad2:	2280      	movs	r2, #128	; 0x80
 8001ad4:	0192      	lsls	r2, r2, #6
 8001ad6:	619a      	str	r2, [r3, #24]
 8001ad8:	e002      	b.n	8001ae0 <mode_task+0x60>
	else ramRomData[M2_POWER]=0;
 8001ada:	4b29      	ldr	r3, [pc, #164]	; (8001b80 <mode_task+0x100>)
 8001adc:	2200      	movs	r2, #0
 8001ade:	835a      	strh	r2, [r3, #26]

	if (ramRomData[M3_GOAL_SPEED] > 0) DIR3_GPIO_Port->BRR=DIR3_Pin;
 8001ae0:	4b27      	ldr	r3, [pc, #156]	; (8001b80 <mode_task+0x100>)
 8001ae2:	2206      	movs	r2, #6
 8001ae4:	5e9b      	ldrsh	r3, [r3, r2]
 8001ae6:	2b00      	cmp	r3, #0
 8001ae8:	dd04      	ble.n	8001af4 <mode_task+0x74>
 8001aea:	4b27      	ldr	r3, [pc, #156]	; (8001b88 <mode_task+0x108>)
 8001aec:	2280      	movs	r2, #128	; 0x80
 8001aee:	01d2      	lsls	r2, r2, #7
 8001af0:	629a      	str	r2, [r3, #40]	; 0x28
 8001af2:	e00c      	b.n	8001b0e <mode_task+0x8e>
	else if (ramRomData[M3_GOAL_SPEED] < 0) DIR3_GPIO_Port->BSRR=DIR3_Pin;
 8001af4:	4b22      	ldr	r3, [pc, #136]	; (8001b80 <mode_task+0x100>)
 8001af6:	2206      	movs	r2, #6
 8001af8:	5e9b      	ldrsh	r3, [r3, r2]
 8001afa:	2b00      	cmp	r3, #0
 8001afc:	da04      	bge.n	8001b08 <mode_task+0x88>
 8001afe:	4b22      	ldr	r3, [pc, #136]	; (8001b88 <mode_task+0x108>)
 8001b00:	2280      	movs	r2, #128	; 0x80
 8001b02:	01d2      	lsls	r2, r2, #7
 8001b04:	619a      	str	r2, [r3, #24]
 8001b06:	e002      	b.n	8001b0e <mode_task+0x8e>
	else ramRomData[M3_POWER]=0;
 8001b08:	4b1d      	ldr	r3, [pc, #116]	; (8001b80 <mode_task+0x100>)
 8001b0a:	2200      	movs	r2, #0
 8001b0c:	839a      	strh	r2, [r3, #28]

	if (ramRomData[M4_GOAL_SPEED] > 0) DIR4_GPIO_Port->BSRR=DIR4_Pin; //тут инверсия )))
 8001b0e:	4b1c      	ldr	r3, [pc, #112]	; (8001b80 <mode_task+0x100>)
 8001b10:	2208      	movs	r2, #8
 8001b12:	5e9b      	ldrsh	r3, [r3, r2]
 8001b14:	2b00      	cmp	r3, #0
 8001b16:	dd04      	ble.n	8001b22 <mode_task+0xa2>
 8001b18:	4b1b      	ldr	r3, [pc, #108]	; (8001b88 <mode_task+0x108>)
 8001b1a:	2280      	movs	r2, #128	; 0x80
 8001b1c:	0212      	lsls	r2, r2, #8
 8001b1e:	619a      	str	r2, [r3, #24]
 8001b20:	e00c      	b.n	8001b3c <mode_task+0xbc>
	else if (ramRomData[M4_GOAL_SPEED] < 0) DIR4_GPIO_Port->BRR=DIR4_Pin;
 8001b22:	4b17      	ldr	r3, [pc, #92]	; (8001b80 <mode_task+0x100>)
 8001b24:	2208      	movs	r2, #8
 8001b26:	5e9b      	ldrsh	r3, [r3, r2]
 8001b28:	2b00      	cmp	r3, #0
 8001b2a:	da04      	bge.n	8001b36 <mode_task+0xb6>
 8001b2c:	4b16      	ldr	r3, [pc, #88]	; (8001b88 <mode_task+0x108>)
 8001b2e:	2280      	movs	r2, #128	; 0x80
 8001b30:	0212      	lsls	r2, r2, #8
 8001b32:	629a      	str	r2, [r3, #40]	; 0x28
 8001b34:	e002      	b.n	8001b3c <mode_task+0xbc>
	else ramRomData[M4_POWER]=0;
 8001b36:	4b12      	ldr	r3, [pc, #72]	; (8001b80 <mode_task+0x100>)
 8001b38:	2200      	movs	r2, #0
 8001b3a:	83da      	strh	r2, [r3, #30]

	if (ramRomData[MOTOR_MODE] == 0)
 8001b3c:	4b10      	ldr	r3, [pc, #64]	; (8001b80 <mode_task+0x100>)
 8001b3e:	2200      	movs	r2, #0
 8001b40:	5e9b      	ldrsh	r3, [r3, r2]
 8001b42:	2b00      	cmp	r3, #0
 8001b44:	d119      	bne.n	8001b7a <mode_task+0xfa>
	{
		ramRomData[M1_POWER]=0;
 8001b46:	4b0e      	ldr	r3, [pc, #56]	; (8001b80 <mode_task+0x100>)
 8001b48:	2200      	movs	r2, #0
 8001b4a:	831a      	strh	r2, [r3, #24]
		ramRomData[M2_POWER]=0;
 8001b4c:	4b0c      	ldr	r3, [pc, #48]	; (8001b80 <mode_task+0x100>)
 8001b4e:	2200      	movs	r2, #0
 8001b50:	835a      	strh	r2, [r3, #26]
		ramRomData[M3_POWER]=0;
 8001b52:	4b0b      	ldr	r3, [pc, #44]	; (8001b80 <mode_task+0x100>)
 8001b54:	2200      	movs	r2, #0
 8001b56:	839a      	strh	r2, [r3, #28]
		ramRomData[M4_POWER]=0;
 8001b58:	4b09      	ldr	r3, [pc, #36]	; (8001b80 <mode_task+0x100>)
 8001b5a:	2200      	movs	r2, #0
 8001b5c:	83da      	strh	r2, [r3, #30]
		ramRomData[M1_GOAL_SPEED] = 0;
 8001b5e:	4b08      	ldr	r3, [pc, #32]	; (8001b80 <mode_task+0x100>)
 8001b60:	2200      	movs	r2, #0
 8001b62:	805a      	strh	r2, [r3, #2]
		ramRomData[M2_GOAL_SPEED] = 0;
 8001b64:	4b06      	ldr	r3, [pc, #24]	; (8001b80 <mode_task+0x100>)
 8001b66:	2200      	movs	r2, #0
 8001b68:	809a      	strh	r2, [r3, #4]
		ramRomData[M3_GOAL_SPEED] = 0;
 8001b6a:	4b05      	ldr	r3, [pc, #20]	; (8001b80 <mode_task+0x100>)
 8001b6c:	2200      	movs	r2, #0
 8001b6e:	80da      	strh	r2, [r3, #6]
		ramRomData[M4_GOAL_SPEED] = 0;
 8001b70:	4b03      	ldr	r3, [pc, #12]	; (8001b80 <mode_task+0x100>)
 8001b72:	2200      	movs	r2, #0
 8001b74:	811a      	strh	r2, [r3, #8]
		pwm_mode_task();
 8001b76:	f7ff fdc3 	bl	8001700 <pwm_mode_task>
	}


}
 8001b7a:	46c0      	nop			; (mov r8, r8)
 8001b7c:	46bd      	mov	sp, r7
 8001b7e:	bd80      	pop	{r7, pc}
 8001b80:	20000674 	.word	0x20000674
 8001b84:	50000800 	.word	0x50000800
 8001b88:	50000400 	.word	0x50000400

08001b8c <driver_task>:

void driver_task(void)
{
 8001b8c:	b580      	push	{r7, lr}
 8001b8e:	af00      	add	r7, sp, #0
	if(flag_tim)
 8001b90:	4b0f      	ldr	r3, [pc, #60]	; (8001bd0 <driver_task+0x44>)
 8001b92:	781b      	ldrb	r3, [r3, #0]
 8001b94:	2b00      	cmp	r3, #0
 8001b96:	d017      	beq.n	8001bc8 <driver_task+0x3c>
	{
		encoder_update();
 8001b98:	f7ff fd12 	bl	80015c0 <encoder_update>
		if(ramRomData[MOTOR_MODE])
 8001b9c:	4b0d      	ldr	r3, [pc, #52]	; (8001bd4 <driver_task+0x48>)
 8001b9e:	2200      	movs	r2, #0
 8001ba0:	5e9b      	ldrsh	r3, [r3, r2]
 8001ba2:	2b00      	cmp	r3, #0
 8001ba4:	d008      	beq.n	8001bb8 <driver_task+0x2c>
		{

			if(ramRomData[MOTOR_MODE] == MOTOR_MODE_SPEED)
 8001ba6:	4b0b      	ldr	r3, [pc, #44]	; (8001bd4 <driver_task+0x48>)
 8001ba8:	2200      	movs	r2, #0
 8001baa:	5e9b      	ldrsh	r3, [r3, r2]
 8001bac:	2b02      	cmp	r3, #2
 8001bae:	d101      	bne.n	8001bb4 <driver_task+0x28>
			{
				speed_task();
 8001bb0:	f7ff fe40 	bl	8001834 <speed_task>
			}//if(ramRomData[MOTOR_MODE] == MOTOR_MODE_SPEED)
			pwm_mode_task();
 8001bb4:	f7ff fda4 	bl	8001700 <pwm_mode_task>
			//TIM6->ARR = 10000/ramRomData[SPEED_PERIOD];

		}//if(ramRomData[MOTOR_MODE])
		flag_tim = 0;
 8001bb8:	4b05      	ldr	r3, [pc, #20]	; (8001bd0 <driver_task+0x44>)
 8001bba:	2200      	movs	r2, #0
 8001bbc:	701a      	strb	r2, [r3, #0]
		tiktik++;
 8001bbe:	4b06      	ldr	r3, [pc, #24]	; (8001bd8 <driver_task+0x4c>)
 8001bc0:	681b      	ldr	r3, [r3, #0]
 8001bc2:	1c5a      	adds	r2, r3, #1
 8001bc4:	4b04      	ldr	r3, [pc, #16]	; (8001bd8 <driver_task+0x4c>)
 8001bc6:	601a      	str	r2, [r3, #0]

	}//if(flag_tim)

}//void driver_task(void)
 8001bc8:	46c0      	nop			; (mov r8, r8)
 8001bca:	46bd      	mov	sp, r7
 8001bcc:	bd80      	pop	{r7, pc}
 8001bce:	46c0      	nop			; (mov r8, r8)
 8001bd0:	200000c2 	.word	0x200000c2
 8001bd4:	20000674 	.word	0x20000674
 8001bd8:	200003e8 	.word	0x200003e8

08001bdc <MX_GPIO_Init>:
        * Output
        * EVENT_OUT
        * EXTI
*/
void MX_GPIO_Init(void)
{
 8001bdc:	b590      	push	{r4, r7, lr}
 8001bde:	b089      	sub	sp, #36	; 0x24
 8001be0:	af00      	add	r7, sp, #0

  GPIO_InitTypeDef GPIO_InitStruct = {0};
 8001be2:	240c      	movs	r4, #12
 8001be4:	193b      	adds	r3, r7, r4
 8001be6:	0018      	movs	r0, r3
 8001be8:	2314      	movs	r3, #20
 8001bea:	001a      	movs	r2, r3
 8001bec:	2100      	movs	r1, #0
 8001bee:	f004 fda4 	bl	800673a <memset>

  /* GPIO Ports Clock Enable */
  __HAL_RCC_GPIOC_CLK_ENABLE();
 8001bf2:	4b3b      	ldr	r3, [pc, #236]	; (8001ce0 <MX_GPIO_Init+0x104>)
 8001bf4:	6ada      	ldr	r2, [r3, #44]	; 0x2c
 8001bf6:	4b3a      	ldr	r3, [pc, #232]	; (8001ce0 <MX_GPIO_Init+0x104>)
 8001bf8:	2104      	movs	r1, #4
 8001bfa:	430a      	orrs	r2, r1
 8001bfc:	62da      	str	r2, [r3, #44]	; 0x2c
 8001bfe:	4b38      	ldr	r3, [pc, #224]	; (8001ce0 <MX_GPIO_Init+0x104>)
 8001c00:	6adb      	ldr	r3, [r3, #44]	; 0x2c
 8001c02:	2204      	movs	r2, #4
 8001c04:	4013      	ands	r3, r2
 8001c06:	60bb      	str	r3, [r7, #8]
 8001c08:	68bb      	ldr	r3, [r7, #8]
  __HAL_RCC_GPIOA_CLK_ENABLE();
 8001c0a:	4b35      	ldr	r3, [pc, #212]	; (8001ce0 <MX_GPIO_Init+0x104>)
 8001c0c:	6ada      	ldr	r2, [r3, #44]	; 0x2c
 8001c0e:	4b34      	ldr	r3, [pc, #208]	; (8001ce0 <MX_GPIO_Init+0x104>)
 8001c10:	2101      	movs	r1, #1
 8001c12:	430a      	orrs	r2, r1
 8001c14:	62da      	str	r2, [r3, #44]	; 0x2c
 8001c16:	4b32      	ldr	r3, [pc, #200]	; (8001ce0 <MX_GPIO_Init+0x104>)
 8001c18:	6adb      	ldr	r3, [r3, #44]	; 0x2c
 8001c1a:	2201      	movs	r2, #1
 8001c1c:	4013      	ands	r3, r2
 8001c1e:	607b      	str	r3, [r7, #4]
 8001c20:	687b      	ldr	r3, [r7, #4]
  __HAL_RCC_GPIOB_CLK_ENABLE();
 8001c22:	4b2f      	ldr	r3, [pc, #188]	; (8001ce0 <MX_GPIO_Init+0x104>)
 8001c24:	6ada      	ldr	r2, [r3, #44]	; 0x2c
 8001c26:	4b2e      	ldr	r3, [pc, #184]	; (8001ce0 <MX_GPIO_Init+0x104>)
 8001c28:	2102      	movs	r1, #2
 8001c2a:	430a      	orrs	r2, r1
 8001c2c:	62da      	str	r2, [r3, #44]	; 0x2c
 8001c2e:	4b2c      	ldr	r3, [pc, #176]	; (8001ce0 <MX_GPIO_Init+0x104>)
 8001c30:	6adb      	ldr	r3, [r3, #44]	; 0x2c
 8001c32:	2202      	movs	r2, #2
 8001c34:	4013      	ands	r3, r2
 8001c36:	603b      	str	r3, [r7, #0]
 8001c38:	683b      	ldr	r3, [r7, #0]

  /*Configure GPIO pin Output Level */
  HAL_GPIO_WritePin(GPIOC, DIR1_Pin|STM_MISO_EN_Pin, GPIO_PIN_RESET);
 8001c3a:	23c0      	movs	r3, #192	; 0xc0
 8001c3c:	01db      	lsls	r3, r3, #7
 8001c3e:	4829      	ldr	r0, [pc, #164]	; (8001ce4 <MX_GPIO_Init+0x108>)
 8001c40:	2200      	movs	r2, #0
 8001c42:	0019      	movs	r1, r3
 8001c44:	f002 fa28 	bl	8004098 <HAL_GPIO_WritePin>

  /*Configure GPIO pin Output Level */
  HAL_GPIO_WritePin(GPIOB, STM_EN5V_Pin|STM_CON_PWR_Pin|DIR2_Pin|DIR3_Pin
 8001c48:	4927      	ldr	r1, [pc, #156]	; (8001ce8 <MX_GPIO_Init+0x10c>)
 8001c4a:	4b28      	ldr	r3, [pc, #160]	; (8001cec <MX_GPIO_Init+0x110>)
 8001c4c:	2200      	movs	r2, #0
 8001c4e:	0018      	movs	r0, r3
 8001c50:	f002 fa22 	bl	8004098 <HAL_GPIO_WritePin>
                          |DIR4_Pin|STM_DIR_Pin|DIVIDER_EN_Pin|STM_CON_PCHG_Pin, GPIO_PIN_RESET);

  /*Configure GPIO pin Output Level */
  HAL_GPIO_WritePin(BREAK_COAST_GPIO_Port, BREAK_COAST_Pin, GPIO_PIN_RESET);
 8001c54:	2380      	movs	r3, #128	; 0x80
 8001c56:	0059      	lsls	r1, r3, #1
 8001c58:	23a0      	movs	r3, #160	; 0xa0
 8001c5a:	05db      	lsls	r3, r3, #23
 8001c5c:	2200      	movs	r2, #0
 8001c5e:	0018      	movs	r0, r3
 8001c60:	f002 fa1a 	bl	8004098 <HAL_GPIO_WritePin>

  /*Configure GPIO pins : PCPin PCPin */
  GPIO_InitStruct.Pin = DIR1_Pin|STM_MISO_EN_Pin;
 8001c64:	193b      	adds	r3, r7, r4
 8001c66:	22c0      	movs	r2, #192	; 0xc0
 8001c68:	01d2      	lsls	r2, r2, #7
 8001c6a:	601a      	str	r2, [r3, #0]
  GPIO_InitStruct.Mode = GPIO_MODE_OUTPUT_PP;
 8001c6c:	193b      	adds	r3, r7, r4
 8001c6e:	2201      	movs	r2, #1
 8001c70:	605a      	str	r2, [r3, #4]
  GPIO_InitStruct.Pull = GPIO_NOPULL;
 8001c72:	193b      	adds	r3, r7, r4
 8001c74:	2200      	movs	r2, #0
 8001c76:	609a      	str	r2, [r3, #8]
  GPIO_InitStruct.Speed = GPIO_SPEED_FREQ_LOW;
 8001c78:	193b      	adds	r3, r7, r4
 8001c7a:	2200      	movs	r2, #0
 8001c7c:	60da      	str	r2, [r3, #12]
  HAL_GPIO_Init(GPIOC, &GPIO_InitStruct);
 8001c7e:	193b      	adds	r3, r7, r4
 8001c80:	4a18      	ldr	r2, [pc, #96]	; (8001ce4 <MX_GPIO_Init+0x108>)
 8001c82:	0019      	movs	r1, r3
 8001c84:	0010      	movs	r0, r2
 8001c86:	f002 f889 	bl	8003d9c <HAL_GPIO_Init>

  /*Configure GPIO pins : PBPin PBPin PBPin PBPin
                           PBPin PBPin PBPin PBPin */
  GPIO_InitStruct.Pin = STM_EN5V_Pin|STM_CON_PWR_Pin|DIR2_Pin|DIR3_Pin
 8001c8a:	193b      	adds	r3, r7, r4
 8001c8c:	4a16      	ldr	r2, [pc, #88]	; (8001ce8 <MX_GPIO_Init+0x10c>)
 8001c8e:	601a      	str	r2, [r3, #0]
                          |DIR4_Pin|STM_DIR_Pin|DIVIDER_EN_Pin|STM_CON_PCHG_Pin;
  GPIO_InitStruct.Mode = GPIO_MODE_OUTPUT_PP;
 8001c90:	193b      	adds	r3, r7, r4
 8001c92:	2201      	movs	r2, #1
 8001c94:	605a      	str	r2, [r3, #4]
  GPIO_InitStruct.Pull = GPIO_NOPULL;
 8001c96:	193b      	adds	r3, r7, r4
 8001c98:	2200      	movs	r2, #0
 8001c9a:	609a      	str	r2, [r3, #8]
  GPIO_InitStruct.Speed = GPIO_SPEED_FREQ_LOW;
 8001c9c:	193b      	adds	r3, r7, r4
 8001c9e:	2200      	movs	r2, #0
 8001ca0:	60da      	str	r2, [r3, #12]
  HAL_GPIO_Init(GPIOB, &GPIO_InitStruct);
 8001ca2:	193b      	adds	r3, r7, r4
 8001ca4:	4a11      	ldr	r2, [pc, #68]	; (8001cec <MX_GPIO_Init+0x110>)
 8001ca6:	0019      	movs	r1, r3
 8001ca8:	0010      	movs	r0, r2
 8001caa:	f002 f877 	bl	8003d9c <HAL_GPIO_Init>

  /*Configure GPIO pin : PtPin */
  GPIO_InitStruct.Pin = BREAK_COAST_Pin;
 8001cae:	0021      	movs	r1, r4
 8001cb0:	187b      	adds	r3, r7, r1
 8001cb2:	2280      	movs	r2, #128	; 0x80
 8001cb4:	0052      	lsls	r2, r2, #1
 8001cb6:	601a      	str	r2, [r3, #0]
  GPIO_InitStruct.Mode = GPIO_MODE_OUTPUT_PP;
 8001cb8:	187b      	adds	r3, r7, r1
 8001cba:	2201      	movs	r2, #1
 8001cbc:	605a      	str	r2, [r3, #4]
  GPIO_InitStruct.Pull = GPIO_NOPULL;
 8001cbe:	187b      	adds	r3, r7, r1
 8001cc0:	2200      	movs	r2, #0
 8001cc2:	609a      	str	r2, [r3, #8]
  GPIO_InitStruct.Speed = GPIO_SPEED_FREQ_LOW;
 8001cc4:	187b      	adds	r3, r7, r1
 8001cc6:	2200      	movs	r2, #0
 8001cc8:	60da      	str	r2, [r3, #12]
  HAL_GPIO_Init(BREAK_COAST_GPIO_Port, &GPIO_InitStruct);
 8001cca:	187a      	adds	r2, r7, r1
 8001ccc:	23a0      	movs	r3, #160	; 0xa0
 8001cce:	05db      	lsls	r3, r3, #23
 8001cd0:	0011      	movs	r1, r2
 8001cd2:	0018      	movs	r0, r3
 8001cd4:	f002 f862 	bl	8003d9c <HAL_GPIO_Init>

}
 8001cd8:	46c0      	nop			; (mov r8, r8)
 8001cda:	46bd      	mov	sp, r7
 8001cdc:	b009      	add	sp, #36	; 0x24
 8001cde:	bd90      	pop	{r4, r7, pc}
 8001ce0:	40021000 	.word	0x40021000
 8001ce4:	50000800 	.word	0x50000800
 8001ce8:	0000f14c 	.word	0x0000f14c
 8001cec:	50000400 	.word	0x50000400

08001cf0 <MX_LPTIM1_Init>:

LPTIM_HandleTypeDef hlptim1;

/* LPTIM1 init function */
void MX_LPTIM1_Init(void)
{
 8001cf0:	b580      	push	{r7, lr}
 8001cf2:	af00      	add	r7, sp, #0
  /* USER CODE END LPTIM1_Init 0 */

  /* USER CODE BEGIN LPTIM1_Init 1 */

  /* USER CODE END LPTIM1_Init 1 */
  hlptim1.Instance = LPTIM1;
 8001cf4:	4b13      	ldr	r3, [pc, #76]	; (8001d44 <MX_LPTIM1_Init+0x54>)
 8001cf6:	4a14      	ldr	r2, [pc, #80]	; (8001d48 <MX_LPTIM1_Init+0x58>)
 8001cf8:	601a      	str	r2, [r3, #0]
  hlptim1.Init.Clock.Source = LPTIM_CLOCKSOURCE_APBCLOCK_LPOSC;
 8001cfa:	4b12      	ldr	r3, [pc, #72]	; (8001d44 <MX_LPTIM1_Init+0x54>)
 8001cfc:	2200      	movs	r2, #0
 8001cfe:	605a      	str	r2, [r3, #4]
  hlptim1.Init.Clock.Prescaler = LPTIM_PRESCALER_DIV1;
 8001d00:	4b10      	ldr	r3, [pc, #64]	; (8001d44 <MX_LPTIM1_Init+0x54>)
 8001d02:	2200      	movs	r2, #0
 8001d04:	609a      	str	r2, [r3, #8]
  hlptim1.Init.UltraLowPowerClock.Polarity = LPTIM_CLOCKPOLARITY_RISING;
 8001d06:	4b0f      	ldr	r3, [pc, #60]	; (8001d44 <MX_LPTIM1_Init+0x54>)
 8001d08:	2200      	movs	r2, #0
 8001d0a:	60da      	str	r2, [r3, #12]
  hlptim1.Init.UltraLowPowerClock.SampleTime = LPTIM_CLOCKSAMPLETIME_DIRECTTRANSITION;
 8001d0c:	4b0d      	ldr	r3, [pc, #52]	; (8001d44 <MX_LPTIM1_Init+0x54>)
 8001d0e:	2200      	movs	r2, #0
 8001d10:	611a      	str	r2, [r3, #16]
  hlptim1.Init.Trigger.Source = LPTIM_TRIGSOURCE_SOFTWARE;
 8001d12:	4b0c      	ldr	r3, [pc, #48]	; (8001d44 <MX_LPTIM1_Init+0x54>)
 8001d14:	4a0d      	ldr	r2, [pc, #52]	; (8001d4c <MX_LPTIM1_Init+0x5c>)
 8001d16:	615a      	str	r2, [r3, #20]
  hlptim1.Init.OutputPolarity = LPTIM_OUTPUTPOLARITY_HIGH;
 8001d18:	4b0a      	ldr	r3, [pc, #40]	; (8001d44 <MX_LPTIM1_Init+0x54>)
 8001d1a:	2200      	movs	r2, #0
 8001d1c:	621a      	str	r2, [r3, #32]
  hlptim1.Init.UpdateMode = LPTIM_UPDATE_IMMEDIATE;
 8001d1e:	4b09      	ldr	r3, [pc, #36]	; (8001d44 <MX_LPTIM1_Init+0x54>)
 8001d20:	2200      	movs	r2, #0
 8001d22:	625a      	str	r2, [r3, #36]	; 0x24
  hlptim1.Init.CounterSource = LPTIM_COUNTERSOURCE_EXTERNAL;
 8001d24:	4b07      	ldr	r3, [pc, #28]	; (8001d44 <MX_LPTIM1_Init+0x54>)
 8001d26:	2280      	movs	r2, #128	; 0x80
 8001d28:	0412      	lsls	r2, r2, #16
 8001d2a:	629a      	str	r2, [r3, #40]	; 0x28
  if (HAL_LPTIM_Init(&hlptim1) != HAL_OK)
 8001d2c:	4b05      	ldr	r3, [pc, #20]	; (8001d44 <MX_LPTIM1_Init+0x54>)
 8001d2e:	0018      	movs	r0, r3
 8001d30:	f002 f9e8 	bl	8004104 <HAL_LPTIM_Init>
 8001d34:	1e03      	subs	r3, r0, #0
 8001d36:	d001      	beq.n	8001d3c <MX_LPTIM1_Init+0x4c>
  {
    Error_Handler();
 8001d38:	f000 f9be 	bl	80020b8 <Error_Handler>
  }
  /* USER CODE BEGIN LPTIM1_Init 2 */

  /* USER CODE END LPTIM1_Init 2 */

}
 8001d3c:	46c0      	nop			; (mov r8, r8)
 8001d3e:	46bd      	mov	sp, r7
 8001d40:	bd80      	pop	{r7, pc}
 8001d42:	46c0      	nop			; (mov r8, r8)
 8001d44:	20000498 	.word	0x20000498
 8001d48:	40007c00 	.word	0x40007c00
 8001d4c:	0000ffff 	.word	0x0000ffff

08001d50 <HAL_LPTIM_MspInit>:

void HAL_LPTIM_MspInit(LPTIM_HandleTypeDef* lptimHandle)
{
 8001d50:	b590      	push	{r4, r7, lr}
 8001d52:	b089      	sub	sp, #36	; 0x24
 8001d54:	af00      	add	r7, sp, #0
 8001d56:	6078      	str	r0, [r7, #4]

  GPIO_InitTypeDef GPIO_InitStruct = {0};
 8001d58:	240c      	movs	r4, #12
 8001d5a:	193b      	adds	r3, r7, r4
 8001d5c:	0018      	movs	r0, r3
 8001d5e:	2314      	movs	r3, #20
 8001d60:	001a      	movs	r2, r3
 8001d62:	2100      	movs	r1, #0
 8001d64:	f004 fce9 	bl	800673a <memset>
  if(lptimHandle->Instance==LPTIM1)
 8001d68:	687b      	ldr	r3, [r7, #4]
 8001d6a:	681b      	ldr	r3, [r3, #0]
 8001d6c:	4a24      	ldr	r2, [pc, #144]	; (8001e00 <HAL_LPTIM_MspInit+0xb0>)
 8001d6e:	4293      	cmp	r3, r2
 8001d70:	d142      	bne.n	8001df8 <HAL_LPTIM_MspInit+0xa8>
  {
  /* USER CODE BEGIN LPTIM1_MspInit 0 */

  /* USER CODE END LPTIM1_MspInit 0 */
    /* LPTIM1 clock enable */
    __HAL_RCC_LPTIM1_CLK_ENABLE();
 8001d72:	4b24      	ldr	r3, [pc, #144]	; (8001e04 <HAL_LPTIM_MspInit+0xb4>)
 8001d74:	6b9a      	ldr	r2, [r3, #56]	; 0x38
 8001d76:	4b23      	ldr	r3, [pc, #140]	; (8001e04 <HAL_LPTIM_MspInit+0xb4>)
 8001d78:	2180      	movs	r1, #128	; 0x80
 8001d7a:	0609      	lsls	r1, r1, #24
 8001d7c:	430a      	orrs	r2, r1
 8001d7e:	639a      	str	r2, [r3, #56]	; 0x38

    __HAL_RCC_GPIOB_CLK_ENABLE();
 8001d80:	4b20      	ldr	r3, [pc, #128]	; (8001e04 <HAL_LPTIM_MspInit+0xb4>)
 8001d82:	6ada      	ldr	r2, [r3, #44]	; 0x2c
 8001d84:	4b1f      	ldr	r3, [pc, #124]	; (8001e04 <HAL_LPTIM_MspInit+0xb4>)
 8001d86:	2102      	movs	r1, #2
 8001d88:	430a      	orrs	r2, r1
 8001d8a:	62da      	str	r2, [r3, #44]	; 0x2c
 8001d8c:	4b1d      	ldr	r3, [pc, #116]	; (8001e04 <HAL_LPTIM_MspInit+0xb4>)
 8001d8e:	6adb      	ldr	r3, [r3, #44]	; 0x2c
 8001d90:	2202      	movs	r2, #2
 8001d92:	4013      	ands	r3, r2
 8001d94:	60bb      	str	r3, [r7, #8]
 8001d96:	68bb      	ldr	r3, [r7, #8]
    /**LPTIM1 GPIO Configuration
    PB5     ------> LPTIM1_IN1
    PB7     ------> LPTIM1_IN2
    */
    GPIO_InitStruct.Pin = GPIO_PIN_5;
 8001d98:	193b      	adds	r3, r7, r4
 8001d9a:	2220      	movs	r2, #32
 8001d9c:	601a      	str	r2, [r3, #0]
    GPIO_InitStruct.Mode = GPIO_MODE_AF_PP;
 8001d9e:	193b      	adds	r3, r7, r4
 8001da0:	2202      	movs	r2, #2
 8001da2:	605a      	str	r2, [r3, #4]
    GPIO_InitStruct.Pull = GPIO_NOPULL;
 8001da4:	193b      	adds	r3, r7, r4
 8001da6:	2200      	movs	r2, #0
 8001da8:	609a      	str	r2, [r3, #8]
    GPIO_InitStruct.Speed = GPIO_SPEED_FREQ_LOW;
 8001daa:	193b      	adds	r3, r7, r4
 8001dac:	2200      	movs	r2, #0
 8001dae:	60da      	str	r2, [r3, #12]
    GPIO_InitStruct.Alternate = GPIO_AF2_LPTIM1;
 8001db0:	193b      	adds	r3, r7, r4
 8001db2:	2202      	movs	r2, #2
 8001db4:	611a      	str	r2, [r3, #16]
    HAL_GPIO_Init(GPIOB, &GPIO_InitStruct);
 8001db6:	193b      	adds	r3, r7, r4
 8001db8:	4a13      	ldr	r2, [pc, #76]	; (8001e08 <HAL_LPTIM_MspInit+0xb8>)
 8001dba:	0019      	movs	r1, r3
 8001dbc:	0010      	movs	r0, r2
 8001dbe:	f001 ffed 	bl	8003d9c <HAL_GPIO_Init>

    GPIO_InitStruct.Pin = B1_Pin;
 8001dc2:	0021      	movs	r1, r4
 8001dc4:	187b      	adds	r3, r7, r1
 8001dc6:	2280      	movs	r2, #128	; 0x80
 8001dc8:	601a      	str	r2, [r3, #0]
    GPIO_InitStruct.Mode = GPIO_MODE_AF_PP;
 8001dca:	187b      	adds	r3, r7, r1
 8001dcc:	2202      	movs	r2, #2
 8001dce:	605a      	str	r2, [r3, #4]
    GPIO_InitStruct.Pull = GPIO_PULLUP;
 8001dd0:	187b      	adds	r3, r7, r1
 8001dd2:	2201      	movs	r2, #1
 8001dd4:	609a      	str	r2, [r3, #8]
    GPIO_InitStruct.Speed = GPIO_SPEED_FREQ_LOW;
 8001dd6:	187b      	adds	r3, r7, r1
 8001dd8:	2200      	movs	r2, #0
 8001dda:	60da      	str	r2, [r3, #12]
    GPIO_InitStruct.Alternate = GPIO_AF2_LPTIM1;
 8001ddc:	187b      	adds	r3, r7, r1
 8001dde:	2202      	movs	r2, #2
 8001de0:	611a      	str	r2, [r3, #16]
    HAL_GPIO_Init(B1_GPIO_Port, &GPIO_InitStruct);
 8001de2:	187b      	adds	r3, r7, r1
 8001de4:	4a08      	ldr	r2, [pc, #32]	; (8001e08 <HAL_LPTIM_MspInit+0xb8>)
 8001de6:	0019      	movs	r1, r3
 8001de8:	0010      	movs	r0, r2
 8001dea:	f001 ffd7 	bl	8003d9c <HAL_GPIO_Init>

    HAL_I2CEx_EnableFastModePlus(I2C_FASTMODEPLUS_PB7);
 8001dee:	2380      	movs	r3, #128	; 0x80
 8001df0:	009b      	lsls	r3, r3, #2
 8001df2:	0018      	movs	r0, r3
 8001df4:	f002 f96e 	bl	80040d4 <HAL_I2CEx_EnableFastModePlus>

  /* USER CODE BEGIN LPTIM1_MspInit 1 */

  /* USER CODE END LPTIM1_MspInit 1 */
  }
}
 8001df8:	46c0      	nop			; (mov r8, r8)
 8001dfa:	46bd      	mov	sp, r7
 8001dfc:	b009      	add	sp, #36	; 0x24
 8001dfe:	bd90      	pop	{r4, r7, pc}
 8001e00:	40007c00 	.word	0x40007c00
 8001e04:	40021000 	.word	0x40021000
 8001e08:	50000400 	.word	0x50000400

08001e0c <main>:
/**
  * @brief  The application entry point.
  * @retval int
  */
int main(void)
{
 8001e0c:	b580      	push	{r7, lr}
 8001e0e:	b082      	sub	sp, #8
 8001e10:	af00      	add	r7, sp, #0
  /* USER CODE END 1 */

  /* MCU Configuration--------------------------------------------------------*/

  /* Reset of all peripherals, Initializes the Flash interface and the Systick. */
  HAL_Init();
 8001e12:	f001 fc37 	bl	8003684 <HAL_Init>
  /* USER CODE BEGIN Init */

  /* USER CODE END Init */

  /* Configure the system clock */
  SystemClock_Config();
 8001e16:	f000 f8d9 	bl	8001fcc <SystemClock_Config>
  /* USER CODE BEGIN SysInit */

  /* USER CODE END SysInit */

  /* Initialize all configured peripherals */
  MX_GPIO_Init();
 8001e1a:	f7ff fedf 	bl	8001bdc <MX_GPIO_Init>
  MX_DMA_Init();
 8001e1e:	f7ff fb2b 	bl	8001478 <MX_DMA_Init>
  MX_ADC_Init();
 8001e22:	f7ff f8d5 	bl	8000fd0 <MX_ADC_Init>
  MX_LPTIM1_Init();
 8001e26:	f7ff ff63 	bl	8001cf0 <MX_LPTIM1_Init>
  MX_TIM21_Init();
 8001e2a:	f000 ff35 	bl	8002c98 <MX_TIM21_Init>
  MX_TIM22_Init();
 8001e2e:	f000 ff97 	bl	8002d60 <MX_TIM22_Init>
  MX_USART1_UART_Init();
 8001e32:	f001 fb19 	bl	8003468 <MX_USART1_UART_Init>
  MX_TIM3_Init();
 8001e36:	f000 fe71 	bl	8002b1c <MX_TIM3_Init>
  MX_TIM2_Init();
 8001e3a:	f000 fe0b 	bl	8002a54 <MX_TIM2_Init>
  MX_TIM6_Init();
 8001e3e:	f000 fef1 	bl	8002c24 <MX_TIM6_Init>
  MX_SPI1_Init();
 8001e42:	f000 fb9f 	bl	8002584 <MX_SPI1_Init>
  /* USER CODE BEGIN 2 */

	//подача питания, которое можно померить
	HAL_GPIO_WritePin(DIVIDER_EN_GPIO_Port, DIVIDER_EN_Pin, GPIO_PIN_SET);
 8001e46:	4b4d      	ldr	r3, [pc, #308]	; (8001f7c <main+0x170>)
 8001e48:	2201      	movs	r2, #1
 8001e4a:	2140      	movs	r1, #64	; 0x40
 8001e4c:	0018      	movs	r0, r3
 8001e4e:	f002 f923 	bl	8004098 <HAL_GPIO_WritePin>
	//включаем 5-вольтовый стабилизатор и eFuse
	HAL_GPIO_WritePin(STM_EN5V_GPIO_Port, STM_EN5V_Pin, GPIO_PIN_SET);
 8001e52:	4b4a      	ldr	r3, [pc, #296]	; (8001f7c <main+0x170>)
 8001e54:	2201      	movs	r2, #1
 8001e56:	2104      	movs	r1, #4
 8001e58:	0018      	movs	r0, r3
 8001e5a:	f002 f91d 	bl	8004098 <HAL_GPIO_WritePin>
	HAL_GPIO_WritePin(STM_MISO_EN_GPIO_Port, STM_MISO_EN_Pin, GPIO_PIN_SET);
 8001e5e:	2380      	movs	r3, #128	; 0x80
 8001e60:	01db      	lsls	r3, r3, #7
 8001e62:	4847      	ldr	r0, [pc, #284]	; (8001f80 <main+0x174>)
 8001e64:	2201      	movs	r2, #1
 8001e66:	0019      	movs	r1, r3
 8001e68:	f002 f916 	bl	8004098 <HAL_GPIO_WritePin>

	HAL_GPIO_WritePin(STM_CON_PCHG_GPIO_Port, STM_CON_PCHG_Pin, GPIO_PIN_SET);
 8001e6c:	2380      	movs	r3, #128	; 0x80
 8001e6e:	005b      	lsls	r3, r3, #1
 8001e70:	4842      	ldr	r0, [pc, #264]	; (8001f7c <main+0x170>)
 8001e72:	2201      	movs	r2, #1
 8001e74:	0019      	movs	r1, r3
 8001e76:	f002 f90f 	bl	8004098 <HAL_GPIO_WritePin>
	HAL_Delay(20);
 8001e7a:	2014      	movs	r0, #20
 8001e7c:	f001 fc72 	bl	8003764 <HAL_Delay>
	HAL_GPIO_WritePin(STM_CON_PWR_GPIO_Port, STM_CON_PWR_Pin, GPIO_PIN_SET);
 8001e80:	2380      	movs	r3, #128	; 0x80
 8001e82:	015b      	lsls	r3, r3, #5
 8001e84:	483d      	ldr	r0, [pc, #244]	; (8001f7c <main+0x170>)
 8001e86:	2201      	movs	r2, #1
 8001e88:	0019      	movs	r1, r3
 8001e8a:	f002 f905 	bl	8004098 <HAL_GPIO_WritePin>

	HAL_TIM_PWM_Start(&htim3, TIM_CHANNEL_1);
 8001e8e:	4b3d      	ldr	r3, [pc, #244]	; (8001f84 <main+0x178>)
 8001e90:	2100      	movs	r1, #0
 8001e92:	0018      	movs	r0, r3
 8001e94:	f003 f9ca 	bl	800522c <HAL_TIM_PWM_Start>
	HAL_TIM_PWM_Start(&htim3, TIM_CHANNEL_3);
 8001e98:	4b3a      	ldr	r3, [pc, #232]	; (8001f84 <main+0x178>)
 8001e9a:	2108      	movs	r1, #8
 8001e9c:	0018      	movs	r0, r3
 8001e9e:	f003 f9c5 	bl	800522c <HAL_TIM_PWM_Start>
	HAL_TIM_PWM_Start(&htim3, TIM_CHANNEL_4);
 8001ea2:	4b38      	ldr	r3, [pc, #224]	; (8001f84 <main+0x178>)
 8001ea4:	210c      	movs	r1, #12
 8001ea6:	0018      	movs	r0, r3
 8001ea8:	f003 f9c0 	bl	800522c <HAL_TIM_PWM_Start>
//  HAL_TIM_PWM_Start( &htim2, TIM_CHANNEL_3);
	HAL_LPTIM_Encoder_Start(&hlptim1, 10000);
 8001eac:	4a36      	ldr	r2, [pc, #216]	; (8001f88 <main+0x17c>)
 8001eae:	4b37      	ldr	r3, [pc, #220]	; (8001f8c <main+0x180>)
 8001eb0:	0011      	movs	r1, r2
 8001eb2:	0018      	movs	r0, r3
 8001eb4:	f002 f9b2 	bl	800421c <HAL_LPTIM_Encoder_Start>
	HAL_TIM_Encoder_Start(&htim21, TIM_CHANNEL_ALL);
 8001eb8:	4b35      	ldr	r3, [pc, #212]	; (8001f90 <main+0x184>)
 8001eba:	213c      	movs	r1, #60	; 0x3c
 8001ebc:	0018      	movs	r0, r3
 8001ebe:	f003 fae7 	bl	8005490 <HAL_TIM_Encoder_Start>
	HAL_TIM_Encoder_Start(&htim22, TIM_CHANNEL_ALL);
 8001ec2:	4b34      	ldr	r3, [pc, #208]	; (8001f94 <main+0x188>)
 8001ec4:	213c      	movs	r1, #60	; 0x3c
 8001ec6:	0018      	movs	r0, r3
 8001ec8:	f003 fae2 	bl	8005490 <HAL_TIM_Encoder_Start>
	HAL_TIM_Encoder_Start(&htim2, TIM_CHANNEL_ALL);
 8001ecc:	4b32      	ldr	r3, [pc, #200]	; (8001f98 <main+0x18c>)
 8001ece:	213c      	movs	r1, #60	; 0x3c
 8001ed0:	0018      	movs	r0, r3
 8001ed2:	f003 fadd 	bl	8005490 <HAL_TIM_Encoder_Start>

	HAL_TIM_Base_Start_IT(&htim6);
 8001ed6:	4b31      	ldr	r3, [pc, #196]	; (8001f9c <main+0x190>)
 8001ed8:	0018      	movs	r0, r3
 8001eda:	f003 f915 	bl	8005108 <HAL_TIM_Base_Start_IT>
  /* USER CODE END 2 */

  /* Infinite loop */
  /* USER CODE BEGIN WHILE */
	shim = 0;
 8001ede:	4b30      	ldr	r3, [pc, #192]	; (8001fa0 <main+0x194>)
 8001ee0:	2200      	movs	r2, #0
 8001ee2:	601a      	str	r2, [r3, #0]
	//TIM3->ARR = 16000-1;
	TIM3->CCR1 = shim; //shim;//Motor 1
 8001ee4:	4b2e      	ldr	r3, [pc, #184]	; (8001fa0 <main+0x194>)
 8001ee6:	681a      	ldr	r2, [r3, #0]
 8001ee8:	4b2e      	ldr	r3, [pc, #184]	; (8001fa4 <main+0x198>)
 8001eea:	635a      	str	r2, [r3, #52]	; 0x34
	TIM3->CCR3 = shim; //Motor 3
 8001eec:	4b2c      	ldr	r3, [pc, #176]	; (8001fa0 <main+0x194>)
 8001eee:	681a      	ldr	r2, [r3, #0]
 8001ef0:	4b2c      	ldr	r3, [pc, #176]	; (8001fa4 <main+0x198>)
 8001ef2:	63da      	str	r2, [r3, #60]	; 0x3c
	TIM3->CCR4 = 0; //Motor 4
 8001ef4:	4b2b      	ldr	r3, [pc, #172]	; (8001fa4 <main+0x198>)
 8001ef6:	2200      	movs	r2, #0
 8001ef8:	641a      	str	r2, [r3, #64]	; 0x40
	TIM2->CCR3 = 0; // Motor 2
 8001efa:	2380      	movs	r3, #128	; 0x80
 8001efc:	05db      	lsls	r3, r3, #23
 8001efe:	2200      	movs	r2, #0
 8001f00:	63da      	str	r2, [r3, #60]	; 0x3c
//	uint32_t Old_time = 0, New_time = 0;

	drive_init();
 8001f02:	f7ff facf 	bl	80014a4 <drive_init>
//	ramRomData[M3_GOAL_SPEED] = 4000;
//	ramRomData[M4_GOAL_SPEED] = -4000;
//	ramRomData[MOTOR_MODE] = 2;


	UART_RxBufLastCNDTR = DMA1_Channel5->CNDTR;
 8001f06:	4b28      	ldr	r3, [pc, #160]	; (8001fa8 <main+0x19c>)
 8001f08:	685a      	ldr	r2, [r3, #4]
 8001f0a:	4b28      	ldr	r3, [pc, #160]	; (8001fac <main+0x1a0>)
 8001f0c:	601a      	str	r2, [r3, #0]
	uartDMA_Init();
 8001f0e:	f7fe ff2f 	bl	8000d70 <uartDMA_Init>

	initSPI1();
 8001f12:	f7fe fd5b 	bl	80009cc <initSPI1>
	SPI1_TransmitReceiveSlaveDMA(bufSPI_Tx, bufSPI_Rx, BUFSIZE);
 8001f16:	4926      	ldr	r1, [pc, #152]	; (8001fb0 <main+0x1a4>)
 8001f18:	4b26      	ldr	r3, [pc, #152]	; (8001fb4 <main+0x1a8>)
 8001f1a:	2240      	movs	r2, #64	; 0x40
 8001f1c:	0018      	movs	r0, r3
 8001f1e:	f7fe fd01 	bl	8000924 <SPI1_TransmitReceiveSlaveDMA>
//  HAL_SPI_TransmitReceive_DMA(&hspi1,bufSPI_Tx, bufSPI_Rx, BUFSIZE); // Запуск приема данных по SPI в циклическом (бесконечном) режиме

	UART_RX(bufUART_Rx, BUFSIZE); // Запуск приема данных по rs-485 в циклическом (бесконечном) режиме
 8001f22:	4b25      	ldr	r3, [pc, #148]	; (8001fb8 <main+0x1ac>)
 8001f24:	2140      	movs	r1, #64	; 0x40
 8001f26:	0018      	movs	r0, r3
 8001f28:	f7fe ffb2 	bl	8000e90 <UART_RX>

	sprintf(sop, "Hi, M");
 8001f2c:	4a23      	ldr	r2, [pc, #140]	; (8001fbc <main+0x1b0>)
 8001f2e:	4b24      	ldr	r3, [pc, #144]	; (8001fc0 <main+0x1b4>)
 8001f30:	0011      	movs	r1, r2
 8001f32:	0018      	movs	r0, r3
 8001f34:	f004 fc0a 	bl	800674c <siprintf>
	int len = strlen(sop);
 8001f38:	4b21      	ldr	r3, [pc, #132]	; (8001fc0 <main+0x1b4>)
 8001f3a:	0018      	movs	r0, r3
 8001f3c:	f7fe f8e4 	bl	8000108 <strlen>
 8001f40:	0003      	movs	r3, r0
 8001f42:	607b      	str	r3, [r7, #4]
	Out485((uint8_t*) sop, len);
 8001f44:	687a      	ldr	r2, [r7, #4]
 8001f46:	4b1e      	ldr	r3, [pc, #120]	; (8001fc0 <main+0x1b4>)
 8001f48:	0011      	movs	r1, r2
 8001f4a:	0018      	movs	r0, r3
 8001f4c:	f7ff f826 	bl	8000f9c <Out485>

	while (1) {
		driver_task();
 8001f50:	f7ff fe1c 	bl	8001b8c <driver_task>
		protocol_task();
 8001f54:	f000 f8f6 	bl	8002144 <protocol_task>
//	  TIM3->CCR3 = shim;
//	  TIM3->CCR4 = shim;
		//  TIM2->CCR3 = 1000;
//	  shim += 100;
		//if(shim >= START_PWM) shim =  2000;
		if (tiktik > 1000) {
 8001f58:	4b1a      	ldr	r3, [pc, #104]	; (8001fc4 <main+0x1b8>)
 8001f5a:	681a      	ldr	r2, [r3, #0]
 8001f5c:	23fa      	movs	r3, #250	; 0xfa
 8001f5e:	009b      	lsls	r3, r3, #2
 8001f60:	429a      	cmp	r2, r3
 8001f62:	d9f5      	bls.n	8001f50 <main+0x144>
			speed_to_sec();
 8001f64:	f7ff faca 	bl	80014fc <speed_to_sec>
//					ramRomData[M1_SPEED_sek], ramRomData[M2_SPEED_sek], ramRomData[M3_SPEED_sek],
//					ramRomData[M4_SPEED_sek]);
//			int len = strlen(sop);
//			Out485((uint8_t*) sop, len);

			count++;
 8001f68:	4b17      	ldr	r3, [pc, #92]	; (8001fc8 <main+0x1bc>)
 8001f6a:	681b      	ldr	r3, [r3, #0]
 8001f6c:	1c5a      	adds	r2, r3, #1
 8001f6e:	4b16      	ldr	r3, [pc, #88]	; (8001fc8 <main+0x1bc>)
 8001f70:	601a      	str	r2, [r3, #0]
			tiktik = 0;
 8001f72:	4b14      	ldr	r3, [pc, #80]	; (8001fc4 <main+0x1b8>)
 8001f74:	2200      	movs	r2, #0
 8001f76:	601a      	str	r2, [r3, #0]
		driver_task();
 8001f78:	e7ea      	b.n	8001f50 <main+0x144>
 8001f7a:	46c0      	nop			; (mov r8, r8)
 8001f7c:	50000400 	.word	0x50000400
 8001f80:	50000800 	.word	0x50000800
 8001f84:	200006a4 	.word	0x200006a4
 8001f88:	00002710 	.word	0x00002710
 8001f8c:	20000498 	.word	0x20000498
 8001f90:	200007a4 	.word	0x200007a4
 8001f94:	200006e4 	.word	0x200006e4
 8001f98:	20000764 	.word	0x20000764
 8001f9c:	20000724 	.word	0x20000724
 8001fa0:	20000000 	.word	0x20000000
 8001fa4:	40000400 	.word	0x40000400
 8001fa8:	40020058 	.word	0x40020058
 8001fac:	20000588 	.word	0x20000588
 8001fb0:	200005f0 	.word	0x200005f0
 8001fb4:	20000548 	.word	0x20000548
 8001fb8:	20000630 	.word	0x20000630
 8001fbc:	08006f9c 	.word	0x08006f9c
 8001fc0:	2000058c 	.word	0x2000058c
 8001fc4:	200003e8 	.word	0x200003e8
 8001fc8:	200003ec 	.word	0x200003ec

08001fcc <SystemClock_Config>:
/**
  * @brief System Clock Configuration
  * @retval None
  */
void SystemClock_Config(void)
{
 8001fcc:	b590      	push	{r4, r7, lr}
 8001fce:	b09b      	sub	sp, #108	; 0x6c
 8001fd0:	af00      	add	r7, sp, #0
  RCC_OscInitTypeDef RCC_OscInitStruct = {0};
 8001fd2:	2434      	movs	r4, #52	; 0x34
 8001fd4:	193b      	adds	r3, r7, r4
 8001fd6:	0018      	movs	r0, r3
 8001fd8:	2334      	movs	r3, #52	; 0x34
 8001fda:	001a      	movs	r2, r3
 8001fdc:	2100      	movs	r1, #0
 8001fde:	f004 fbac 	bl	800673a <memset>
  RCC_ClkInitTypeDef RCC_ClkInitStruct = {0};
 8001fe2:	2320      	movs	r3, #32
 8001fe4:	18fb      	adds	r3, r7, r3
 8001fe6:	0018      	movs	r0, r3
 8001fe8:	2314      	movs	r3, #20
 8001fea:	001a      	movs	r2, r3
 8001fec:	2100      	movs	r1, #0
 8001fee:	f004 fba4 	bl	800673a <memset>
  RCC_PeriphCLKInitTypeDef PeriphClkInit = {0};
 8001ff2:	003b      	movs	r3, r7
 8001ff4:	0018      	movs	r0, r3
 8001ff6:	2320      	movs	r3, #32
 8001ff8:	001a      	movs	r2, r3
 8001ffa:	2100      	movs	r1, #0
 8001ffc:	f004 fb9d 	bl	800673a <memset>

  /** Configure the main internal regulator output voltage
  */
  __HAL_PWR_VOLTAGESCALING_CONFIG(PWR_REGULATOR_VOLTAGE_SCALE1);
 8002000:	4b2b      	ldr	r3, [pc, #172]	; (80020b0 <SystemClock_Config+0xe4>)
 8002002:	681b      	ldr	r3, [r3, #0]
 8002004:	4a2b      	ldr	r2, [pc, #172]	; (80020b4 <SystemClock_Config+0xe8>)
 8002006:	401a      	ands	r2, r3
 8002008:	4b29      	ldr	r3, [pc, #164]	; (80020b0 <SystemClock_Config+0xe4>)
 800200a:	2180      	movs	r1, #128	; 0x80
 800200c:	0109      	lsls	r1, r1, #4
 800200e:	430a      	orrs	r2, r1
 8002010:	601a      	str	r2, [r3, #0]
  /** Initializes the RCC Oscillators according to the specified parameters
  * in the RCC_OscInitTypeDef structure.
  */
  RCC_OscInitStruct.OscillatorType = RCC_OSCILLATORTYPE_HSI;
 8002012:	0021      	movs	r1, r4
 8002014:	187b      	adds	r3, r7, r1
 8002016:	2202      	movs	r2, #2
 8002018:	601a      	str	r2, [r3, #0]
  RCC_OscInitStruct.HSIState = RCC_HSI_ON;
 800201a:	187b      	adds	r3, r7, r1
 800201c:	2201      	movs	r2, #1
 800201e:	60da      	str	r2, [r3, #12]
  RCC_OscInitStruct.HSICalibrationValue = RCC_HSICALIBRATION_DEFAULT;
 8002020:	187b      	adds	r3, r7, r1
 8002022:	2210      	movs	r2, #16
 8002024:	611a      	str	r2, [r3, #16]
  RCC_OscInitStruct.PLL.PLLState = RCC_PLL_ON;
 8002026:	187b      	adds	r3, r7, r1
 8002028:	2202      	movs	r2, #2
 800202a:	625a      	str	r2, [r3, #36]	; 0x24
  RCC_OscInitStruct.PLL.PLLSource = RCC_PLLSOURCE_HSI;
 800202c:	187b      	adds	r3, r7, r1
 800202e:	2200      	movs	r2, #0
 8002030:	629a      	str	r2, [r3, #40]	; 0x28
  RCC_OscInitStruct.PLL.PLLMUL = RCC_PLLMUL_4;
 8002032:	187b      	adds	r3, r7, r1
 8002034:	2280      	movs	r2, #128	; 0x80
 8002036:	02d2      	lsls	r2, r2, #11
 8002038:	62da      	str	r2, [r3, #44]	; 0x2c
  RCC_OscInitStruct.PLL.PLLDIV = RCC_PLLDIV_2;
 800203a:	187b      	adds	r3, r7, r1
 800203c:	2280      	movs	r2, #128	; 0x80
 800203e:	03d2      	lsls	r2, r2, #15
 8002040:	631a      	str	r2, [r3, #48]	; 0x30
  if (HAL_RCC_OscConfig(&RCC_OscInitStruct) != HAL_OK)
 8002042:	187b      	adds	r3, r7, r1
 8002044:	0018      	movs	r0, r3
 8002046:	f002 f96f 	bl	8004328 <HAL_RCC_OscConfig>
 800204a:	1e03      	subs	r3, r0, #0
 800204c:	d001      	beq.n	8002052 <SystemClock_Config+0x86>
  {
    Error_Handler();
 800204e:	f000 f833 	bl	80020b8 <Error_Handler>
  }
  /** Initializes the CPU, AHB and APB buses clocks
  */
  RCC_ClkInitStruct.ClockType = RCC_CLOCKTYPE_HCLK|RCC_CLOCKTYPE_SYSCLK
 8002052:	2120      	movs	r1, #32
 8002054:	187b      	adds	r3, r7, r1
 8002056:	220f      	movs	r2, #15
 8002058:	601a      	str	r2, [r3, #0]
                              |RCC_CLOCKTYPE_PCLK1|RCC_CLOCKTYPE_PCLK2;
  RCC_ClkInitStruct.SYSCLKSource = RCC_SYSCLKSOURCE_PLLCLK;
 800205a:	187b      	adds	r3, r7, r1
 800205c:	2203      	movs	r2, #3
 800205e:	605a      	str	r2, [r3, #4]
  RCC_ClkInitStruct.AHBCLKDivider = RCC_SYSCLK_DIV1;
 8002060:	187b      	adds	r3, r7, r1
 8002062:	2200      	movs	r2, #0
 8002064:	609a      	str	r2, [r3, #8]
  RCC_ClkInitStruct.APB1CLKDivider = RCC_HCLK_DIV1;
 8002066:	187b      	adds	r3, r7, r1
 8002068:	2200      	movs	r2, #0
 800206a:	60da      	str	r2, [r3, #12]
  RCC_ClkInitStruct.APB2CLKDivider = RCC_HCLK_DIV1;
 800206c:	187b      	adds	r3, r7, r1
 800206e:	2200      	movs	r2, #0
 8002070:	611a      	str	r2, [r3, #16]

  if (HAL_RCC_ClockConfig(&RCC_ClkInitStruct, FLASH_LATENCY_1) != HAL_OK)
 8002072:	187b      	adds	r3, r7, r1
 8002074:	2101      	movs	r1, #1
 8002076:	0018      	movs	r0, r3
 8002078:	f002 fcd2 	bl	8004a20 <HAL_RCC_ClockConfig>
 800207c:	1e03      	subs	r3, r0, #0
 800207e:	d001      	beq.n	8002084 <SystemClock_Config+0xb8>
  {
    Error_Handler();
 8002080:	f000 f81a 	bl	80020b8 <Error_Handler>
  }
  PeriphClkInit.PeriphClockSelection = RCC_PERIPHCLK_USART1|RCC_PERIPHCLK_LPTIM1;
 8002084:	003b      	movs	r3, r7
 8002086:	2281      	movs	r2, #129	; 0x81
 8002088:	601a      	str	r2, [r3, #0]
  PeriphClkInit.Usart1ClockSelection = RCC_USART1CLKSOURCE_PCLK2;
 800208a:	003b      	movs	r3, r7
 800208c:	2200      	movs	r2, #0
 800208e:	609a      	str	r2, [r3, #8]
  PeriphClkInit.LptimClockSelection = RCC_LPTIM1CLKSOURCE_PCLK;
 8002090:	003b      	movs	r3, r7
 8002092:	2200      	movs	r2, #0
 8002094:	61da      	str	r2, [r3, #28]

  if (HAL_RCCEx_PeriphCLKConfig(&PeriphClkInit) != HAL_OK)
 8002096:	003b      	movs	r3, r7
 8002098:	0018      	movs	r0, r3
 800209a:	f002 feaf 	bl	8004dfc <HAL_RCCEx_PeriphCLKConfig>
 800209e:	1e03      	subs	r3, r0, #0
 80020a0:	d001      	beq.n	80020a6 <SystemClock_Config+0xda>
  {
    Error_Handler();
 80020a2:	f000 f809 	bl	80020b8 <Error_Handler>
  }
}
 80020a6:	46c0      	nop			; (mov r8, r8)
 80020a8:	46bd      	mov	sp, r7
 80020aa:	b01b      	add	sp, #108	; 0x6c
 80020ac:	bd90      	pop	{r4, r7, pc}
 80020ae:	46c0      	nop			; (mov r8, r8)
 80020b0:	40007000 	.word	0x40007000
 80020b4:	ffffe7ff 	.word	0xffffe7ff

080020b8 <Error_Handler>:
/**
  * @brief  This function is executed in case of error occurrence.
  * @retval None
  */
void Error_Handler(void)
{
 80020b8:	b580      	push	{r7, lr}
 80020ba:	af00      	add	r7, sp, #0
  __ASM volatile ("cpsid i" : : : "memory");
 80020bc:	b672      	cpsid	i
}
 80020be:	46c0      	nop			; (mov r8, r8)
  /* USER CODE BEGIN Error_Handler_Debug */
	/* User can add his own implementation to report the HAL error return state */
	__disable_irq();
	while (1) {
 80020c0:	e7fe      	b.n	80020c0 <Error_Handler+0x8>
	...

080020c4 <SPI_RXBUF_GetData>:
extern uint8_t SPI_RxBufLastCNDTR;

uint8_t bufSPI_Tx[BUFSIZE], bufSPI_Rx[BUFSIZE];

uint16_t SPI_RXBUF_GetData(uint16_t *shift)
{
 80020c4:	b580      	push	{r7, lr}
 80020c6:	b084      	sub	sp, #16
 80020c8:	af00      	add	r7, sp, #0
 80020ca:	6078      	str	r0, [r7, #4]
	uint32_t cndrt = DMA1_Channel2->CNDTR;
 80020cc:	4b1b      	ldr	r3, [pc, #108]	; (800213c <SPI_RXBUF_GetData+0x78>)
 80020ce:	685b      	ldr	r3, [r3, #4]
 80020d0:	60fb      	str	r3, [r7, #12]
  *shift =  BUFSIZE - SPI_RxBufLastCNDTR;
 80020d2:	4b1b      	ldr	r3, [pc, #108]	; (8002140 <SPI_RXBUF_GetData+0x7c>)
 80020d4:	781b      	ldrb	r3, [r3, #0]
 80020d6:	b29b      	uxth	r3, r3
 80020d8:	2240      	movs	r2, #64	; 0x40
 80020da:	1ad3      	subs	r3, r2, r3
 80020dc:	b29a      	uxth	r2, r3
 80020de:	687b      	ldr	r3, [r7, #4]
 80020e0:	801a      	strh	r2, [r3, #0]

  if(SPI_RxBufLastCNDTR > cndrt)
 80020e2:	4b17      	ldr	r3, [pc, #92]	; (8002140 <SPI_RXBUF_GetData+0x7c>)
 80020e4:	781b      	ldrb	r3, [r3, #0]
 80020e6:	001a      	movs	r2, r3
 80020e8:	68fb      	ldr	r3, [r7, #12]
 80020ea:	4293      	cmp	r3, r2
 80020ec:	d20f      	bcs.n	800210e <SPI_RXBUF_GetData+0x4a>
  {
    uint16_t len = SPI_RxBufLastCNDTR - cndrt;
 80020ee:	4b14      	ldr	r3, [pc, #80]	; (8002140 <SPI_RXBUF_GetData+0x7c>)
 80020f0:	781b      	ldrb	r3, [r3, #0]
 80020f2:	b299      	uxth	r1, r3
 80020f4:	68fb      	ldr	r3, [r7, #12]
 80020f6:	b29a      	uxth	r2, r3
 80020f8:	2008      	movs	r0, #8
 80020fa:	183b      	adds	r3, r7, r0
 80020fc:	1a8a      	subs	r2, r1, r2
 80020fe:	801a      	strh	r2, [r3, #0]
    SPI_RxBufLastCNDTR = cndrt;
 8002100:	68fb      	ldr	r3, [r7, #12]
 8002102:	b2da      	uxtb	r2, r3
 8002104:	4b0e      	ldr	r3, [pc, #56]	; (8002140 <SPI_RXBUF_GetData+0x7c>)
 8002106:	701a      	strb	r2, [r3, #0]
		return len;
 8002108:	183b      	adds	r3, r7, r0
 800210a:	881b      	ldrh	r3, [r3, #0]
 800210c:	e011      	b.n	8002132 <SPI_RXBUF_GetData+0x6e>
  }
	else if(SPI_RxBufLastCNDTR < cndrt)
 800210e:	4b0c      	ldr	r3, [pc, #48]	; (8002140 <SPI_RXBUF_GetData+0x7c>)
 8002110:	781b      	ldrb	r3, [r3, #0]
 8002112:	001a      	movs	r2, r3
 8002114:	68fb      	ldr	r3, [r7, #12]
 8002116:	4293      	cmp	r3, r2
 8002118:	d90a      	bls.n	8002130 <SPI_RXBUF_GetData+0x6c>
  {
    uint16_t len = SPI_RxBufLastCNDTR;
 800211a:	4b09      	ldr	r3, [pc, #36]	; (8002140 <SPI_RXBUF_GetData+0x7c>)
 800211c:	781a      	ldrb	r2, [r3, #0]
 800211e:	210a      	movs	r1, #10
 8002120:	187b      	adds	r3, r7, r1
 8002122:	801a      	strh	r2, [r3, #0]
    SPI_RxBufLastCNDTR = BUFSIZE;
 8002124:	4b06      	ldr	r3, [pc, #24]	; (8002140 <SPI_RXBUF_GetData+0x7c>)
 8002126:	2240      	movs	r2, #64	; 0x40
 8002128:	701a      	strb	r2, [r3, #0]
		return len;
 800212a:	187b      	adds	r3, r7, r1
 800212c:	881b      	ldrh	r3, [r3, #0]
 800212e:	e000      	b.n	8002132 <SPI_RXBUF_GetData+0x6e>
  }
	return 0;
 8002130:	2300      	movs	r3, #0
}
 8002132:	0018      	movs	r0, r3
 8002134:	46bd      	mov	sp, r7
 8002136:	b004      	add	sp, #16
 8002138:	bd80      	pop	{r7, pc}
 800213a:	46c0      	nop			; (mov r8, r8)
 800213c:	4002001c 	.word	0x4002001c
 8002140:	20000670 	.word	0x20000670

08002144 <protocol_task>:
extern uint8_t bufUART_Rx[];
extern uint8_t bufSPI_Rx[];
extern uint8_t bufCmd[], bufCmdCnt; // Буфер принятой команды и счётчик принятых байт. Заполнение буфера начинается после обнаружения маркера
extern uint8_t bufCmdSPI[], bufCmdCntSPI; // Буфер принятой команды и счётчик принятых байт. Заполнение буфера начинается после обнаружения маркера
//-------------------------------------------------------------
void protocol_task(void) {
 8002144:	b5b0      	push	{r4, r5, r7, lr}
 8002146:	b084      	sub	sp, #16
 8002148:	af00      	add	r7, sp, #0
	uint16_t n, shift;

	n = UART_RXBUF_GetData(&shift); // Проверка на поступление команды по rs-485
 800214a:	250e      	movs	r5, #14
 800214c:	197c      	adds	r4, r7, r5
 800214e:	003b      	movs	r3, r7
 8002150:	0018      	movs	r0, r3
 8002152:	f7fe fed1 	bl	8000ef8 <UART_RXBUF_GetData>
 8002156:	0003      	movs	r3, r0
 8002158:	8023      	strh	r3, [r4, #0]
	if (n)
 800215a:	197b      	adds	r3, r7, r5
 800215c:	881b      	ldrh	r3, [r3, #0]
 800215e:	2b00      	cmp	r3, #0
 8002160:	d04e      	beq.n	8002200 <protocol_task+0xbc>
	{

		for (int i = 0; i < n; i++) { // Копирование данных в буфер команды с поиском маркера
 8002162:	2300      	movs	r3, #0
 8002164:	60bb      	str	r3, [r7, #8]
 8002166:	e044      	b.n	80021f2 <protocol_task+0xae>
			if (bufCmdCnt == 0)
 8002168:	4b56      	ldr	r3, [pc, #344]	; (80022c4 <protocol_task+0x180>)
 800216a:	781b      	ldrb	r3, [r3, #0]
 800216c:	2b00      	cmp	r3, #0
 800216e:	d118      	bne.n	80021a2 <protocol_task+0x5e>
			{
				uint8_t wrk = bufUART_Rx[i + shift];
 8002170:	003b      	movs	r3, r7
 8002172:	881b      	ldrh	r3, [r3, #0]
 8002174:	001a      	movs	r2, r3
 8002176:	68bb      	ldr	r3, [r7, #8]
 8002178:	18d2      	adds	r2, r2, r3
 800217a:	1cfb      	adds	r3, r7, #3
 800217c:	4952      	ldr	r1, [pc, #328]	; (80022c8 <protocol_task+0x184>)
 800217e:	5c8a      	ldrb	r2, [r1, r2]
 8002180:	701a      	strb	r2, [r3, #0]
				if (wrk == MARKER) { // Начало команды
 8002182:	1cfb      	adds	r3, r7, #3
 8002184:	781b      	ldrb	r3, [r3, #0]
